{"contracts/Lock.sol":{"Lock":{"abi":[{"inputs":[{"internalType":"string","name":"name","type":"string"}],"name":"addName","outputs":[],"stateMutability":"nonpayable","type":"function"},{"inputs":[],"name":"getNames","outputs":[{"internalType":"string[]","name":"","type":"string[]"}],"stateMutability":"view","type":"function"},{"inputs":[{"internalType":"uint256","name":"","type":"uint256"}],"name":"names","outputs":[{"internalType":"string","name":"","type":"string"}],"stateMutability":"view","type":"function"}],"evm":{"bytecode":{"linkReferences":{},"object":"608060405260405180606001604052806040518060400160405280600581526020017f416c69636500000000000000000000000000000000000000000000000000000081525081526020016040518060400160405280600381526020017f426f62000000000000000000000000000000000000000000000000000000000081525081526020016040518060400160405280600781526020017f436861726c69650000000000000000000000000000000000000000000000000081525081525060009060036100ce9291906100e1565b503480156100db57600080fd5b506104dd565b828054828255906000526020600020908101928215610129579160200282015b82811115610128578251829081610118919061040b565b5091602001919060010190610101565b5b509050610136919061013a565b5090565b5b8082111561015a5760008181610151919061015e565b5060010161013b565b5090565b50805461016a90610224565b6000825580601f1061017c575061019b565b601f01602090049060005260206000209081019061019a919061019e565b5b50565b5b808211156101b757600081600090555060010161019f565b5090565b600081519050919050565b7f4e487b7100000000000000000000000000000000000000000000000000000000600052604160045260246000fd5b7f4e487b7100000000000000000000000000000000000000000000000000000000600052602260045260246000fd5b6000600282049050600182168061023c57607f821691505b60208210810361024f5761024e6101f5565b5b50919050565b60008190508160005260206000209050919050565b60006020601f8301049050919050565b600082821b905092915050565b6000600883026102b77fffffffffffffffffffffffffffffffffffffffffffffffffffffffffffffffff8261027a565b6102c1868361027a565b95508019841693508086168417925050509392505050565b6000819050919050565b6000819050919050565b60006103086103036102fe846102d9565b6102e3565b6102d9565b9050919050565b6000819050919050565b610322836102ed565b61033661032e8261030f565b848454610287565b825550505050565b600090565b61034b61033e565b610356818484610319565b505050565b5b8181101561037a5761036f600082610343565b60018101905061035c565b5050565b601f8211156103bf5761039081610255565b6103998461026a565b810160208510156103a8578190505b6103bc6103b48561026a565b83018261035b565b50505b505050565b600082821c905092915050565b60006103e2600019846008026103c4565b1980831691505092915050565b60006103fb83836103d1565b9150826002028217905092915050565b610414826101bb565b67ffffffffffffffff81111561042d5761042c6101c6565b5b6104378254610224565b61044282828561037e565b600060209050601f8311600181146104755760008415610463578287015190505b61046d85826103ef565b8655506104d5565b601f19841661048386610255565b60005b828110156104ab57848901518255600182019150602085019450602081019050610486565b868310156104c857848901516104c4601f8916826103d1565b8355505b6001600288020188555050505b505050505050565b610956806104ec6000396000f3fe608060405234801561001057600080fd5b50600436106100415760003560e01c806311456b47146100465780634622ab0314610062578063cd838f0f14610092575b600080fd5b610060600480360381019061005b91906103c7565b6100b0565b005b61007c60048036038101906100779190610446565b6100e8565b60405161008991906104f2565b60405180910390f35b61009a610194565b6040516100a79190610620565b60405180910390f35b6000819080600181540180825580915050600190039060005260206000200160009091909190915090816100e4919061084e565b5050565b600081815481106100f857600080fd5b90600052602060002001600091509050805461011390610671565b80601f016020809104026020016040519081016040528092919081815260200182805461013f90610671565b801561018c5780601f106101615761010080835404028352916020019161018c565b820191906000526020600020905b81548152906001019060200180831161016f57829003601f168201915b505050505081565b60606000805480602002602001604051908101604052809291908181526020016000905b828210156102645783829060005260206000200180546101d790610671565b80601f016020809104026020016040519081016040528092919081815260200182805461020390610671565b80156102505780601f1061022557610100808354040283529160200191610250565b820191906000526020600020905b81548152906001019060200180831161023357829003601f168201915b5050505050815260200190600101906101b8565b50505050905090565b6000604051905090565b600080fd5b600080fd5b600080fd5b600080fd5b6000601f19601f8301169050919050565b7f4e487b7100000000000000000000000000000000000000000000000000000000600052604160045260246000fd5b6102d48261028b565b810181811067ffffffffffffffff821117156102f3576102f261029c565b5b80604052505050565b600061030661026d565b905061031282826102cb565b919050565b600067ffffffffffffffff8211156103325761033161029c565b5b61033b8261028b565b9050602081019050919050565b82818337600083830152505050565b600061036a61036584610317565b6102fc565b90508281526020810184848401111561038657610385610286565b5b610391848285610348565b509392505050565b600082601f8301126103ae576103ad610281565b5b81356103be848260208601610357565b91505092915050565b6000602082840312156103dd576103dc610277565b5b600082013567ffffffffffffffff8111156103fb576103fa61027c565b5b61040784828501610399565b91505092915050565b6000819050919050565b61042381610410565b811461042e57600080fd5b50565b6000813590506104408161041a565b92915050565b60006020828403121561045c5761045b610277565b5b600061046a84828501610431565b91505092915050565b600081519050919050565b600082825260208201905092915050565b60005b838110156104ad578082015181840152602081019050610492565b60008484015250505050565b60006104c482610473565b6104ce818561047e565b93506104de81856020860161048f565b6104e78161028b565b840191505092915050565b6000602082019050818103600083015261050c81846104b9565b905092915050565b600081519050919050565b600082825260208201905092915050565b6000819050602082019050919050565b600082825260208201905092915050565b600061055c82610473565b6105668185610540565b935061057681856020860161048f565b61057f8161028b565b840191505092915050565b60006105968383610551565b905092915050565b6000602082019050919050565b60006105b682610514565b6105c0818561051f565b9350836020820285016105d285610530565b8060005b8581101561060e57848403895281516105ef858261058a565b94506105fa8361059e565b925060208a019950506001810190506105d6565b50829750879550505050505092915050565b6000602082019050818103600083015261063a81846105ab565b905092915050565b7f4e487b7100000000000000000000000000000000000000000000000000000000600052602260045260246000fd5b6000600282049050600182168061068957607f821691505b60208210810361069c5761069b610642565b5b50919050565b60008190508160005260206000209050919050565b60006020601f8301049050919050565b600082821b905092915050565b6000600883026107047fffffffffffffffffffffffffffffffffffffffffffffffffffffffffffffffff826106c7565b61070e86836106c7565b95508019841693508086168417925050509392505050565b6000819050919050565b600061074b61074661074184610410565b610726565b610410565b9050919050565b6000819050919050565b61076583610730565b61077961077182610752565b8484546106d4565b825550505050565b600090565b61078e610781565b61079981848461075c565b505050565b5b818110156107bd576107b2600082610786565b60018101905061079f565b5050565b601f821115610802576107d3816106a2565b6107dc846106b7565b810160208510156107eb578190505b6107ff6107f7856106b7565b83018261079e565b50505b505050565b600082821c905092915050565b600061082560001984600802610807565b1980831691505092915050565b600061083e8383610814565b9150826002028217905092915050565b61085782610473565b67ffffffffffffffff8111156108705761086f61029c565b5b61087a8254610671565b6108858282856107c1565b600060209050601f8311600181146108b857600084156108a6578287015190505b6108b08582610832565b865550610918565b601f1984166108c6866106a2565b60005b828110156108ee578489015182556001820191506020850194506020810190506108c9565b8683101561090b5784890151610907601f891682610814565b8355505b6001600288020188555050505b50505050505056fea2646970667358221220e6e612e1bbe3e154af6833f46006b71094cbae01313b4b35cfca7e24501d2e3464736f6c634300081c0033","opcodes":"PUSH1 0x80 PUSH1 0x40 MSTORE PUSH1 0x40 MLOAD DUP1 PUSH1 0x60 ADD PUSH1 0x40 MSTORE DUP1 PUSH1 0x40 MLOAD DUP1 PUSH1 0x40 ADD PUSH1 0x40 MSTORE DUP1 PUSH1 0x5 DUP2 MSTORE PUSH1 0x20 ADD PUSH32 0x416C696365000000000000000000000000000000000000000000000000000000 DUP2 MSTORE POP DUP2 MSTORE PUSH1 0x20 ADD PUSH1 0x40 MLOAD DUP1 PUSH1 0x40 ADD PUSH1 0x40 MSTORE DUP1 PUSH1 0x3 DUP2 MSTORE PUSH1 0x20 ADD PUSH32 0x426F620000000000000000000000000000000000000000000000000000000000 DUP2 MSTORE POP DUP2 MSTORE PUSH1 0x20 ADD PUSH1 0x40 MLOAD DUP1 PUSH1 0x40 ADD PUSH1 0x40 MSTORE DUP1 PUSH1 0x7 DUP2 MSTORE PUSH1 0x20 ADD PUSH32 0x436861726C696500000000000000000000000000000000000000000000000000 DUP2 MSTORE POP DUP2 MSTORE POP PUSH1 0x0 SWAP1 PUSH1 0x3 PUSH2 0xCE SWAP3 SWAP2 SWAP1 PUSH2 0xE1 JUMP JUMPDEST POP CALLVALUE DUP1 ISZERO PUSH2 0xDB JUMPI PUSH1 0x0 DUP1 REVERT JUMPDEST POP PUSH2 0x4DD JUMP JUMPDEST DUP3 DUP1 SLOAD DUP3 DUP3 SSTORE SWAP1 PUSH1 0x0 MSTORE PUSH1 0x20 PUSH1 0x0 KECCAK256 SWAP1 DUP2 ADD SWAP3 DUP3 ISZERO PUSH2 0x129 JUMPI SWAP2 PUSH1 0x20 MUL DUP3 ADD JUMPDEST DUP3 DUP2 GT ISZERO PUSH2 0x128 JUMPI DUP3 MLOAD DUP3 SWAP1 DUP2 PUSH2 0x118 SWAP2 SWAP1 PUSH2 0x40B JUMP JUMPDEST POP SWAP2 PUSH1 0x20 ADD SWAP2 SWAP1 PUSH1 0x1 ADD SWAP1 PUSH2 0x101 JUMP JUMPDEST JUMPDEST POP SWAP1 POP PUSH2 0x136 SWAP2 SWAP1 PUSH2 0x13A JUMP JUMPDEST POP SWAP1 JUMP JUMPDEST JUMPDEST DUP1 DUP3 GT ISZERO PUSH2 0x15A JUMPI PUSH1 0x0 DUP2 DUP2 PUSH2 0x151 SWAP2 SWAP1 PUSH2 0x15E JUMP JUMPDEST POP PUSH1 0x1 ADD PUSH2 0x13B JUMP JUMPDEST POP SWAP1 JUMP JUMPDEST POP DUP1 SLOAD PUSH2 0x16A SWAP1 PUSH2 0x224 JUMP JUMPDEST PUSH1 0x0 DUP3 SSTORE DUP1 PUSH1 0x1F LT PUSH2 0x17C JUMPI POP PUSH2 0x19B JUMP JUMPDEST PUSH1 0x1F ADD PUSH1 0x20 SWAP1 DIV SWAP1 PUSH1 0x0 MSTORE PUSH1 0x20 PUSH1 0x0 KECCAK256 SWAP1 DUP2 ADD SWAP1 PUSH2 0x19A SWAP2 SWAP1 PUSH2 0x19E JUMP JUMPDEST JUMPDEST POP JUMP JUMPDEST JUMPDEST DUP1 DUP3 GT ISZERO PUSH2 0x1B7 JUMPI PUSH1 0x0 DUP2 PUSH1 0x0 SWAP1 SSTORE POP PUSH1 0x1 ADD PUSH2 0x19F JUMP JUMPDEST POP SWAP1 JUMP JUMPDEST PUSH1 0x0 DUP2 MLOAD SWAP1 POP SWAP2 SWAP1 POP JUMP JUMPDEST PUSH32 0x4E487B7100000000000000000000000000000000000000000000000000000000 PUSH1 0x0 MSTORE PUSH1 0x41 PUSH1 0x4 MSTORE PUSH1 0x24 PUSH1 0x0 REVERT JUMPDEST PUSH32 0x4E487B7100000000000000000000000000000000000000000000000000000000 PUSH1 0x0 MSTORE PUSH1 0x22 PUSH1 0x4 MSTORE PUSH1 0x24 PUSH1 0x0 REVERT JUMPDEST PUSH1 0x0 PUSH1 0x2 DUP3 DIV SWAP1 POP PUSH1 0x1 DUP3 AND DUP1 PUSH2 0x23C JUMPI PUSH1 0x7F DUP3 AND SWAP2 POP JUMPDEST PUSH1 0x20 DUP3 LT DUP2 SUB PUSH2 0x24F JUMPI PUSH2 0x24E PUSH2 0x1F5 JUMP JUMPDEST JUMPDEST POP SWAP2 SWAP1 POP JUMP JUMPDEST PUSH1 0x0 DUP2 SWAP1 POP DUP2 PUSH1 0x0 MSTORE PUSH1 0x20 PUSH1 0x0 KECCAK256 SWAP1 POP SWAP2 SWAP1 POP JUMP JUMPDEST PUSH1 0x0 PUSH1 0x20 PUSH1 0x1F DUP4 ADD DIV SWAP1 POP SWAP2 SWAP1 POP JUMP JUMPDEST PUSH1 0x0 DUP3 DUP3 SHL SWAP1 POP SWAP3 SWAP2 POP POP JUMP JUMPDEST PUSH1 0x0 PUSH1 0x8 DUP4 MUL PUSH2 0x2B7 PUSH32 0xFFFFFFFFFFFFFFFFFFFFFFFFFFFFFFFFFFFFFFFFFFFFFFFFFFFFFFFFFFFFFFFF DUP3 PUSH2 0x27A JUMP JUMPDEST PUSH2 0x2C1 DUP7 DUP4 PUSH2 0x27A JUMP JUMPDEST SWAP6 POP DUP1 NOT DUP5 AND SWAP4 POP DUP1 DUP7 AND DUP5 OR SWAP3 POP POP POP SWAP4 SWAP3 POP POP POP JUMP JUMPDEST PUSH1 0x0 DUP2 SWAP1 POP SWAP2 SWAP1 POP JUMP JUMPDEST PUSH1 0x0 DUP2 SWAP1 POP SWAP2 SWAP1 POP JUMP JUMPDEST PUSH1 0x0 PUSH2 0x308 PUSH2 0x303 PUSH2 0x2FE DUP5 PUSH2 0x2D9 JUMP JUMPDEST PUSH2 0x2E3 JUMP JUMPDEST PUSH2 0x2D9 JUMP JUMPDEST SWAP1 POP SWAP2 SWAP1 POP JUMP JUMPDEST PUSH1 0x0 DUP2 SWAP1 POP SWAP2 SWAP1 POP JUMP JUMPDEST PUSH2 0x322 DUP4 PUSH2 0x2ED JUMP JUMPDEST PUSH2 0x336 PUSH2 0x32E DUP3 PUSH2 0x30F JUMP JUMPDEST DUP5 DUP5 SLOAD PUSH2 0x287 JUMP JUMPDEST DUP3 SSTORE POP POP POP POP JUMP JUMPDEST PUSH1 0x0 SWAP1 JUMP JUMPDEST PUSH2 0x34B PUSH2 0x33E JUMP JUMPDEST PUSH2 0x356 DUP2 DUP5 DUP5 PUSH2 0x319 JUMP JUMPDEST POP POP POP JUMP JUMPDEST JUMPDEST DUP2 DUP2 LT ISZERO PUSH2 0x37A JUMPI PUSH2 0x36F PUSH1 0x0 DUP3 PUSH2 0x343 JUMP JUMPDEST PUSH1 0x1 DUP2 ADD SWAP1 POP PUSH2 0x35C JUMP JUMPDEST POP POP JUMP JUMPDEST PUSH1 0x1F DUP3 GT ISZERO PUSH2 0x3BF JUMPI PUSH2 0x390 DUP2 PUSH2 0x255 JUMP JUMPDEST PUSH2 0x399 DUP5 PUSH2 0x26A JUMP JUMPDEST DUP2 ADD PUSH1 0x20 DUP6 LT ISZERO PUSH2 0x3A8 JUMPI DUP2 SWAP1 POP JUMPDEST PUSH2 0x3BC PUSH2 0x3B4 DUP6 PUSH2 0x26A JUMP JUMPDEST DUP4 ADD DUP3 PUSH2 0x35B JUMP JUMPDEST POP POP JUMPDEST POP POP POP JUMP JUMPDEST PUSH1 0x0 DUP3 DUP3 SHR SWAP1 POP SWAP3 SWAP2 POP POP JUMP JUMPDEST PUSH1 0x0 PUSH2 0x3E2 PUSH1 0x0 NOT DUP5 PUSH1 0x8 MUL PUSH2 0x3C4 JUMP JUMPDEST NOT DUP1 DUP4 AND SWAP2 POP POP SWAP3 SWAP2 POP POP JUMP JUMPDEST PUSH1 0x0 PUSH2 0x3FB DUP4 DUP4 PUSH2 0x3D1 JUMP JUMPDEST SWAP2 POP DUP3 PUSH1 0x2 MUL DUP3 OR SWAP1 POP SWAP3 SWAP2 POP POP JUMP JUMPDEST PUSH2 0x414 DUP3 PUSH2 0x1BB JUMP JUMPDEST PUSH8 0xFFFFFFFFFFFFFFFF DUP2 GT ISZERO PUSH2 0x42D JUMPI PUSH2 0x42C PUSH2 0x1C6 JUMP JUMPDEST JUMPDEST PUSH2 0x437 DUP3 SLOAD PUSH2 0x224 JUMP JUMPDEST PUSH2 0x442 DUP3 DUP3 DUP6 PUSH2 0x37E JUMP JUMPDEST PUSH1 0x0 PUSH1 0x20 SWAP1 POP PUSH1 0x1F DUP4 GT PUSH1 0x1 DUP2 EQ PUSH2 0x475 JUMPI PUSH1 0x0 DUP5 ISZERO PUSH2 0x463 JUMPI DUP3 DUP8 ADD MLOAD SWAP1 POP JUMPDEST PUSH2 0x46D DUP6 DUP3 PUSH2 0x3EF JUMP JUMPDEST DUP7 SSTORE POP PUSH2 0x4D5 JUMP JUMPDEST PUSH1 0x1F NOT DUP5 AND PUSH2 0x483 DUP7 PUSH2 0x255 JUMP JUMPDEST PUSH1 0x0 JUMPDEST DUP3 DUP2 LT ISZERO PUSH2 0x4AB JUMPI DUP5 DUP10 ADD MLOAD DUP3 SSTORE PUSH1 0x1 DUP3 ADD SWAP2 POP PUSH1 0x20 DUP6 ADD SWAP5 POP PUSH1 0x20 DUP2 ADD SWAP1 POP PUSH2 0x486 JUMP JUMPDEST DUP7 DUP4 LT ISZERO PUSH2 0x4C8 JUMPI DUP5 DUP10 ADD MLOAD PUSH2 0x4C4 PUSH1 0x1F DUP10 AND DUP3 PUSH2 0x3D1 JUMP JUMPDEST DUP4 SSTORE POP JUMPDEST PUSH1 0x1 PUSH1 0x2 DUP9 MUL ADD DUP9 SSTORE POP POP POP JUMPDEST POP POP POP POP POP POP JUMP JUMPDEST PUSH2 0x956 DUP1 PUSH2 0x4EC PUSH1 0x0 CODECOPY PUSH1 0x0 RETURN INVALID PUSH1 0x80 PUSH1 0x40 MSTORE CALLVALUE DUP1 ISZERO PUSH2 0x10 JUMPI PUSH1 0x0 DUP1 REVERT JUMPDEST POP PUSH1 0x4 CALLDATASIZE LT PUSH2 0x41 JUMPI PUSH1 0x0 CALLDATALOAD PUSH1 0xE0 SHR DUP1 PUSH4 0x11456B47 EQ PUSH2 0x46 JUMPI DUP1 PUSH4 0x4622AB03 EQ PUSH2 0x62 JUMPI DUP1 PUSH4 0xCD838F0F EQ PUSH2 0x92 JUMPI JUMPDEST PUSH1 0x0 DUP1 REVERT JUMPDEST PUSH2 0x60 PUSH1 0x4 DUP1 CALLDATASIZE SUB DUP2 ADD SWAP1 PUSH2 0x5B SWAP2 SWAP1 PUSH2 0x3C7 JUMP JUMPDEST PUSH2 0xB0 JUMP JUMPDEST STOP JUMPDEST PUSH2 0x7C PUSH1 0x4 DUP1 CALLDATASIZE SUB DUP2 ADD SWAP1 PUSH2 0x77 SWAP2 SWAP1 PUSH2 0x446 JUMP JUMPDEST PUSH2 0xE8 JUMP JUMPDEST PUSH1 0x40 MLOAD PUSH2 0x89 SWAP2 SWAP1 PUSH2 0x4F2 JUMP JUMPDEST PUSH1 0x40 MLOAD DUP1 SWAP2 SUB SWAP1 RETURN JUMPDEST PUSH2 0x9A PUSH2 0x194 JUMP JUMPDEST PUSH1 0x40 MLOAD PUSH2 0xA7 SWAP2 SWAP1 PUSH2 0x620 JUMP JUMPDEST PUSH1 0x40 MLOAD DUP1 SWAP2 SUB SWAP1 RETURN JUMPDEST PUSH1 0x0 DUP2 SWAP1 DUP1 PUSH1 0x1 DUP2 SLOAD ADD DUP1 DUP3 SSTORE DUP1 SWAP2 POP POP PUSH1 0x1 SWAP1 SUB SWAP1 PUSH1 0x0 MSTORE PUSH1 0x20 PUSH1 0x0 KECCAK256 ADD PUSH1 0x0 SWAP1 SWAP2 SWAP1 SWAP2 SWAP1 SWAP2 POP SWAP1 DUP2 PUSH2 0xE4 SWAP2 SWAP1 PUSH2 0x84E JUMP JUMPDEST POP POP JUMP JUMPDEST PUSH1 0x0 DUP2 DUP2 SLOAD DUP2 LT PUSH2 0xF8 JUMPI PUSH1 0x0 DUP1 REVERT JUMPDEST SWAP1 PUSH1 0x0 MSTORE PUSH1 0x20 PUSH1 0x0 KECCAK256 ADD PUSH1 0x0 SWAP2 POP SWAP1 POP DUP1 SLOAD PUSH2 0x113 SWAP1 PUSH2 0x671 JUMP JUMPDEST DUP1 PUSH1 0x1F ADD PUSH1 0x20 DUP1 SWAP2 DIV MUL PUSH1 0x20 ADD PUSH1 0x40 MLOAD SWAP1 DUP2 ADD PUSH1 0x40 MSTORE DUP1 SWAP3 SWAP2 SWAP1 DUP2 DUP2 MSTORE PUSH1 0x20 ADD DUP3 DUP1 SLOAD PUSH2 0x13F SWAP1 PUSH2 0x671 JUMP JUMPDEST DUP1 ISZERO PUSH2 0x18C JUMPI DUP1 PUSH1 0x1F LT PUSH2 0x161 JUMPI PUSH2 0x100 DUP1 DUP4 SLOAD DIV MUL DUP4 MSTORE SWAP2 PUSH1 0x20 ADD SWAP2 PUSH2 0x18C JUMP JUMPDEST DUP3 ADD SWAP2 SWAP1 PUSH1 0x0 MSTORE PUSH1 0x20 PUSH1 0x0 KECCAK256 SWAP1 JUMPDEST DUP2 SLOAD DUP2 MSTORE SWAP1 PUSH1 0x1 ADD SWAP1 PUSH1 0x20 ADD DUP1 DUP4 GT PUSH2 0x16F JUMPI DUP3 SWAP1 SUB PUSH1 0x1F AND DUP3 ADD SWAP2 JUMPDEST POP POP POP POP POP DUP2 JUMP JUMPDEST PUSH1 0x60 PUSH1 0x0 DUP1 SLOAD DUP1 PUSH1 0x20 MUL PUSH1 0x20 ADD PUSH1 0x40 MLOAD SWAP1 DUP2 ADD PUSH1 0x40 MSTORE DUP1 SWAP3 SWAP2 SWAP1 DUP2 DUP2 MSTORE PUSH1 0x20 ADD PUSH1 0x0 SWAP1 JUMPDEST DUP3 DUP3 LT ISZERO PUSH2 0x264 JUMPI DUP4 DUP3 SWAP1 PUSH1 0x0 MSTORE PUSH1 0x20 PUSH1 0x0 KECCAK256 ADD DUP1 SLOAD PUSH2 0x1D7 SWAP1 PUSH2 0x671 JUMP JUMPDEST DUP1 PUSH1 0x1F ADD PUSH1 0x20 DUP1 SWAP2 DIV MUL PUSH1 0x20 ADD PUSH1 0x40 MLOAD SWAP1 DUP2 ADD PUSH1 0x40 MSTORE DUP1 SWAP3 SWAP2 SWAP1 DUP2 DUP2 MSTORE PUSH1 0x20 ADD DUP3 DUP1 SLOAD PUSH2 0x203 SWAP1 PUSH2 0x671 JUMP JUMPDEST DUP1 ISZERO PUSH2 0x250 JUMPI DUP1 PUSH1 0x1F LT PUSH2 0x225 JUMPI PUSH2 0x100 DUP1 DUP4 SLOAD DIV MUL DUP4 MSTORE SWAP2 PUSH1 0x20 ADD SWAP2 PUSH2 0x250 JUMP JUMPDEST DUP3 ADD SWAP2 SWAP1 PUSH1 0x0 MSTORE PUSH1 0x20 PUSH1 0x0 KECCAK256 SWAP1 JUMPDEST DUP2 SLOAD DUP2 MSTORE SWAP1 PUSH1 0x1 ADD SWAP1 PUSH1 0x20 ADD DUP1 DUP4 GT PUSH2 0x233 JUMPI DUP3 SWAP1 SUB PUSH1 0x1F AND DUP3 ADD SWAP2 JUMPDEST POP POP POP POP POP DUP2 MSTORE PUSH1 0x20 ADD SWAP1 PUSH1 0x1 ADD SWAP1 PUSH2 0x1B8 JUMP JUMPDEST POP POP POP POP SWAP1 POP SWAP1 JUMP JUMPDEST PUSH1 0x0 PUSH1 0x40 MLOAD SWAP1 POP SWAP1 JUMP JUMPDEST PUSH1 0x0 DUP1 REVERT JUMPDEST PUSH1 0x0 DUP1 REVERT JUMPDEST PUSH1 0x0 DUP1 REVERT JUMPDEST PUSH1 0x0 DUP1 REVERT JUMPDEST PUSH1 0x0 PUSH1 0x1F NOT PUSH1 0x1F DUP4 ADD AND SWAP1 POP SWAP2 SWAP1 POP JUMP JUMPDEST PUSH32 0x4E487B7100000000000000000000000000000000000000000000000000000000 PUSH1 0x0 MSTORE PUSH1 0x41 PUSH1 0x4 MSTORE PUSH1 0x24 PUSH1 0x0 REVERT JUMPDEST PUSH2 0x2D4 DUP3 PUSH2 0x28B JUMP JUMPDEST DUP2 ADD DUP2 DUP2 LT PUSH8 0xFFFFFFFFFFFFFFFF DUP3 GT OR ISZERO PUSH2 0x2F3 JUMPI PUSH2 0x2F2 PUSH2 0x29C JUMP JUMPDEST JUMPDEST DUP1 PUSH1 0x40 MSTORE POP POP POP JUMP JUMPDEST PUSH1 0x0 PUSH2 0x306 PUSH2 0x26D JUMP JUMPDEST SWAP1 POP PUSH2 0x312 DUP3 DUP3 PUSH2 0x2CB JUMP JUMPDEST SWAP2 SWAP1 POP JUMP JUMPDEST PUSH1 0x0 PUSH8 0xFFFFFFFFFFFFFFFF DUP3 GT ISZERO PUSH2 0x332 JUMPI PUSH2 0x331 PUSH2 0x29C JUMP JUMPDEST JUMPDEST PUSH2 0x33B DUP3 PUSH2 0x28B JUMP JUMPDEST SWAP1 POP PUSH1 0x20 DUP2 ADD SWAP1 POP SWAP2 SWAP1 POP JUMP JUMPDEST DUP3 DUP2 DUP4 CALLDATACOPY PUSH1 0x0 DUP4 DUP4 ADD MSTORE POP POP POP JUMP JUMPDEST PUSH1 0x0 PUSH2 0x36A PUSH2 0x365 DUP5 PUSH2 0x317 JUMP JUMPDEST PUSH2 0x2FC JUMP JUMPDEST SWAP1 POP DUP3 DUP2 MSTORE PUSH1 0x20 DUP2 ADD DUP5 DUP5 DUP5 ADD GT ISZERO PUSH2 0x386 JUMPI PUSH2 0x385 PUSH2 0x286 JUMP JUMPDEST JUMPDEST PUSH2 0x391 DUP5 DUP3 DUP6 PUSH2 0x348 JUMP JUMPDEST POP SWAP4 SWAP3 POP POP POP JUMP JUMPDEST PUSH1 0x0 DUP3 PUSH1 0x1F DUP4 ADD SLT PUSH2 0x3AE JUMPI PUSH2 0x3AD PUSH2 0x281 JUMP JUMPDEST JUMPDEST DUP2 CALLDATALOAD PUSH2 0x3BE DUP5 DUP3 PUSH1 0x20 DUP7 ADD PUSH2 0x357 JUMP JUMPDEST SWAP2 POP POP SWAP3 SWAP2 POP POP JUMP JUMPDEST PUSH1 0x0 PUSH1 0x20 DUP3 DUP5 SUB SLT ISZERO PUSH2 0x3DD JUMPI PUSH2 0x3DC PUSH2 0x277 JUMP JUMPDEST JUMPDEST PUSH1 0x0 DUP3 ADD CALLDATALOAD PUSH8 0xFFFFFFFFFFFFFFFF DUP2 GT ISZERO PUSH2 0x3FB JUMPI PUSH2 0x3FA PUSH2 0x27C JUMP JUMPDEST JUMPDEST PUSH2 0x407 DUP5 DUP3 DUP6 ADD PUSH2 0x399 JUMP JUMPDEST SWAP2 POP POP SWAP3 SWAP2 POP POP JUMP JUMPDEST PUSH1 0x0 DUP2 SWAP1 POP SWAP2 SWAP1 POP JUMP JUMPDEST PUSH2 0x423 DUP2 PUSH2 0x410 JUMP JUMPDEST DUP2 EQ PUSH2 0x42E JUMPI PUSH1 0x0 DUP1 REVERT JUMPDEST POP JUMP JUMPDEST PUSH1 0x0 DUP2 CALLDATALOAD SWAP1 POP PUSH2 0x440 DUP2 PUSH2 0x41A JUMP JUMPDEST SWAP3 SWAP2 POP POP JUMP JUMPDEST PUSH1 0x0 PUSH1 0x20 DUP3 DUP5 SUB SLT ISZERO PUSH2 0x45C JUMPI PUSH2 0x45B PUSH2 0x277 JUMP JUMPDEST JUMPDEST PUSH1 0x0 PUSH2 0x46A DUP5 DUP3 DUP6 ADD PUSH2 0x431 JUMP JUMPDEST SWAP2 POP POP SWAP3 SWAP2 POP POP JUMP JUMPDEST PUSH1 0x0 DUP2 MLOAD SWAP1 POP SWAP2 SWAP1 POP JUMP JUMPDEST PUSH1 0x0 DUP3 DUP3 MSTORE PUSH1 0x20 DUP3 ADD SWAP1 POP SWAP3 SWAP2 POP POP JUMP JUMPDEST PUSH1 0x0 JUMPDEST DUP4 DUP2 LT ISZERO PUSH2 0x4AD JUMPI DUP1 DUP3 ADD MLOAD DUP2 DUP5 ADD MSTORE PUSH1 0x20 DUP2 ADD SWAP1 POP PUSH2 0x492 JUMP JUMPDEST PUSH1 0x0 DUP5 DUP5 ADD MSTORE POP POP POP POP JUMP JUMPDEST PUSH1 0x0 PUSH2 0x4C4 DUP3 PUSH2 0x473 JUMP JUMPDEST PUSH2 0x4CE DUP2 DUP6 PUSH2 0x47E JUMP JUMPDEST SWAP4 POP PUSH2 0x4DE DUP2 DUP6 PUSH1 0x20 DUP7 ADD PUSH2 0x48F JUMP JUMPDEST PUSH2 0x4E7 DUP2 PUSH2 0x28B JUMP JUMPDEST DUP5 ADD SWAP2 POP POP SWAP3 SWAP2 POP POP JUMP JUMPDEST PUSH1 0x0 PUSH1 0x20 DUP3 ADD SWAP1 POP DUP2 DUP2 SUB PUSH1 0x0 DUP4 ADD MSTORE PUSH2 0x50C DUP2 DUP5 PUSH2 0x4B9 JUMP JUMPDEST SWAP1 POP SWAP3 SWAP2 POP POP JUMP JUMPDEST PUSH1 0x0 DUP2 MLOAD SWAP1 POP SWAP2 SWAP1 POP JUMP JUMPDEST PUSH1 0x0 DUP3 DUP3 MSTORE PUSH1 0x20 DUP3 ADD SWAP1 POP SWAP3 SWAP2 POP POP JUMP JUMPDEST PUSH1 0x0 DUP2 SWAP1 POP PUSH1 0x20 DUP3 ADD SWAP1 POP SWAP2 SWAP1 POP JUMP JUMPDEST PUSH1 0x0 DUP3 DUP3 MSTORE PUSH1 0x20 DUP3 ADD SWAP1 POP SWAP3 SWAP2 POP POP JUMP JUMPDEST PUSH1 0x0 PUSH2 0x55C DUP3 PUSH2 0x473 JUMP JUMPDEST PUSH2 0x566 DUP2 DUP6 PUSH2 0x540 JUMP JUMPDEST SWAP4 POP PUSH2 0x576 DUP2 DUP6 PUSH1 0x20 DUP7 ADD PUSH2 0x48F JUMP JUMPDEST PUSH2 0x57F DUP2 PUSH2 0x28B JUMP JUMPDEST DUP5 ADD SWAP2 POP POP SWAP3 SWAP2 POP POP JUMP JUMPDEST PUSH1 0x0 PUSH2 0x596 DUP4 DUP4 PUSH2 0x551 JUMP JUMPDEST SWAP1 POP SWAP3 SWAP2 POP POP JUMP JUMPDEST PUSH1 0x0 PUSH1 0x20 DUP3 ADD SWAP1 POP SWAP2 SWAP1 POP JUMP JUMPDEST PUSH1 0x0 PUSH2 0x5B6 DUP3 PUSH2 0x514 JUMP JUMPDEST PUSH2 0x5C0 DUP2 DUP6 PUSH2 0x51F JUMP JUMPDEST SWAP4 POP DUP4 PUSH1 0x20 DUP3 MUL DUP6 ADD PUSH2 0x5D2 DUP6 PUSH2 0x530 JUMP JUMPDEST DUP1 PUSH1 0x0 JUMPDEST DUP6 DUP2 LT ISZERO PUSH2 0x60E JUMPI DUP5 DUP5 SUB DUP10 MSTORE DUP2 MLOAD PUSH2 0x5EF DUP6 DUP3 PUSH2 0x58A JUMP JUMPDEST SWAP5 POP PUSH2 0x5FA DUP4 PUSH2 0x59E JUMP JUMPDEST SWAP3 POP PUSH1 0x20 DUP11 ADD SWAP10 POP POP PUSH1 0x1 DUP2 ADD SWAP1 POP PUSH2 0x5D6 JUMP JUMPDEST POP DUP3 SWAP8 POP DUP8 SWAP6 POP POP POP POP POP POP SWAP3 SWAP2 POP POP JUMP JUMPDEST PUSH1 0x0 PUSH1 0x20 DUP3 ADD SWAP1 POP DUP2 DUP2 SUB PUSH1 0x0 DUP4 ADD MSTORE PUSH2 0x63A DUP2 DUP5 PUSH2 0x5AB JUMP JUMPDEST SWAP1 POP SWAP3 SWAP2 POP POP JUMP JUMPDEST PUSH32 0x4E487B7100000000000000000000000000000000000000000000000000000000 PUSH1 0x0 MSTORE PUSH1 0x22 PUSH1 0x4 MSTORE PUSH1 0x24 PUSH1 0x0 REVERT JUMPDEST PUSH1 0x0 PUSH1 0x2 DUP3 DIV SWAP1 POP PUSH1 0x1 DUP3 AND DUP1 PUSH2 0x689 JUMPI PUSH1 0x7F DUP3 AND SWAP2 POP JUMPDEST PUSH1 0x20 DUP3 LT DUP2 SUB PUSH2 0x69C JUMPI PUSH2 0x69B PUSH2 0x642 JUMP JUMPDEST JUMPDEST POP SWAP2 SWAP1 POP JUMP JUMPDEST PUSH1 0x0 DUP2 SWAP1 POP DUP2 PUSH1 0x0 MSTORE PUSH1 0x20 PUSH1 0x0 KECCAK256 SWAP1 POP SWAP2 SWAP1 POP JUMP JUMPDEST PUSH1 0x0 PUSH1 0x20 PUSH1 0x1F DUP4 ADD DIV SWAP1 POP SWAP2 SWAP1 POP JUMP JUMPDEST PUSH1 0x0 DUP3 DUP3 SHL SWAP1 POP SWAP3 SWAP2 POP POP JUMP JUMPDEST PUSH1 0x0 PUSH1 0x8 DUP4 MUL PUSH2 0x704 PUSH32 0xFFFFFFFFFFFFFFFFFFFFFFFFFFFFFFFFFFFFFFFFFFFFFFFFFFFFFFFFFFFFFFFF DUP3 PUSH2 0x6C7 JUMP JUMPDEST PUSH2 0x70E DUP7 DUP4 PUSH2 0x6C7 JUMP JUMPDEST SWAP6 POP DUP1 NOT DUP5 AND SWAP4 POP DUP1 DUP7 AND DUP5 OR SWAP3 POP POP POP SWAP4 SWAP3 POP POP POP JUMP JUMPDEST PUSH1 0x0 DUP2 SWAP1 POP SWAP2 SWAP1 POP JUMP JUMPDEST PUSH1 0x0 PUSH2 0x74B PUSH2 0x746 PUSH2 0x741 DUP5 PUSH2 0x410 JUMP JUMPDEST PUSH2 0x726 JUMP JUMPDEST PUSH2 0x410 JUMP JUMPDEST SWAP1 POP SWAP2 SWAP1 POP JUMP JUMPDEST PUSH1 0x0 DUP2 SWAP1 POP SWAP2 SWAP1 POP JUMP JUMPDEST PUSH2 0x765 DUP4 PUSH2 0x730 JUMP JUMPDEST PUSH2 0x779 PUSH2 0x771 DUP3 PUSH2 0x752 JUMP JUMPDEST DUP5 DUP5 SLOAD PUSH2 0x6D4 JUMP JUMPDEST DUP3 SSTORE POP POP POP POP JUMP JUMPDEST PUSH1 0x0 SWAP1 JUMP JUMPDEST PUSH2 0x78E PUSH2 0x781 JUMP JUMPDEST PUSH2 0x799 DUP2 DUP5 DUP5 PUSH2 0x75C JUMP JUMPDEST POP POP POP JUMP JUMPDEST JUMPDEST DUP2 DUP2 LT ISZERO PUSH2 0x7BD JUMPI PUSH2 0x7B2 PUSH1 0x0 DUP3 PUSH2 0x786 JUMP JUMPDEST PUSH1 0x1 DUP2 ADD SWAP1 POP PUSH2 0x79F JUMP JUMPDEST POP POP JUMP JUMPDEST PUSH1 0x1F DUP3 GT ISZERO PUSH2 0x802 JUMPI PUSH2 0x7D3 DUP2 PUSH2 0x6A2 JUMP JUMPDEST PUSH2 0x7DC DUP5 PUSH2 0x6B7 JUMP JUMPDEST DUP2 ADD PUSH1 0x20 DUP6 LT ISZERO PUSH2 0x7EB JUMPI DUP2 SWAP1 POP JUMPDEST PUSH2 0x7FF PUSH2 0x7F7 DUP6 PUSH2 0x6B7 JUMP JUMPDEST DUP4 ADD DUP3 PUSH2 0x79E JUMP JUMPDEST POP POP JUMPDEST POP POP POP JUMP JUMPDEST PUSH1 0x0 DUP3 DUP3 SHR SWAP1 POP SWAP3 SWAP2 POP POP JUMP JUMPDEST PUSH1 0x0 PUSH2 0x825 PUSH1 0x0 NOT DUP5 PUSH1 0x8 MUL PUSH2 0x807 JUMP JUMPDEST NOT DUP1 DUP4 AND SWAP2 POP POP SWAP3 SWAP2 POP POP JUMP JUMPDEST PUSH1 0x0 PUSH2 0x83E DUP4 DUP4 PUSH2 0x814 JUMP JUMPDEST SWAP2 POP DUP3 PUSH1 0x2 MUL DUP3 OR SWAP1 POP SWAP3 SWAP2 POP POP JUMP JUMPDEST PUSH2 0x857 DUP3 PUSH2 0x473 JUMP JUMPDEST PUSH8 0xFFFFFFFFFFFFFFFF DUP2 GT ISZERO PUSH2 0x870 JUMPI PUSH2 0x86F PUSH2 0x29C JUMP JUMPDEST JUMPDEST PUSH2 0x87A DUP3 SLOAD PUSH2 0x671 JUMP JUMPDEST PUSH2 0x885 DUP3 DUP3 DUP6 PUSH2 0x7C1 JUMP JUMPDEST PUSH1 0x0 PUSH1 0x20 SWAP1 POP PUSH1 0x1F DUP4 GT PUSH1 0x1 DUP2 EQ PUSH2 0x8B8 JUMPI PUSH1 0x0 DUP5 ISZERO PUSH2 0x8A6 JUMPI DUP3 DUP8 ADD MLOAD SWAP1 POP JUMPDEST PUSH2 0x8B0 DUP6 DUP3 PUSH2 0x832 JUMP JUMPDEST DUP7 SSTORE POP PUSH2 0x918 JUMP JUMPDEST PUSH1 0x1F NOT DUP5 AND PUSH2 0x8C6 DUP7 PUSH2 0x6A2 JUMP JUMPDEST PUSH1 0x0 JUMPDEST DUP3 DUP2 LT ISZERO PUSH2 0x8EE JUMPI DUP5 DUP10 ADD MLOAD DUP3 SSTORE PUSH1 0x1 DUP3 ADD SWAP2 POP PUSH1 0x20 DUP6 ADD SWAP5 POP PUSH1 0x20 DUP2 ADD SWAP1 POP PUSH2 0x8C9 JUMP JUMPDEST DUP7 DUP4 LT ISZERO PUSH2 0x90B JUMPI DUP5 DUP10 ADD MLOAD PUSH2 0x907 PUSH1 0x1F DUP10 AND DUP3 PUSH2 0x814 JUMP JUMPDEST DUP4 SSTORE POP JUMPDEST PUSH1 0x1 PUSH1 0x2 DUP9 MUL ADD DUP9 SSTORE POP POP POP JUMPDEST POP POP POP POP POP POP JUMP INVALID LOG2 PUSH5 0x6970667358 0x22 SLT KECCAK256 0xE6 0xE6 SLT 0xE1 0xBB 0xE3 0xE1 SLOAD 0xAF PUSH9 0x33F46006B71094CBAE ADD BALANCE EXTCODESIZE 0x4B CALLDATALOAD 0xCF 0xCA PUSH31 0x24501D2E3464736F6C634300081C0033000000000000000000000000000000 "},"methodIdentifiers":{"addName(string)":"11456b47","getNames()":"cd838f0f","names(uint256)":"4622ab03"}}}}}