{
  "contracts/Dxpense.sol": {
    "Dxpense": {
      "abi": [
        {
          "inputs": [],
          "stateMutability": "nonpayable",
          "type": "constructor"
        },
        {
          "anonymous": false,
          "inputs": [
            {
              "indexed": true,
              "internalType": "uint256",
              "name": "tripId",
              "type": "uint256"
            },
            {
              "indexed": true,
              "internalType": "uint256",
              "name": "debtId",
              "type": "uint256"
            },
            {
              "indexed": false,
              "internalType": "address",
              "name": "debtor",
              "type": "address"
            },
            {
              "indexed": false,
              "internalType": "address",
              "name": "creditor",
              "type": "address"
            },
            {
              "indexed": false,
              "internalType": "uint256",
              "name": "amount",
              "type": "uint256"
            }
          ],
          "name": "DebtSettled",
          "type": "event"
        },
        {
          "anonymous": false,
          "inputs": [
            {
              "indexed": true,
              "internalType": "uint256",
              "name": "tripId",
              "type": "uint256"
            },
            {
              "indexed": true,
              "internalType": "uint256",
              "name": "expenseId",
              "type": "uint256"
            },
            {
              "indexed": true,
              "internalType": "address",
              "name": "expender",
              "type": "address"
            },
            {
              "indexed": false,
              "internalType": "uint256",
              "name": "amount",
              "type": "uint256"
            },
            {
              "indexed": false,
              "internalType": "string",
              "name": "name",
              "type": "string"
            }
          ],
          "name": "ExpenseAdded",
          "type": "event"
        },
        {
          "anonymous": false,
          "inputs": [
            {
              "indexed": true,
              "internalType": "uint256",
              "name": "tripId",
              "type": "uint256"
            },
            {
              "indexed": true,
              "internalType": "address",
              "name": "person",
              "type": "address"
            },
            {
              "indexed": false,
              "internalType": "string",
              "name": "name",
              "type": "string"
            }
          ],
          "name": "PersonAdded",
          "type": "event"
        },
        {
          "anonymous": false,
          "inputs": [
            {
              "indexed": true,
              "internalType": "uint256",
              "name": "tripId",
              "type": "uint256"
            },
            {
              "indexed": true,
              "internalType": "address",
              "name": "owner",
              "type": "address"
            },
            {
              "indexed": false,
              "internalType": "string",
              "name": "tripName",
              "type": "string"
            }
          ],
          "name": "TripCreated",
          "type": "event"
        },
        {
          "inputs": [
            {
              "internalType": "uint256",
              "name": "trip_id",
              "type": "uint256"
            },
            {
              "internalType": "uint256",
              "name": "e_amount",
              "type": "uint256"
            },
            {
              "internalType": "string",
              "name": "e_name",
              "type": "string"
            },
            {
              "internalType": "address",
              "name": "exp_addr",
              "type": "address"
            },
            {
              "internalType": "address[]",
              "name": "e_involved",
              "type": "address[]"
            }
          ],
          "name": "AddExpense",
          "outputs": [],
          "stateMutability": "nonpayable",
          "type": "function"
        },
        {
          "inputs": [
            {
              "internalType": "uint256",
              "name": "trip_id",
              "type": "uint256"
            },
            {
              "internalType": "address",
              "name": "p_address",
              "type": "address"
            },
            {
              "internalType": "string",
              "name": "p_name",
              "type": "string"
            }
          ],
          "name": "AddPerson",
          "outputs": [],
          "stateMutability": "nonpayable",
          "type": "function"
        },
        {
          "inputs": [
            {
              "internalType": "string",
              "name": "trip_name",
              "type": "string"
            },
            {
              "internalType": "string",
              "name": "owner_name",
              "type": "string"
            }
          ],
          "name": "AddTrip",
          "outputs": [],
          "stateMutability": "nonpayable",
          "type": "function"
        },
        {
          "inputs": [
            {
              "internalType": "string",
              "name": "name",
              "type": "string"
            }
          ],
          "name": "addName",
          "outputs": [],
          "stateMutability": "nonpayable",
          "type": "function"
        },
        {
          "inputs": [
            {
              "internalType": "uint256",
              "name": "trip_id",
              "type": "uint256"
            }
          ],
          "name": "calculateDebts",
          "outputs": [],
          "stateMutability": "nonpayable",
          "type": "function"
        },
        {
          "inputs": [],
          "name": "debt_id_count",
          "outputs": [
            {
              "internalType": "uint256",
              "name": "",
              "type": "uint256"
            }
          ],
          "stateMutability": "view",
          "type": "function"
        },
        {
          "inputs": [
            {
              "internalType": "uint256",
              "name": "",
              "type": "uint256"
            }
          ],
          "name": "debts",
          "outputs": [
            {
              "internalType": "uint256",
              "name": "debt_id",
              "type": "uint256"
            },
            {
              "internalType": "address",
              "name": "debtor",
              "type": "address"
            },
            {
              "internalType": "address",
              "name": "creditor",
              "type": "address"
            },
            {
              "internalType": "uint256",
              "name": "amount",
              "type": "uint256"
            }
          ],
          "stateMutability": "view",
          "type": "function"
        },
        {
          "inputs": [],
          "name": "expense_id_count",
          "outputs": [
            {
              "internalType": "uint256",
              "name": "",
              "type": "uint256"
            }
          ],
          "stateMutability": "view",
          "type": "function"
        },
        {
          "inputs": [
            {
              "internalType": "uint256",
              "name": "",
              "type": "uint256"
            }
          ],
          "name": "expenses",
          "outputs": [
            {
              "internalType": "uint256",
              "name": "expense_id",
              "type": "uint256"
            },
            {
              "internalType": "uint256",
              "name": "amount",
              "type": "uint256"
            },
            {
              "internalType": "uint256",
              "name": "trip_id",
              "type": "uint256"
            },
            {
              "internalType": "string",
              "name": "name",
              "type": "string"
            },
            {
              "internalType": "address",
              "name": "expender",
              "type": "address"
            }
          ],
          "stateMutability": "view",
          "type": "function"
        },
        {
          "inputs": [
            {
              "internalType": "uint256",
              "name": "debt_id",
              "type": "uint256"
            }
          ],
          "name": "getDebt",
          "outputs": [
            {
              "internalType": "uint256",
              "name": "",
              "type": "uint256"
            },
            {
              "internalType": "address",
              "name": "",
              "type": "address"
            },
            {
              "internalType": "address",
              "name": "",
              "type": "address"
            },
            {
              "internalType": "uint256",
              "name": "",
              "type": "uint256"
            }
          ],
          "stateMutability": "view",
          "type": "function"
        },
        {
          "inputs": [
            {
              "internalType": "uint256",
              "name": "expense_id",
              "type": "uint256"
            }
          ],
          "name": "getExpense",
          "outputs": [
            {
              "internalType": "uint256",
              "name": "",
              "type": "uint256"
            },
            {
              "internalType": "uint256",
              "name": "",
              "type": "uint256"
            },
            {
              "internalType": "string",
              "name": "",
              "type": "string"
            },
            {
              "internalType": "address",
              "name": "",
              "type": "address"
            },
            {
              "internalType": "address[]",
              "name": "",
              "type": "address[]"
            }
          ],
          "stateMutability": "view",
          "type": "function"
        },
        {
          "inputs": [],
          "name": "getNames",
          "outputs": [
            {
              "internalType": "string[]",
              "name": "",
              "type": "string[]"
            }
          ],
          "stateMutability": "view",
          "type": "function"
        },
        {
          "inputs": [
            {
              "internalType": "address",
              "name": "addr",
              "type": "address"
            }
          ],
          "name": "getPerson",
          "outputs": [
            {
              "internalType": "address",
              "name": "",
              "type": "address"
            },
            {
              "internalType": "string",
              "name": "",
              "type": "string"
            }
          ],
          "stateMutability": "view",
          "type": "function"
        },
        {
          "inputs": [
            {
              "internalType": "uint256",
              "name": "trip_id",
              "type": "uint256"
            }
          ],
          "name": "getTrip",
          "outputs": [
            {
              "internalType": "uint256",
              "name": "",
              "type": "uint256"
            },
            {
              "internalType": "string",
              "name": "",
              "type": "string"
            },
            {
              "internalType": "address[]",
              "name": "",
              "type": "address[]"
            },
            {
              "internalType": "uint256[]",
              "name": "",
              "type": "uint256[]"
            },
            {
              "internalType": "uint256[]",
              "name": "",
              "type": "uint256[]"
            }
          ],
          "stateMutability": "view",
          "type": "function"
        },
        {
          "inputs": [],
          "name": "getUserTripIds",
          "outputs": [
            {
              "internalType": "uint256[]",
              "name": "",
              "type": "uint256[]"
            }
          ],
          "stateMutability": "view",
          "type": "function"
        },
        {
          "inputs": [
            {
              "internalType": "uint256",
              "name": "",
              "type": "uint256"
            }
          ],
          "name": "names",
          "outputs": [
            {
              "internalType": "string",
              "name": "",
              "type": "string"
            }
          ],
          "stateMutability": "view",
          "type": "function"
        },
        {
          "inputs": [],
          "name": "owner",
          "outputs": [
            {
              "internalType": "address",
              "name": "",
              "type": "address"
            }
          ],
          "stateMutability": "view",
          "type": "function"
        },
        {
          "inputs": [
            {
              "internalType": "address",
              "name": "",
              "type": "address"
            }
          ],
          "name": "people",
          "outputs": [
            {
              "internalType": "address",
              "name": "person_id",
              "type": "address"
            },
            {
              "internalType": "string",
              "name": "name",
              "type": "string"
            }
          ],
          "stateMutability": "view",
          "type": "function"
        },
        {
          "inputs": [],
          "name": "random_number",
          "outputs": [
            {
              "internalType": "int16",
              "name": "",
              "type": "int16"
            }
          ],
          "stateMutability": "view",
          "type": "function"
        },
        {
          "inputs": [
            {
              "internalType": "uint256",
              "name": "trip_id",
              "type": "uint256"
            },
            {
              "internalType": "uint256",
              "name": "debt_id",
              "type": "uint256"
            }
          ],
          "name": "settleDebt",
          "outputs": [],
          "stateMutability": "nonpayable",
          "type": "function"
        },
        {
          "inputs": [],
          "name": "trip_id_count",
          "outputs": [
            {
              "internalType": "uint256",
              "name": "",
              "type": "uint256"
            }
          ],
          "stateMutability": "view",
          "type": "function"
        },
        {
          "inputs": [
            {
              "internalType": "uint256",
              "name": "",
              "type": "uint256"
            }
          ],
          "name": "trips",
          "outputs": [
            {
              "internalType": "uint256",
              "name": "trip_id",
              "type": "uint256"
            },
            {
              "internalType": "string",
              "name": "name",
              "type": "string"
            }
          ],
          "stateMutability": "view",
          "type": "function"
        }
      ],
      "evm": {
        "bytecode": {
          "linkReferences": {},
          "object": "608034620002a6576001600160401b03606082018181118382101762000290576040526200002c620002ab565b91600580845260209364416c69636560d81b8582015282526200004e620002ab565b92600393848152622137b160e91b86820152858401526200006e620002ab565b6007815266436861726c696560c81b868201526040840152600092835485855580861062000217575b50908380528584209084925b868410620000eb5760018054600288905587895560048890556001600160b01b0319163360101b62010000600160b01b03161760191790556040516121bf9081620003228239f35b8051805190838211620002035790899291620001088654620002cb565b90601f91828111620001ca575b50849183116001146200015f57918060019593928695938c9262000153575b5050600019828d1b1c191690841b1786555b01930193019291620000a3565b01519050388062000134565b868a52848a209190601f1984168b5b818110620001b257509160019694929183889795931062000199575b505050831b8301865562000146565b0151600019838e1b60f8161c191690553880806200018a565b9293876001819287860151815501950193016200016e565b620001f290888c52868c20848087018d1c820192898810620001f9575b018c1c019062000308565b3862000115565b92508192620001e7565b634e487b7160e01b88526041600452602488fd5b8480528587862091820191015b81811062000233575062000097565b80866200024360019354620002cb565b8062000253575b50500162000224565b601f80821185146200026c57505081555b86386200024a565b62000286908484528c84209201891c820185830162000308565b8183555562000264565b634e487b7160e01b600052604160045260246000fd5b600080fd5b60408051919082016001600160401b038111838210176200029057604052565b90600182811c92168015620002fd575b6020831014620002e757565b634e487b7160e01b600052602260045260246000fd5b91607f1691620002db565b81811062000314575050565b600081556001016200030856fe6080604052600436101561001257600080fd5b60003560e01c806301011705146115e457806307de97351461111f57806311456b47146115745780632fd812db146115585780634622ab03146114f7578063527fb1371461116f578063552d2d5c1461111f578063561691821461110157806360a59bdb146110e0578063735e5db61461101157806385af9b3f14610fae5780638da5cb5b14610f8157806391511c2214610a5c578063af4afe0a146109e2578063b491e097146109c4578063b8dd803c14610730578063c9dd1f3c146106c0578063cd838f0f146105da578063d75d62e5146105bc578063f19f185e1461042d578063f48bdc8d146101635763f6824a7c1461010e57600080fd5b3461015e57602036600319011261015e576004356000526005602052604060002061013d6001825492016118af565b9061015a604051928392835260406020840152604083019061173c565b0390f35b600080fd5b3461015e57604036600319011261015e57600435602435906101886002548210611be1565b806000526020600581526040600020906101a56004548510611d13565b83600052600781526101bd8460406000205414611d13565b8360005260078152604060002090600392838301549283156103d957600281019460018060a01b0392838754169233840361039457604051936101ff8561183d565b600f85526e1119589d0814d95d1d1b195b595b9d608a1b878601526005878b6102a56001809601988a8a541692604051966102398861183d565b8888528536818a013761024b88611b81565b528d60068b54966040519761025f89611858565b80895281890193845260408901948552606089019586526080890197885260a089019a8b5260005252604060002095518655518886015551600285015551888401611a66565b88600483019151166001600160601b0360a01b825416179055019051908151916001600160401b03831161037e57600160401b831161037e5788906102ef84845481865585611b8e565b01906000528760002060005b83811061036b575050505050927f85cc67d4d25be808125d692348568ac793720741b494a22e75d789813404799f9694928261033f60609896828596549101611c23565b6103498154611bd2565b905561035489611d55565b5416935416906040519384528301526040820152a3005b82518916828201559189019184016102fb565b634e487b7160e01b600052604160045260246000fd5b60405162461bcd60e51b815260048101879052601d60248201527f4f6e6c79206372656469746f722063616e20736574746c6520646562740000006044820152606490fd5b60405162461bcd60e51b815260048101849052602660248201527f4465627420616c726561647920736574746c6564206f7220646f6573206e6f7460448201526508195e1a5cdd60d21b6064820152608490fd5b3461015e57600036600319011261015e576000806002908154905b818110610546575061045983611b6a565b92610467604051948561188e565b808452610476601f1991611b6a565b019160209236848601376000805b83811061049e576040518581528061015a818801896117b9565b60008181526005808752604082208581018054935b8481106104ce575b50505050506104c990611bd2565b610484565b6104d88183611a0a565b905460039190911b1c6001600160a01b031633146104fe576104f990611bd2565b6104b3565b505090915092919254918751811015610530576104c9928782610525941b8a010152611bd2565b9190878080806104bb565b634e487b7160e01b600052603260045260246000fd5b600081815260056020526040812084018054915b828110610573575b50505061056e90611bd2565b610448565b61057d8183611a0a565b905460039190911b1c6001600160a01b031633146105a35761059e90611bd2565b61055a565b505050926105b361056e91611bd2565b93908580610562565b3461015e57600036600319011261015e576020600354604051908152f35b3461015e57600036600319011261015e576000546105f781611b6a565b90610605604051928361188e565b8082526000808052602091828401917f290decd9548b62a8d60345a988386fc84ba6bc95484008f6362f93160ef3e563835b83831061069e5750505050604051918083019381845251809452604083019360408160051b85010192916000955b8287106106725785850386f35b90919293828061068e600193603f198a8203018652885161173c565b9601920196019592919092610665565b60018681926106af859a999a6118af565b815201920192019190959495610637565b3461015e57602036600319011261015e576004356106e16004548210611d13565b60009081526007602090815260409182902080546001820154600283015460039093015485519283526001600160a01b0391821694830194909452909116928101929092526060820152608090f35b3461015e57606036600319011261015e576001600160a01b0360248035828116926004359184900361015e57604480356001600160401b03811161015e5761077c903690600401611a22565b9261078a6002548610611be1565b84600052602092600584526040600020966000976002600091018054915b82811061098b575b50505090919293949596156109385787600052600885526107d8600160406000200154611803565b156108e4575b86600052600585526002604060002001906000928254935b848110610881575050600160401b83101561086d575091610844826108689460017f79e01c282f426e8b4aae0d87849e6766f42c502766fe61b22ac3c037219f79ee99989795018155611a0a565b819291549060031b918a831b921b1916179055604051938385948552840191611bb1565b0390a3005b634e487b7160e01b60009081526041600452fd5b8a8661088d8387611a0a565b90549060031b1c16146108a8576108a390611bd2565b6107f6565b60405162461bcd60e51b815260048101899052601681850152750506572736f6e20616c726561647920696e20747269760541b81840152606490fd5b6109336040516108f38161183d565b8981526001610903368a8961197a565b8883019081528b600052600889528660406000209351166001600160601b0360a01b845416178355519101611a66565b6107de565b7f4f6e6c792074726970207061727469636970616e74732063616e206164642061608492602887936040519462461bcd60e51b8652600486015284015282015267103832b939b7b71760c11b6064820152fd5b856109968284611a0a565b919054339260031b1c16146109b3576109ae90611bd2565b6107a8565b50600199508b9150819050806107b0565b3461015e57600036600319011261015e576020600454604051908152f35b3461015e57602036600319011261015e57600435600052600660205260406000208054600182015491610a52600282015491610a20600382016118af565b90600460018060a01b03910154169260405195869586526020860152604085015260a0606085015260a084019061173c565b9060808301520390f35b3461015e5760a036600319011261015e576044356001600160401b03811161015e57610a8c903690600401611a22565b90606435906001600160a01b038216820361015e576001600160401b036084351161015e5736602360843501121561015e576001600160401b03608435600401351161015e573660246084356004013560051b60843501011161015e57610af860025460043510611be1565b6084356004013515610f32576001600160a01b0382163303610ee35760009160005b600435600052600560205260026040600020018054821015610eda5781610b4091611a0a565b905460039190911b1c6001600160a01b0390811690831614610b6a57610b6590611bd2565b610b1a565b5090915060015b15610e9e576000925b60843560040135841015610c775760009260005b600435600052600560205260026040600020018054821015610c6c5781610bb491611a0a565b9054906084356004013588101561053057608435600589901b01602401356001600160a01b038116810361015e5760039190911b9190911c6001600160a01b03908116911614610c0c57610c0790611bd2565b610b8e565b5092509260015b15610c2757610c2190611bd2565b92610b7a565b60405162461bcd60e51b815260206004820152601760248201527f5061727469636970616e74206e6f7420696e20747269700000000000000000006044820152606490fd5b505092939093610c13565b60035460405190610c8782611858565b80825260243560208301526004356040830152610ca536848761197a565b60608301526001600160a01b0384166080830152610cc860046084350135611b6a565b90610cd6604051928361188e565b60843560048101358352602401602083015b60246084356004013560051b60843501018210610e7c57505060a083019182526000526006602052604060002091805183556020810151600184015560408101516002840155610d3f606082015160038501611a66565b608001516004830180546001600160a01b0319166001600160a01b0392909216919091179055518051916001600160401b03831161037e57600160401b831161037e5760056020910191610d9884845481865585611b8e565b0190600052602060002060005b838110610e5f57505050506004356000526005602052610dcf600360406000200160035490611c23565b610dda600354611bd2565b91826003556000198301928311610e4957610e397f5472d6af683775ac6a9c6c52ec7a2defbf1857ce99c4d5177f49f8a9f81503609160405191829160243583526040602084015260018060a01b031696600435956040840191611bb1565b0390a4610e47600435611d55565b005b634e487b7160e01b600052601160045260246000fd5b82516001600160a01b031681830155602090920191600101610da5565b81356001600160a01b038116900361015e578135815260209182019101610ce8565b60405162461bcd60e51b81526020600482015260146024820152730457870656e646572206e6f7420696e20747269760641b6044820152606490fd5b50509091610b71565b60405162461bcd60e51b815260206004820152602160248201527f4f6e6c792074686520657870656e6465722063616e2061646420657870656e736044820152606560f81b6064820152608490fd5b60405162461bcd60e51b815260206004820152602160248201527f4174206c65617374206f6e65207061727469636970616e7420726571756972656044820152601960fa1b6064820152608490fd5b3461015e57600036600319011261015e5760015460405160109190911c6001600160a01b03168152602090f35b3461015e57602036600319011261015e5760043560009081526007602090815260409182902080546001820154600283015460039093015485519283526001600160a01b0391821694830194909452909116928101929092526060820152608090f35b3461015e57602036600319011261015e576004356003548110156110a25760005260066020526040600020805461015a60018301549260018060a01b036004820154169061108f6110706005611069600385016118af565b9301611c6c565b916040519687968752602087015260a0604087015260a086019061173c565b916060850152838203608085015261177c565b60405162461bcd60e51b8152602060048201526016602482015275115e1c195b9cd948191bd95cc81b9bdd08195e1a5cdd60521b6044820152606490fd5b3461015e57600036600319011261015e57602060015460010b604051908152f35b3461015e57600036600319011261015e576020600254604051908152f35b3461015e57602036600319011261015e576001600160a01b03806111416117ed565b16600052600860205261115f600160406000209283541692016118af565b9061015a60405192839283611955565b3461015e57604036600319011261015e576001600160401b0360043581811161015e576111a0903690600401611a22565b602490813584811161015e576111ba903690600401611a22565b94909282156114be578515611484573360005260209360088552600196876111e88160406000200154611803565b15611425575b5050506040516111fd8161183d565b8681528436818301373361121082611b81565b52600254916040519261122284611873565b600084526040519361123385611873565b600085526040519160a08301838110888211176113e0576040528083526112949061125f368a8d61197a565b908a850191825260408501968752606085019384526080850197885260005260058a52604060002093518455518b8401611a66565b600282019351938451908782116113e057600160401b95868311611410578a906112c384845481865585611b8e565b0190600052896000208c60005b8481106113f5575050505050600382019051908151918783116113e0578583116113e057899061130584845481865585611b8e565b0190600052886000208b60005b8481106113ce57505050505060040192519182519485116113b957841161086d5750849061134584845481865585611b8e565b01906000528360002060005b8381106113a8576113a38787877f9e8874161504a858aca0675f8a3af6faa4e6bb1a07b9af0073503e8559df7fde60025493849261139b6040519283928784523397840191611bb1565b0390a3611bd2565b600255005b825182820155918501918701611351565b50634e487b7160e01b60009081526041600452fd5b8b845194019381840155018c90611312565b84634e487b7160e01b60005260416004526000fd5b83516001600160a01b031683820155928c01928e91016112d0565b85634e487b7160e01b60005260416004526000fd5b61144361147c93604051936114398561183d565b338552369161197a565b8288019081523360009081526008895260409020925183546001600160a01b0319166001600160a01b0391909116178355519101611a66565b8680876111ee565b60649060136040519162461bcd60e51b8352602060048401528201527213dddb995c881b985b59481c995c5d5a5c9959606a1b6044820152fd5b60649060126040519162461bcd60e51b83526020600484015282015271151c9a5c081b985b59481c995c5d5a5c995960721b6044820152fd5b3461015e57602036600319011261015e5760043560005481101561015e5761151e906119c0565b6115425761152e61015a916118af565b60405191829160208352602083019061173c565b634e487b7160e01b600052600060045260246000fd5b3461015e57602036600319011261015e57610e47600435611d55565b3461015e57602036600319011261015e576004356001600160401b03811161015e573660238201121561015e576115b590369060248160040135910161197a565b600054600160401b81101561037e578060016115d492016000556119c0565b91909161154257610e4791611a66565b3461015e57602036600319011261015e576004356116056002548210611be1565b6000526005602052604060002060009060009160028201928354905b818110611700575b5050156116b15761015a8154916116a361164e611648600184016118af565b95611c6c565b9161169561166a600461166360038501611cc4565b9301611cc4565b93611687604051988998895260a060208a015260a089019061173c565b90878203604089015261177c565b9085820360608701526117b9565b9083820360808501526117b9565b60405162461bcd60e51b815260206004820152602160248201527f596f7520617265206e6f7420696e766f6c76656420696e2074686973207472696044820152600760fc1b6064820152608490fd5b61170a8186611a0a565b905460039190911b1c6001600160a01b031633146117305761172b90611bd2565b611621565b50505060018380611629565b919082519283825260005b848110611768575050826000602080949584010152601f8019910116010190565b602081830181015184830182015201611747565b90815180825260208080930193019160005b82811061179c575050505090565b83516001600160a01b03168552938101939281019260010161178e565b90815180825260208080930193019160005b8281106117d9575050505090565b8351855293810193928101926001016117cb565b600435906001600160a01b038216820361015e57565b90600182811c92168015611833575b602083101461181d57565b634e487b7160e01b600052602260045260246000fd5b91607f1691611812565b604081019081106001600160401b0382111761037e57604052565b60c081019081106001600160401b0382111761037e57604052565b602081019081106001600160401b0382111761037e57604052565b90601f801991011681019081106001600160401b0382111761037e57604052565b90604051918260008254926118c384611803565b90818452600194858116908160001461193257506001146118ef575b50506118ed9250038361188e565b565b9093915060005260209081600020936000915b81831061191a5750506118ed935082010138806118df565b85548884018501529485019487945091830191611902565b9150506118ed94506020925060ff191682840152151560051b82010138806118df565b6001600160a01b0390911681526040602082018190526119779291019061173c565b90565b9291926001600160401b03821161037e57604051916119a3601f8201601f19166020018461188e565b82948184528183011161015e578281602093846000960137010152565b9060009182548110156119f6578280527f290decd9548b62a8d60345a988386fc84ba6bc95484008f6362f93160ef3e563019190565b634e487b7160e01b83526032600452602483fd5b80548210156105305760005260206000200190600090565b9181601f8401121561015e578235916001600160401b03831161015e576020838186019501011161015e57565b818110611a5a575050565b60008155600101611a4f565b91909182516001600160401b03811161037e57611a838254611803565b601f8111611b2d575b50602080601f8311600114611ac9575081929394600092611abe575b50508160011b916000199060031b1c1916179055565b015190503880611aa8565b90601f198316958460005282600020926000905b888210611b1557505083600195969710611afc575b505050811b019055565b015160001960f88460031b161c19169055388080611af2565b80600185968294968601518155019501930190611add565b611b5a90836000526020600020601f840160051c81019160208510611b60575b601f0160051c0190611a4f565b38611a8c565b9091508190611b4d565b6001600160401b03811161037e5760051b60200190565b8051156105305760200190565b91818110611b9b57505050565b6118ed9260005260206000209182019101611a4f565b908060209392818452848401376000828201840152601f01601f1916010190565b6000198114610e495760010190565b15611be857565b60405162461bcd60e51b8152602060048201526013602482015272151c9a5c08191bd95cc81b9bdd08195e1a5cdd606a1b6044820152606490fd5b90815491600160401b83101561037e5782611c469160016118ed95018155611a0a565b90919082549060031b91821b91600019901b1916179055565b91908203918211610e4957565b9060405191828154918282526020928383019160005283600020936000905b828210611ca1575050506118ed9250038361188e565b85546001600160a01b031684526001958601958895509381019390910190611c8b565b9060405191828154918282526020928383019160005283600020936000905b828210611cf9575050506118ed9250038361188e565b855484526001958601958895509381019390910190611ce3565b15611d1a57565b60405162461bcd60e51b81526020600482015260136024820152721119589d08191bd95cc81b9bdd08195e1a5cdd606a1b6044820152606490fd5b611d626002548210611be1565b600052600560205260406000206000604051611d7d81611873565b526004810154600060048301558061216a575b50600481016000526000915b600382015483101561216557611db58360038401611a0a565b90549060031b1c600052600660205260406000209060005b6005830154908181101561215257611de88160058601611a0a565b9054600486015460039290921b1c6001600160a01b0390811691168114612147576001850154928015612131576000805b600489015482101561212a57611e328260048b01611a0a565b90549060031b1c60005260076020526040600020916001830160018060a01b038154168681148061210c575b15611f5d5750505050600381015482860481018111610e49576003908387040191015560015b611f51576004549360018060a01b03600488015416604051938460808101106001600160401b0360808701111761037e57611f4c9660039460808701604052818752602087019283526040870193845260608701940484526000526007602052604060002094518555600185019060018060a01b03905116906001600160601b0360a01b9182825416179055600285019160018060a01b039051169082541617905551910155611f3960045460048701611c23565b611f44600454611bd2565b600455611bd2565b611dcd565b5050611f4c9150611bd2565b60048b0154939492936001600160a01b031614806120f6575b611f8b575050611f8590611bd2565b90611e19565b909250600383019283549285890493848111600014611fbc5750505050611fb3908254611c5f565b90556001611e84565b841115612000575081546001600160a01b0319908116871790925560048a0154600290910180549092166001600160a01b03919091161790558154611fb391611c5f565b9a9796999894959b935050505060019160005b6004870154808210156120e65761202d8260048a01611a0a565b90549060031b1c6120418c60048b01611a0a565b90549060031b1c1461205c575061205790611bd2565b612013565b8092989996979a5060009b9594939b19810111610e4957611c4661208a61209b936000190160048d01611a0a565b90549060031b1c9160048c01611a0a565b600488015480156120d057600019016120b78160048b01611a0a565b8154906000199060031b1b191690556004890155611e84565b634e487b7160e01b600052603160045260246000fd5b5050959693949750979190611e84565b5060028201546001600160a01b03168614611f76565b50600285015460048c01546001600160a01b03908116911614611e5e565b9050611e84565b634e487b7160e01b600052601260045260246000fd5b50611f4c9150611bd2565b50509261215f9150611bd2565b91611d9c565b915050565b6121839060048301600052602060002090810190611a4f565b38611d9056fea26469706673582212203b332468f4fa235a88e4c8940a5b35d414d2cf544df703d334a3299e8da64bf364736f6c63430008140033",
          "opcodes": "PUSH1 0x80 CALLVALUE PUSH3 0x2A6 JUMPI PUSH1 0x1 PUSH1 0x1 PUSH1 0x40 SHL SUB PUSH1 0x60 DUP3 ADD DUP2 DUP2 GT DUP4 DUP3 LT OR PUSH3 0x290 JUMPI PUSH1 0x40 MSTORE PUSH3 0x2C PUSH3 0x2AB JUMP JUMPDEST SWAP2 PUSH1 0x5 DUP1 DUP5 MSTORE PUSH1 0x20 SWAP4 PUSH5 0x416C696365 PUSH1 0xD8 SHL DUP6 DUP3 ADD MSTORE DUP3 MSTORE PUSH3 0x4E PUSH3 0x2AB JUMP JUMPDEST SWAP3 PUSH1 0x3 SWAP4 DUP5 DUP2 MSTORE PUSH3 0x2137B1 PUSH1 0xE9 SHL DUP7 DUP3 ADD MSTORE DUP6 DUP5 ADD MSTORE PUSH3 0x6E PUSH3 0x2AB JUMP JUMPDEST PUSH1 0x7 DUP2 MSTORE PUSH7 0x436861726C6965 PUSH1 0xC8 SHL DUP7 DUP3 ADD MSTORE PUSH1 0x40 DUP5 ADD MSTORE PUSH1 0x0 SWAP3 DUP4 SLOAD DUP6 DUP6 SSTORE DUP1 DUP7 LT PUSH3 0x217 JUMPI JUMPDEST POP SWAP1 DUP4 DUP1 MSTORE DUP6 DUP5 KECCAK256 SWAP1 DUP5 SWAP3 JUMPDEST DUP7 DUP5 LT PUSH3 0xEB JUMPI PUSH1 0x1 DUP1 SLOAD PUSH1 0x2 DUP9 SWAP1 SSTORE DUP8 DUP10 SSTORE PUSH1 0x4 DUP9 SWAP1 SSTORE PUSH1 0x1 PUSH1 0x1 PUSH1 0xB0 SHL SUB NOT AND CALLER PUSH1 0x10 SHL PUSH3 0x10000 PUSH1 0x1 PUSH1 0xB0 SHL SUB AND OR PUSH1 0x19 OR SWAP1 SSTORE PUSH1 0x40 MLOAD PUSH2 0x21BF SWAP1 DUP2 PUSH3 0x322 DUP3 CODECOPY RETURN JUMPDEST DUP1 MLOAD DUP1 MLOAD SWAP1 DUP4 DUP3 GT PUSH3 0x203 JUMPI SWAP1 DUP10 SWAP3 SWAP2 PUSH3 0x108 DUP7 SLOAD PUSH3 0x2CB JUMP JUMPDEST SWAP1 PUSH1 0x1F SWAP2 DUP3 DUP2 GT PUSH3 0x1CA JUMPI JUMPDEST POP DUP5 SWAP2 DUP4 GT PUSH1 0x1 EQ PUSH3 0x15F JUMPI SWAP2 DUP1 PUSH1 0x1 SWAP6 SWAP4 SWAP3 DUP7 SWAP6 SWAP4 DUP13 SWAP3 PUSH3 0x153 JUMPI JUMPDEST POP POP PUSH1 0x0 NOT DUP3 DUP14 SHL SHR NOT AND SWAP1 DUP5 SHL OR DUP7 SSTORE JUMPDEST ADD SWAP4 ADD SWAP4 ADD SWAP3 SWAP2 PUSH3 0xA3 JUMP JUMPDEST ADD MLOAD SWAP1 POP CODESIZE DUP1 PUSH3 0x134 JUMP JUMPDEST DUP7 DUP11 MSTORE DUP5 DUP11 KECCAK256 SWAP2 SWAP1 PUSH1 0x1F NOT DUP5 AND DUP12 JUMPDEST DUP2 DUP2 LT PUSH3 0x1B2 JUMPI POP SWAP2 PUSH1 0x1 SWAP7 SWAP5 SWAP3 SWAP2 DUP4 DUP9 SWAP8 SWAP6 SWAP4 LT PUSH3 0x199 JUMPI JUMPDEST POP POP POP DUP4 SHL DUP4 ADD DUP7 SSTORE PUSH3 0x146 JUMP JUMPDEST ADD MLOAD PUSH1 0x0 NOT DUP4 DUP15 SHL PUSH1 0xF8 AND SHR NOT AND SWAP1 SSTORE CODESIZE DUP1 DUP1 PUSH3 0x18A JUMP JUMPDEST SWAP3 SWAP4 DUP8 PUSH1 0x1 DUP2 SWAP3 DUP8 DUP7 ADD MLOAD DUP2 SSTORE ADD SWAP6 ADD SWAP4 ADD PUSH3 0x16E JUMP JUMPDEST PUSH3 0x1F2 SWAP1 DUP9 DUP13 MSTORE DUP7 DUP13 KECCAK256 DUP5 DUP1 DUP8 ADD DUP14 SHR DUP3 ADD SWAP3 DUP10 DUP9 LT PUSH3 0x1F9 JUMPI JUMPDEST ADD DUP13 SHR ADD SWAP1 PUSH3 0x308 JUMP JUMPDEST CODESIZE PUSH3 0x115 JUMP JUMPDEST SWAP3 POP DUP2 SWAP3 PUSH3 0x1E7 JUMP JUMPDEST PUSH4 0x4E487B71 PUSH1 0xE0 SHL DUP9 MSTORE PUSH1 0x41 PUSH1 0x4 MSTORE PUSH1 0x24 DUP9 REVERT JUMPDEST DUP5 DUP1 MSTORE DUP6 DUP8 DUP7 KECCAK256 SWAP2 DUP3 ADD SWAP2 ADD JUMPDEST DUP2 DUP2 LT PUSH3 0x233 JUMPI POP PUSH3 0x97 JUMP JUMPDEST DUP1 DUP7 PUSH3 0x243 PUSH1 0x1 SWAP4 SLOAD PUSH3 0x2CB JUMP JUMPDEST DUP1 PUSH3 0x253 JUMPI JUMPDEST POP POP ADD PUSH3 0x224 JUMP JUMPDEST PUSH1 0x1F DUP1 DUP3 GT DUP6 EQ PUSH3 0x26C JUMPI POP POP DUP2 SSTORE JUMPDEST DUP7 CODESIZE PUSH3 0x24A JUMP JUMPDEST PUSH3 0x286 SWAP1 DUP5 DUP5 MSTORE DUP13 DUP5 KECCAK256 SWAP3 ADD DUP10 SHR DUP3 ADD DUP6 DUP4 ADD PUSH3 0x308 JUMP JUMPDEST DUP2 DUP4 SSTORE SSTORE PUSH3 0x264 JUMP JUMPDEST PUSH4 0x4E487B71 PUSH1 0xE0 SHL PUSH1 0x0 MSTORE PUSH1 0x41 PUSH1 0x4 MSTORE PUSH1 0x24 PUSH1 0x0 REVERT JUMPDEST PUSH1 0x0 DUP1 REVERT JUMPDEST PUSH1 0x40 DUP1 MLOAD SWAP2 SWAP1 DUP3 ADD PUSH1 0x1 PUSH1 0x1 PUSH1 0x40 SHL SUB DUP2 GT DUP4 DUP3 LT OR PUSH3 0x290 JUMPI PUSH1 0x40 MSTORE JUMP JUMPDEST SWAP1 PUSH1 0x1 DUP3 DUP2 SHR SWAP3 AND DUP1 ISZERO PUSH3 0x2FD JUMPI JUMPDEST PUSH1 0x20 DUP4 LT EQ PUSH3 0x2E7 JUMPI JUMP JUMPDEST PUSH4 0x4E487B71 PUSH1 0xE0 SHL PUSH1 0x0 MSTORE PUSH1 0x22 PUSH1 0x4 MSTORE PUSH1 0x24 PUSH1 0x0 REVERT JUMPDEST SWAP2 PUSH1 0x7F AND SWAP2 PUSH3 0x2DB JUMP JUMPDEST DUP2 DUP2 LT PUSH3 0x314 JUMPI POP POP JUMP JUMPDEST PUSH1 0x0 DUP2 SSTORE PUSH1 0x1 ADD PUSH3 0x308 JUMP INVALID PUSH1 0x80 PUSH1 0x40 MSTORE PUSH1 0x4 CALLDATASIZE LT ISZERO PUSH2 0x12 JUMPI PUSH1 0x0 DUP1 REVERT JUMPDEST PUSH1 0x0 CALLDATALOAD PUSH1 0xE0 SHR DUP1 PUSH4 0x1011705 EQ PUSH2 0x15E4 JUMPI DUP1 PUSH4 0x7DE9735 EQ PUSH2 0x111F JUMPI DUP1 PUSH4 0x11456B47 EQ PUSH2 0x1574 JUMPI DUP1 PUSH4 0x2FD812DB EQ PUSH2 0x1558 JUMPI DUP1 PUSH4 0x4622AB03 EQ PUSH2 0x14F7 JUMPI DUP1 PUSH4 0x527FB137 EQ PUSH2 0x116F JUMPI DUP1 PUSH4 0x552D2D5C EQ PUSH2 0x111F JUMPI DUP1 PUSH4 0x56169182 EQ PUSH2 0x1101 JUMPI DUP1 PUSH4 0x60A59BDB EQ PUSH2 0x10E0 JUMPI DUP1 PUSH4 0x735E5DB6 EQ PUSH2 0x1011 JUMPI DUP1 PUSH4 0x85AF9B3F EQ PUSH2 0xFAE JUMPI DUP1 PUSH4 0x8DA5CB5B EQ PUSH2 0xF81 JUMPI DUP1 PUSH4 0x91511C22 EQ PUSH2 0xA5C JUMPI DUP1 PUSH4 0xAF4AFE0A EQ PUSH2 0x9E2 JUMPI DUP1 PUSH4 0xB491E097 EQ PUSH2 0x9C4 JUMPI DUP1 PUSH4 0xB8DD803C EQ PUSH2 0x730 JUMPI DUP1 PUSH4 0xC9DD1F3C EQ PUSH2 0x6C0 JUMPI DUP1 PUSH4 0xCD838F0F EQ PUSH2 0x5DA JUMPI DUP1 PUSH4 0xD75D62E5 EQ PUSH2 0x5BC JUMPI DUP1 PUSH4 0xF19F185E EQ PUSH2 0x42D JUMPI DUP1 PUSH4 0xF48BDC8D EQ PUSH2 0x163 JUMPI PUSH4 0xF6824A7C EQ PUSH2 0x10E JUMPI PUSH1 0x0 DUP1 REVERT JUMPDEST CALLVALUE PUSH2 0x15E JUMPI PUSH1 0x20 CALLDATASIZE PUSH1 0x3 NOT ADD SLT PUSH2 0x15E JUMPI PUSH1 0x4 CALLDATALOAD PUSH1 0x0 MSTORE PUSH1 0x5 PUSH1 0x20 MSTORE PUSH1 0x40 PUSH1 0x0 KECCAK256 PUSH2 0x13D PUSH1 0x1 DUP3 SLOAD SWAP3 ADD PUSH2 0x18AF JUMP JUMPDEST SWAP1 PUSH2 0x15A PUSH1 0x40 MLOAD SWAP3 DUP4 SWAP3 DUP4 MSTORE PUSH1 0x40 PUSH1 0x20 DUP5 ADD MSTORE PUSH1 0x40 DUP4 ADD SWAP1 PUSH2 0x173C JUMP JUMPDEST SUB SWAP1 RETURN JUMPDEST PUSH1 0x0 DUP1 REVERT JUMPDEST CALLVALUE PUSH2 0x15E JUMPI PUSH1 0x40 CALLDATASIZE PUSH1 0x3 NOT ADD SLT PUSH2 0x15E JUMPI PUSH1 0x4 CALLDATALOAD PUSH1 0x24 CALLDATALOAD SWAP1 PUSH2 0x188 PUSH1 0x2 SLOAD DUP3 LT PUSH2 0x1BE1 JUMP JUMPDEST DUP1 PUSH1 0x0 MSTORE PUSH1 0x20 PUSH1 0x5 DUP2 MSTORE PUSH1 0x40 PUSH1 0x0 KECCAK256 SWAP1 PUSH2 0x1A5 PUSH1 0x4 SLOAD DUP6 LT PUSH2 0x1D13 JUMP JUMPDEST DUP4 PUSH1 0x0 MSTORE PUSH1 0x7 DUP2 MSTORE PUSH2 0x1BD DUP5 PUSH1 0x40 PUSH1 0x0 KECCAK256 SLOAD EQ PUSH2 0x1D13 JUMP JUMPDEST DUP4 PUSH1 0x0 MSTORE PUSH1 0x7 DUP2 MSTORE PUSH1 0x40 PUSH1 0x0 KECCAK256 SWAP1 PUSH1 0x3 SWAP3 DUP4 DUP4 ADD SLOAD SWAP3 DUP4 ISZERO PUSH2 0x3D9 JUMPI PUSH1 0x2 DUP2 ADD SWAP5 PUSH1 0x1 DUP1 PUSH1 0xA0 SHL SUB SWAP3 DUP4 DUP8 SLOAD AND SWAP3 CALLER DUP5 SUB PUSH2 0x394 JUMPI PUSH1 0x40 MLOAD SWAP4 PUSH2 0x1FF DUP6 PUSH2 0x183D JUMP JUMPDEST PUSH1 0xF DUP6 MSTORE PUSH15 0x1119589D0814D95D1D1B195B595B9D PUSH1 0x8A SHL DUP8 DUP7 ADD MSTORE PUSH1 0x5 DUP8 DUP12 PUSH2 0x2A5 PUSH1 0x1 DUP1 SWAP7 ADD SWAP9 DUP11 DUP11 SLOAD AND SWAP3 PUSH1 0x40 MLOAD SWAP7 PUSH2 0x239 DUP9 PUSH2 0x183D JUMP JUMPDEST DUP9 DUP9 MSTORE DUP6 CALLDATASIZE DUP2 DUP11 ADD CALLDATACOPY PUSH2 0x24B DUP9 PUSH2 0x1B81 JUMP JUMPDEST MSTORE DUP14 PUSH1 0x6 DUP12 SLOAD SWAP7 PUSH1 0x40 MLOAD SWAP8 PUSH2 0x25F DUP10 PUSH2 0x1858 JUMP JUMPDEST DUP1 DUP10 MSTORE DUP2 DUP10 ADD SWAP4 DUP5 MSTORE PUSH1 0x40 DUP10 ADD SWAP5 DUP6 MSTORE PUSH1 0x60 DUP10 ADD SWAP6 DUP7 MSTORE PUSH1 0x80 DUP10 ADD SWAP8 DUP9 MSTORE PUSH1 0xA0 DUP10 ADD SWAP11 DUP12 MSTORE PUSH1 0x0 MSTORE MSTORE PUSH1 0x40 PUSH1 0x0 KECCAK256 SWAP6 MLOAD DUP7 SSTORE MLOAD DUP9 DUP7 ADD SSTORE MLOAD PUSH1 0x2 DUP6 ADD SSTORE MLOAD DUP9 DUP5 ADD PUSH2 0x1A66 JUMP JUMPDEST DUP9 PUSH1 0x4 DUP4 ADD SWAP2 MLOAD AND PUSH1 0x1 PUSH1 0x1 PUSH1 0x60 SHL SUB PUSH1 0xA0 SHL DUP3 SLOAD AND OR SWAP1 SSTORE ADD SWAP1 MLOAD SWAP1 DUP2 MLOAD SWAP2 PUSH1 0x1 PUSH1 0x1 PUSH1 0x40 SHL SUB DUP4 GT PUSH2 0x37E JUMPI PUSH1 0x1 PUSH1 0x40 SHL DUP4 GT PUSH2 0x37E JUMPI DUP9 SWAP1 PUSH2 0x2EF DUP5 DUP5 SLOAD DUP2 DUP7 SSTORE DUP6 PUSH2 0x1B8E JUMP JUMPDEST ADD SWAP1 PUSH1 0x0 MSTORE DUP8 PUSH1 0x0 KECCAK256 PUSH1 0x0 JUMPDEST DUP4 DUP2 LT PUSH2 0x36B JUMPI POP POP POP POP POP SWAP3 PUSH32 0x85CC67D4D25BE808125D692348568AC793720741B494A22E75D789813404799F SWAP7 SWAP5 SWAP3 DUP3 PUSH2 0x33F PUSH1 0x60 SWAP9 SWAP7 DUP3 DUP6 SWAP7 SLOAD SWAP2 ADD PUSH2 0x1C23 JUMP JUMPDEST PUSH2 0x349 DUP2 SLOAD PUSH2 0x1BD2 JUMP JUMPDEST SWAP1 SSTORE PUSH2 0x354 DUP10 PUSH2 0x1D55 JUMP JUMPDEST SLOAD AND SWAP4 SLOAD AND SWAP1 PUSH1 0x40 MLOAD SWAP4 DUP5 MSTORE DUP4 ADD MSTORE PUSH1 0x40 DUP3 ADD MSTORE LOG3 STOP JUMPDEST DUP3 MLOAD DUP10 AND DUP3 DUP3 ADD SSTORE SWAP2 DUP10 ADD SWAP2 DUP5 ADD PUSH2 0x2FB JUMP JUMPDEST PUSH4 0x4E487B71 PUSH1 0xE0 SHL PUSH1 0x0 MSTORE PUSH1 0x41 PUSH1 0x4 MSTORE PUSH1 0x24 PUSH1 0x0 REVERT JUMPDEST PUSH1 0x40 MLOAD PUSH3 0x461BCD PUSH1 0xE5 SHL DUP2 MSTORE PUSH1 0x4 DUP2 ADD DUP8 SWAP1 MSTORE PUSH1 0x1D PUSH1 0x24 DUP3 ADD MSTORE PUSH32 0x4F6E6C79206372656469746F722063616E20736574746C652064656274000000 PUSH1 0x44 DUP3 ADD MSTORE PUSH1 0x64 SWAP1 REVERT JUMPDEST PUSH1 0x40 MLOAD PUSH3 0x461BCD PUSH1 0xE5 SHL DUP2 MSTORE PUSH1 0x4 DUP2 ADD DUP5 SWAP1 MSTORE PUSH1 0x26 PUSH1 0x24 DUP3 ADD MSTORE PUSH32 0x4465627420616C726561647920736574746C6564206F7220646F6573206E6F74 PUSH1 0x44 DUP3 ADD MSTORE PUSH6 0x8195E1A5CDD PUSH1 0xD2 SHL PUSH1 0x64 DUP3 ADD MSTORE PUSH1 0x84 SWAP1 REVERT JUMPDEST CALLVALUE PUSH2 0x15E JUMPI PUSH1 0x0 CALLDATASIZE PUSH1 0x3 NOT ADD SLT PUSH2 0x15E JUMPI PUSH1 0x0 DUP1 PUSH1 0x2 SWAP1 DUP2 SLOAD SWAP1 JUMPDEST DUP2 DUP2 LT PUSH2 0x546 JUMPI POP PUSH2 0x459 DUP4 PUSH2 0x1B6A JUMP JUMPDEST SWAP3 PUSH2 0x467 PUSH1 0x40 MLOAD SWAP5 DUP6 PUSH2 0x188E JUMP JUMPDEST DUP1 DUP5 MSTORE PUSH2 0x476 PUSH1 0x1F NOT SWAP2 PUSH2 0x1B6A JUMP JUMPDEST ADD SWAP2 PUSH1 0x20 SWAP3 CALLDATASIZE DUP5 DUP7 ADD CALLDATACOPY PUSH1 0x0 DUP1 JUMPDEST DUP4 DUP2 LT PUSH2 0x49E JUMPI PUSH1 0x40 MLOAD DUP6 DUP2 MSTORE DUP1 PUSH2 0x15A DUP2 DUP9 ADD DUP10 PUSH2 0x17B9 JUMP JUMPDEST PUSH1 0x0 DUP2 DUP2 MSTORE PUSH1 0x5 DUP1 DUP8 MSTORE PUSH1 0x40 DUP3 KECCAK256 DUP6 DUP2 ADD DUP1 SLOAD SWAP4 JUMPDEST DUP5 DUP2 LT PUSH2 0x4CE JUMPI JUMPDEST POP POP POP POP POP PUSH2 0x4C9 SWAP1 PUSH2 0x1BD2 JUMP JUMPDEST PUSH2 0x484 JUMP JUMPDEST PUSH2 0x4D8 DUP2 DUP4 PUSH2 0x1A0A JUMP JUMPDEST SWAP1 SLOAD PUSH1 0x3 SWAP2 SWAP1 SWAP2 SHL SHR PUSH1 0x1 PUSH1 0x1 PUSH1 0xA0 SHL SUB AND CALLER EQ PUSH2 0x4FE JUMPI PUSH2 0x4F9 SWAP1 PUSH2 0x1BD2 JUMP JUMPDEST PUSH2 0x4B3 JUMP JUMPDEST POP POP SWAP1 SWAP2 POP SWAP3 SWAP2 SWAP3 SLOAD SWAP2 DUP8 MLOAD DUP2 LT ISZERO PUSH2 0x530 JUMPI PUSH2 0x4C9 SWAP3 DUP8 DUP3 PUSH2 0x525 SWAP5 SHL DUP11 ADD ADD MSTORE PUSH2 0x1BD2 JUMP JUMPDEST SWAP2 SWAP1 DUP8 DUP1 DUP1 DUP1 PUSH2 0x4BB JUMP JUMPDEST PUSH4 0x4E487B71 PUSH1 0xE0 SHL PUSH1 0x0 MSTORE PUSH1 0x32 PUSH1 0x4 MSTORE PUSH1 0x24 PUSH1 0x0 REVERT JUMPDEST PUSH1 0x0 DUP2 DUP2 MSTORE PUSH1 0x5 PUSH1 0x20 MSTORE PUSH1 0x40 DUP2 KECCAK256 DUP5 ADD DUP1 SLOAD SWAP2 JUMPDEST DUP3 DUP2 LT PUSH2 0x573 JUMPI JUMPDEST POP POP POP PUSH2 0x56E SWAP1 PUSH2 0x1BD2 JUMP JUMPDEST PUSH2 0x448 JUMP JUMPDEST PUSH2 0x57D DUP2 DUP4 PUSH2 0x1A0A JUMP JUMPDEST SWAP1 SLOAD PUSH1 0x3 SWAP2 SWAP1 SWAP2 SHL SHR PUSH1 0x1 PUSH1 0x1 PUSH1 0xA0 SHL SUB AND CALLER EQ PUSH2 0x5A3 JUMPI PUSH2 0x59E SWAP1 PUSH2 0x1BD2 JUMP JUMPDEST PUSH2 0x55A JUMP JUMPDEST POP POP POP SWAP3 PUSH2 0x5B3 PUSH2 0x56E SWAP2 PUSH2 0x1BD2 JUMP JUMPDEST SWAP4 SWAP1 DUP6 DUP1 PUSH2 0x562 JUMP JUMPDEST CALLVALUE PUSH2 0x15E JUMPI PUSH1 0x0 CALLDATASIZE PUSH1 0x3 NOT ADD SLT PUSH2 0x15E JUMPI PUSH1 0x20 PUSH1 0x3 SLOAD PUSH1 0x40 MLOAD SWAP1 DUP2 MSTORE RETURN JUMPDEST CALLVALUE PUSH2 0x15E JUMPI PUSH1 0x0 CALLDATASIZE PUSH1 0x3 NOT ADD SLT PUSH2 0x15E JUMPI PUSH1 0x0 SLOAD PUSH2 0x5F7 DUP2 PUSH2 0x1B6A JUMP JUMPDEST SWAP1 PUSH2 0x605 PUSH1 0x40 MLOAD SWAP3 DUP4 PUSH2 0x188E JUMP JUMPDEST DUP1 DUP3 MSTORE PUSH1 0x0 DUP1 DUP1 MSTORE PUSH1 0x20 SWAP2 DUP3 DUP5 ADD SWAP2 PUSH32 0x290DECD9548B62A8D60345A988386FC84BA6BC95484008F6362F93160EF3E563 DUP4 JUMPDEST DUP4 DUP4 LT PUSH2 0x69E JUMPI POP POP POP POP PUSH1 0x40 MLOAD SWAP2 DUP1 DUP4 ADD SWAP4 DUP2 DUP5 MSTORE MLOAD DUP1 SWAP5 MSTORE PUSH1 0x40 DUP4 ADD SWAP4 PUSH1 0x40 DUP2 PUSH1 0x5 SHL DUP6 ADD ADD SWAP3 SWAP2 PUSH1 0x0 SWAP6 JUMPDEST DUP3 DUP8 LT PUSH2 0x672 JUMPI DUP6 DUP6 SUB DUP7 RETURN JUMPDEST SWAP1 SWAP2 SWAP3 SWAP4 DUP3 DUP1 PUSH2 0x68E PUSH1 0x1 SWAP4 PUSH1 0x3F NOT DUP11 DUP3 SUB ADD DUP7 MSTORE DUP9 MLOAD PUSH2 0x173C JUMP JUMPDEST SWAP7 ADD SWAP3 ADD SWAP7 ADD SWAP6 SWAP3 SWAP2 SWAP1 SWAP3 PUSH2 0x665 JUMP JUMPDEST PUSH1 0x1 DUP7 DUP2 SWAP3 PUSH2 0x6AF DUP6 SWAP11 SWAP10 SWAP11 PUSH2 0x18AF JUMP JUMPDEST DUP2 MSTORE ADD SWAP3 ADD SWAP3 ADD SWAP2 SWAP1 SWAP6 SWAP5 SWAP6 PUSH2 0x637 JUMP JUMPDEST CALLVALUE PUSH2 0x15E JUMPI PUSH1 0x20 CALLDATASIZE PUSH1 0x3 NOT ADD SLT PUSH2 0x15E JUMPI PUSH1 0x4 CALLDATALOAD PUSH2 0x6E1 PUSH1 0x4 SLOAD DUP3 LT PUSH2 0x1D13 JUMP JUMPDEST PUSH1 0x0 SWAP1 DUP2 MSTORE PUSH1 0x7 PUSH1 0x20 SWAP1 DUP2 MSTORE PUSH1 0x40 SWAP2 DUP3 SWAP1 KECCAK256 DUP1 SLOAD PUSH1 0x1 DUP3 ADD SLOAD PUSH1 0x2 DUP4 ADD SLOAD PUSH1 0x3 SWAP1 SWAP4 ADD SLOAD DUP6 MLOAD SWAP3 DUP4 MSTORE PUSH1 0x1 PUSH1 0x1 PUSH1 0xA0 SHL SUB SWAP2 DUP3 AND SWAP5 DUP4 ADD SWAP5 SWAP1 SWAP5 MSTORE SWAP1 SWAP2 AND SWAP3 DUP2 ADD SWAP3 SWAP1 SWAP3 MSTORE PUSH1 0x60 DUP3 ADD MSTORE PUSH1 0x80 SWAP1 RETURN JUMPDEST CALLVALUE PUSH2 0x15E JUMPI PUSH1 0x60 CALLDATASIZE PUSH1 0x3 NOT ADD SLT PUSH2 0x15E JUMPI PUSH1 0x1 PUSH1 0x1 PUSH1 0xA0 SHL SUB PUSH1 0x24 DUP1 CALLDATALOAD DUP3 DUP2 AND SWAP3 PUSH1 0x4 CALLDATALOAD SWAP2 DUP5 SWAP1 SUB PUSH2 0x15E JUMPI PUSH1 0x44 DUP1 CALLDATALOAD PUSH1 0x1 PUSH1 0x1 PUSH1 0x40 SHL SUB DUP2 GT PUSH2 0x15E JUMPI PUSH2 0x77C SWAP1 CALLDATASIZE SWAP1 PUSH1 0x4 ADD PUSH2 0x1A22 JUMP JUMPDEST SWAP3 PUSH2 0x78A PUSH1 0x2 SLOAD DUP7 LT PUSH2 0x1BE1 JUMP JUMPDEST DUP5 PUSH1 0x0 MSTORE PUSH1 0x20 SWAP3 PUSH1 0x5 DUP5 MSTORE PUSH1 0x40 PUSH1 0x0 KECCAK256 SWAP7 PUSH1 0x0 SWAP8 PUSH1 0x2 PUSH1 0x0 SWAP2 ADD DUP1 SLOAD SWAP2 JUMPDEST DUP3 DUP2 LT PUSH2 0x98B JUMPI JUMPDEST POP POP POP SWAP1 SWAP2 SWAP3 SWAP4 SWAP5 SWAP6 SWAP7 ISZERO PUSH2 0x938 JUMPI DUP8 PUSH1 0x0 MSTORE PUSH1 0x8 DUP6 MSTORE PUSH2 0x7D8 PUSH1 0x1 PUSH1 0x40 PUSH1 0x0 KECCAK256 ADD SLOAD PUSH2 0x1803 JUMP JUMPDEST ISZERO PUSH2 0x8E4 JUMPI JUMPDEST DUP7 PUSH1 0x0 MSTORE PUSH1 0x5 DUP6 MSTORE PUSH1 0x2 PUSH1 0x40 PUSH1 0x0 KECCAK256 ADD SWAP1 PUSH1 0x0 SWAP3 DUP3 SLOAD SWAP4 JUMPDEST DUP5 DUP2 LT PUSH2 0x881 JUMPI POP POP PUSH1 0x1 PUSH1 0x40 SHL DUP4 LT ISZERO PUSH2 0x86D JUMPI POP SWAP2 PUSH2 0x844 DUP3 PUSH2 0x868 SWAP5 PUSH1 0x1 PUSH32 0x79E01C282F426E8B4AAE0D87849E6766F42C502766FE61B22AC3C037219F79EE SWAP10 SWAP9 SWAP8 SWAP6 ADD DUP2 SSTORE PUSH2 0x1A0A JUMP JUMPDEST DUP2 SWAP3 SWAP2 SLOAD SWAP1 PUSH1 0x3 SHL SWAP2 DUP11 DUP4 SHL SWAP3 SHL NOT AND OR SWAP1 SSTORE PUSH1 0x40 MLOAD SWAP4 DUP4 DUP6 SWAP5 DUP6 MSTORE DUP5 ADD SWAP2 PUSH2 0x1BB1 JUMP JUMPDEST SUB SWAP1 LOG3 STOP JUMPDEST PUSH4 0x4E487B71 PUSH1 0xE0 SHL PUSH1 0x0 SWAP1 DUP2 MSTORE PUSH1 0x41 PUSH1 0x4 MSTORE REVERT JUMPDEST DUP11 DUP7 PUSH2 0x88D DUP4 DUP8 PUSH2 0x1A0A JUMP JUMPDEST SWAP1 SLOAD SWAP1 PUSH1 0x3 SHL SHR AND EQ PUSH2 0x8A8 JUMPI PUSH2 0x8A3 SWAP1 PUSH2 0x1BD2 JUMP JUMPDEST PUSH2 0x7F6 JUMP JUMPDEST PUSH1 0x40 MLOAD PUSH3 0x461BCD PUSH1 0xE5 SHL DUP2 MSTORE PUSH1 0x4 DUP2 ADD DUP10 SWAP1 MSTORE PUSH1 0x16 DUP2 DUP6 ADD MSTORE PUSH22 0x506572736F6E20616C726561647920696E207472697 PUSH1 0x54 SHL DUP2 DUP5 ADD MSTORE PUSH1 0x64 SWAP1 REVERT JUMPDEST PUSH2 0x933 PUSH1 0x40 MLOAD PUSH2 0x8F3 DUP2 PUSH2 0x183D JUMP JUMPDEST DUP10 DUP2 MSTORE PUSH1 0x1 PUSH2 0x903 CALLDATASIZE DUP11 DUP10 PUSH2 0x197A JUMP JUMPDEST DUP9 DUP4 ADD SWAP1 DUP2 MSTORE DUP12 PUSH1 0x0 MSTORE PUSH1 0x8 DUP10 MSTORE DUP7 PUSH1 0x40 PUSH1 0x0 KECCAK256 SWAP4 MLOAD AND PUSH1 0x1 PUSH1 0x1 PUSH1 0x60 SHL SUB PUSH1 0xA0 SHL DUP5 SLOAD AND OR DUP4 SSTORE MLOAD SWAP2 ADD PUSH2 0x1A66 JUMP JUMPDEST PUSH2 0x7DE JUMP JUMPDEST PUSH32 0x4F6E6C792074726970207061727469636970616E74732063616E206164642061 PUSH1 0x84 SWAP3 PUSH1 0x28 DUP8 SWAP4 PUSH1 0x40 MLOAD SWAP5 PUSH3 0x461BCD PUSH1 0xE5 SHL DUP7 MSTORE PUSH1 0x4 DUP7 ADD MSTORE DUP5 ADD MSTORE DUP3 ADD MSTORE PUSH8 0x103832B939B7B717 PUSH1 0xC1 SHL PUSH1 0x64 DUP3 ADD MSTORE REVERT JUMPDEST DUP6 PUSH2 0x996 DUP3 DUP5 PUSH2 0x1A0A JUMP JUMPDEST SWAP2 SWAP1 SLOAD CALLER SWAP3 PUSH1 0x3 SHL SHR AND EQ PUSH2 0x9B3 JUMPI PUSH2 0x9AE SWAP1 PUSH2 0x1BD2 JUMP JUMPDEST PUSH2 0x7A8 JUMP JUMPDEST POP PUSH1 0x1 SWAP10 POP DUP12 SWAP2 POP DUP2 SWAP1 POP DUP1 PUSH2 0x7B0 JUMP JUMPDEST CALLVALUE PUSH2 0x15E JUMPI PUSH1 0x0 CALLDATASIZE PUSH1 0x3 NOT ADD SLT PUSH2 0x15E JUMPI PUSH1 0x20 PUSH1 0x4 SLOAD PUSH1 0x40 MLOAD SWAP1 DUP2 MSTORE RETURN JUMPDEST CALLVALUE PUSH2 0x15E JUMPI PUSH1 0x20 CALLDATASIZE PUSH1 0x3 NOT ADD SLT PUSH2 0x15E JUMPI PUSH1 0x4 CALLDATALOAD PUSH1 0x0 MSTORE PUSH1 0x6 PUSH1 0x20 MSTORE PUSH1 0x40 PUSH1 0x0 KECCAK256 DUP1 SLOAD PUSH1 0x1 DUP3 ADD SLOAD SWAP2 PUSH2 0xA52 PUSH1 0x2 DUP3 ADD SLOAD SWAP2 PUSH2 0xA20 PUSH1 0x3 DUP3 ADD PUSH2 0x18AF JUMP JUMPDEST SWAP1 PUSH1 0x4 PUSH1 0x1 DUP1 PUSH1 0xA0 SHL SUB SWAP2 ADD SLOAD AND SWAP3 PUSH1 0x40 MLOAD SWAP6 DUP7 SWAP6 DUP7 MSTORE PUSH1 0x20 DUP7 ADD MSTORE PUSH1 0x40 DUP6 ADD MSTORE PUSH1 0xA0 PUSH1 0x60 DUP6 ADD MSTORE PUSH1 0xA0 DUP5 ADD SWAP1 PUSH2 0x173C JUMP JUMPDEST SWAP1 PUSH1 0x80 DUP4 ADD MSTORE SUB SWAP1 RETURN JUMPDEST CALLVALUE PUSH2 0x15E JUMPI PUSH1 0xA0 CALLDATASIZE PUSH1 0x3 NOT ADD SLT PUSH2 0x15E JUMPI PUSH1 0x44 CALLDATALOAD PUSH1 0x1 PUSH1 0x1 PUSH1 0x40 SHL SUB DUP2 GT PUSH2 0x15E JUMPI PUSH2 0xA8C SWAP1 CALLDATASIZE SWAP1 PUSH1 0x4 ADD PUSH2 0x1A22 JUMP JUMPDEST SWAP1 PUSH1 0x64 CALLDATALOAD SWAP1 PUSH1 0x1 PUSH1 0x1 PUSH1 0xA0 SHL SUB DUP3 AND DUP3 SUB PUSH2 0x15E JUMPI PUSH1 0x1 PUSH1 0x1 PUSH1 0x40 SHL SUB PUSH1 0x84 CALLDATALOAD GT PUSH2 0x15E JUMPI CALLDATASIZE PUSH1 0x23 PUSH1 0x84 CALLDATALOAD ADD SLT ISZERO PUSH2 0x15E JUMPI PUSH1 0x1 PUSH1 0x1 PUSH1 0x40 SHL SUB PUSH1 0x84 CALLDATALOAD PUSH1 0x4 ADD CALLDATALOAD GT PUSH2 0x15E JUMPI CALLDATASIZE PUSH1 0x24 PUSH1 0x84 CALLDATALOAD PUSH1 0x4 ADD CALLDATALOAD PUSH1 0x5 SHL PUSH1 0x84 CALLDATALOAD ADD ADD GT PUSH2 0x15E JUMPI PUSH2 0xAF8 PUSH1 0x2 SLOAD PUSH1 0x4 CALLDATALOAD LT PUSH2 0x1BE1 JUMP JUMPDEST PUSH1 0x84 CALLDATALOAD PUSH1 0x4 ADD CALLDATALOAD ISZERO PUSH2 0xF32 JUMPI PUSH1 0x1 PUSH1 0x1 PUSH1 0xA0 SHL SUB DUP3 AND CALLER SUB PUSH2 0xEE3 JUMPI PUSH1 0x0 SWAP2 PUSH1 0x0 JUMPDEST PUSH1 0x4 CALLDATALOAD PUSH1 0x0 MSTORE PUSH1 0x5 PUSH1 0x20 MSTORE PUSH1 0x2 PUSH1 0x40 PUSH1 0x0 KECCAK256 ADD DUP1 SLOAD DUP3 LT ISZERO PUSH2 0xEDA JUMPI DUP2 PUSH2 0xB40 SWAP2 PUSH2 0x1A0A JUMP JUMPDEST SWAP1 SLOAD PUSH1 0x3 SWAP2 SWAP1 SWAP2 SHL SHR PUSH1 0x1 PUSH1 0x1 PUSH1 0xA0 SHL SUB SWAP1 DUP2 AND SWAP1 DUP4 AND EQ PUSH2 0xB6A JUMPI PUSH2 0xB65 SWAP1 PUSH2 0x1BD2 JUMP JUMPDEST PUSH2 0xB1A JUMP JUMPDEST POP SWAP1 SWAP2 POP PUSH1 0x1 JUMPDEST ISZERO PUSH2 0xE9E JUMPI PUSH1 0x0 SWAP3 JUMPDEST PUSH1 0x84 CALLDATALOAD PUSH1 0x4 ADD CALLDATALOAD DUP5 LT ISZERO PUSH2 0xC77 JUMPI PUSH1 0x0 SWAP3 PUSH1 0x0 JUMPDEST PUSH1 0x4 CALLDATALOAD PUSH1 0x0 MSTORE PUSH1 0x5 PUSH1 0x20 MSTORE PUSH1 0x2 PUSH1 0x40 PUSH1 0x0 KECCAK256 ADD DUP1 SLOAD DUP3 LT ISZERO PUSH2 0xC6C JUMPI DUP2 PUSH2 0xBB4 SWAP2 PUSH2 0x1A0A JUMP JUMPDEST SWAP1 SLOAD SWAP1 PUSH1 0x84 CALLDATALOAD PUSH1 0x4 ADD CALLDATALOAD DUP9 LT ISZERO PUSH2 0x530 JUMPI PUSH1 0x84 CALLDATALOAD PUSH1 0x5 DUP10 SWAP1 SHL ADD PUSH1 0x24 ADD CALLDATALOAD PUSH1 0x1 PUSH1 0x1 PUSH1 0xA0 SHL SUB DUP2 AND DUP2 SUB PUSH2 0x15E JUMPI PUSH1 0x3 SWAP2 SWAP1 SWAP2 SHL SWAP2 SWAP1 SWAP2 SHR PUSH1 0x1 PUSH1 0x1 PUSH1 0xA0 SHL SUB SWAP1 DUP2 AND SWAP2 AND EQ PUSH2 0xC0C JUMPI PUSH2 0xC07 SWAP1 PUSH2 0x1BD2 JUMP JUMPDEST PUSH2 0xB8E JUMP JUMPDEST POP SWAP3 POP SWAP3 PUSH1 0x1 JUMPDEST ISZERO PUSH2 0xC27 JUMPI PUSH2 0xC21 SWAP1 PUSH2 0x1BD2 JUMP JUMPDEST SWAP3 PUSH2 0xB7A JUMP JUMPDEST PUSH1 0x40 MLOAD PUSH3 0x461BCD PUSH1 0xE5 SHL DUP2 MSTORE PUSH1 0x20 PUSH1 0x4 DUP3 ADD MSTORE PUSH1 0x17 PUSH1 0x24 DUP3 ADD MSTORE PUSH32 0x5061727469636970616E74206E6F7420696E2074726970000000000000000000 PUSH1 0x44 DUP3 ADD MSTORE PUSH1 0x64 SWAP1 REVERT JUMPDEST POP POP SWAP3 SWAP4 SWAP1 SWAP4 PUSH2 0xC13 JUMP JUMPDEST PUSH1 0x3 SLOAD PUSH1 0x40 MLOAD SWAP1 PUSH2 0xC87 DUP3 PUSH2 0x1858 JUMP JUMPDEST DUP1 DUP3 MSTORE PUSH1 0x24 CALLDATALOAD PUSH1 0x20 DUP4 ADD MSTORE PUSH1 0x4 CALLDATALOAD PUSH1 0x40 DUP4 ADD MSTORE PUSH2 0xCA5 CALLDATASIZE DUP5 DUP8 PUSH2 0x197A JUMP JUMPDEST PUSH1 0x60 DUP4 ADD MSTORE PUSH1 0x1 PUSH1 0x1 PUSH1 0xA0 SHL SUB DUP5 AND PUSH1 0x80 DUP4 ADD MSTORE PUSH2 0xCC8 PUSH1 0x4 PUSH1 0x84 CALLDATALOAD ADD CALLDATALOAD PUSH2 0x1B6A JUMP JUMPDEST SWAP1 PUSH2 0xCD6 PUSH1 0x40 MLOAD SWAP3 DUP4 PUSH2 0x188E JUMP JUMPDEST PUSH1 0x84 CALLDATALOAD PUSH1 0x4 DUP2 ADD CALLDATALOAD DUP4 MSTORE PUSH1 0x24 ADD PUSH1 0x20 DUP4 ADD JUMPDEST PUSH1 0x24 PUSH1 0x84 CALLDATALOAD PUSH1 0x4 ADD CALLDATALOAD PUSH1 0x5 SHL PUSH1 0x84 CALLDATALOAD ADD ADD DUP3 LT PUSH2 0xE7C JUMPI POP POP PUSH1 0xA0 DUP4 ADD SWAP2 DUP3 MSTORE PUSH1 0x0 MSTORE PUSH1 0x6 PUSH1 0x20 MSTORE PUSH1 0x40 PUSH1 0x0 KECCAK256 SWAP2 DUP1 MLOAD DUP4 SSTORE PUSH1 0x20 DUP2 ADD MLOAD PUSH1 0x1 DUP5 ADD SSTORE PUSH1 0x40 DUP2 ADD MLOAD PUSH1 0x2 DUP5 ADD SSTORE PUSH2 0xD3F PUSH1 0x60 DUP3 ADD MLOAD PUSH1 0x3 DUP6 ADD PUSH2 0x1A66 JUMP JUMPDEST PUSH1 0x80 ADD MLOAD PUSH1 0x4 DUP4 ADD DUP1 SLOAD PUSH1 0x1 PUSH1 0x1 PUSH1 0xA0 SHL SUB NOT AND PUSH1 0x1 PUSH1 0x1 PUSH1 0xA0 SHL SUB SWAP3 SWAP1 SWAP3 AND SWAP2 SWAP1 SWAP2 OR SWAP1 SSTORE MLOAD DUP1 MLOAD SWAP2 PUSH1 0x1 PUSH1 0x1 PUSH1 0x40 SHL SUB DUP4 GT PUSH2 0x37E JUMPI PUSH1 0x1 PUSH1 0x40 SHL DUP4 GT PUSH2 0x37E JUMPI PUSH1 0x5 PUSH1 0x20 SWAP2 ADD SWAP2 PUSH2 0xD98 DUP5 DUP5 SLOAD DUP2 DUP7 SSTORE DUP6 PUSH2 0x1B8E JUMP JUMPDEST ADD SWAP1 PUSH1 0x0 MSTORE PUSH1 0x20 PUSH1 0x0 KECCAK256 PUSH1 0x0 JUMPDEST DUP4 DUP2 LT PUSH2 0xE5F JUMPI POP POP POP POP PUSH1 0x4 CALLDATALOAD PUSH1 0x0 MSTORE PUSH1 0x5 PUSH1 0x20 MSTORE PUSH2 0xDCF PUSH1 0x3 PUSH1 0x40 PUSH1 0x0 KECCAK256 ADD PUSH1 0x3 SLOAD SWAP1 PUSH2 0x1C23 JUMP JUMPDEST PUSH2 0xDDA PUSH1 0x3 SLOAD PUSH2 0x1BD2 JUMP JUMPDEST SWAP2 DUP3 PUSH1 0x3 SSTORE PUSH1 0x0 NOT DUP4 ADD SWAP3 DUP4 GT PUSH2 0xE49 JUMPI PUSH2 0xE39 PUSH32 0x5472D6AF683775AC6A9C6C52EC7A2DEFBF1857CE99C4D5177F49F8A9F8150360 SWAP2 PUSH1 0x40 MLOAD SWAP2 DUP3 SWAP2 PUSH1 0x24 CALLDATALOAD DUP4 MSTORE PUSH1 0x40 PUSH1 0x20 DUP5 ADD MSTORE PUSH1 0x1 DUP1 PUSH1 0xA0 SHL SUB AND SWAP7 PUSH1 0x4 CALLDATALOAD SWAP6 PUSH1 0x40 DUP5 ADD SWAP2 PUSH2 0x1BB1 JUMP JUMPDEST SUB SWAP1 LOG4 PUSH2 0xE47 PUSH1 0x4 CALLDATALOAD PUSH2 0x1D55 JUMP JUMPDEST STOP JUMPDEST PUSH4 0x4E487B71 PUSH1 0xE0 SHL PUSH1 0x0 MSTORE PUSH1 0x11 PUSH1 0x4 MSTORE PUSH1 0x24 PUSH1 0x0 REVERT JUMPDEST DUP3 MLOAD PUSH1 0x1 PUSH1 0x1 PUSH1 0xA0 SHL SUB AND DUP2 DUP4 ADD SSTORE PUSH1 0x20 SWAP1 SWAP3 ADD SWAP2 PUSH1 0x1 ADD PUSH2 0xDA5 JUMP JUMPDEST DUP2 CALLDATALOAD PUSH1 0x1 PUSH1 0x1 PUSH1 0xA0 SHL SUB DUP2 AND SWAP1 SUB PUSH2 0x15E JUMPI DUP2 CALLDATALOAD DUP2 MSTORE PUSH1 0x20 SWAP2 DUP3 ADD SWAP2 ADD PUSH2 0xCE8 JUMP JUMPDEST PUSH1 0x40 MLOAD PUSH3 0x461BCD PUSH1 0xE5 SHL DUP2 MSTORE PUSH1 0x20 PUSH1 0x4 DUP3 ADD MSTORE PUSH1 0x14 PUSH1 0x24 DUP3 ADD MSTORE PUSH20 0x457870656E646572206E6F7420696E207472697 PUSH1 0x64 SHL PUSH1 0x44 DUP3 ADD MSTORE PUSH1 0x64 SWAP1 REVERT JUMPDEST POP POP SWAP1 SWAP2 PUSH2 0xB71 JUMP JUMPDEST PUSH1 0x40 MLOAD PUSH3 0x461BCD PUSH1 0xE5 SHL DUP2 MSTORE PUSH1 0x20 PUSH1 0x4 DUP3 ADD MSTORE PUSH1 0x21 PUSH1 0x24 DUP3 ADD MSTORE PUSH32 0x4F6E6C792074686520657870656E6465722063616E2061646420657870656E73 PUSH1 0x44 DUP3 ADD MSTORE PUSH1 0x65 PUSH1 0xF8 SHL PUSH1 0x64 DUP3 ADD MSTORE PUSH1 0x84 SWAP1 REVERT JUMPDEST PUSH1 0x40 MLOAD PUSH3 0x461BCD PUSH1 0xE5 SHL DUP2 MSTORE PUSH1 0x20 PUSH1 0x4 DUP3 ADD MSTORE PUSH1 0x21 PUSH1 0x24 DUP3 ADD MSTORE PUSH32 0x4174206C65617374206F6E65207061727469636970616E742072657175697265 PUSH1 0x44 DUP3 ADD MSTORE PUSH1 0x19 PUSH1 0xFA SHL PUSH1 0x64 DUP3 ADD MSTORE PUSH1 0x84 SWAP1 REVERT JUMPDEST CALLVALUE PUSH2 0x15E JUMPI PUSH1 0x0 CALLDATASIZE PUSH1 0x3 NOT ADD SLT PUSH2 0x15E JUMPI PUSH1 0x1 SLOAD PUSH1 0x40 MLOAD PUSH1 0x10 SWAP2 SWAP1 SWAP2 SHR PUSH1 0x1 PUSH1 0x1 PUSH1 0xA0 SHL SUB AND DUP2 MSTORE PUSH1 0x20 SWAP1 RETURN JUMPDEST CALLVALUE PUSH2 0x15E JUMPI PUSH1 0x20 CALLDATASIZE PUSH1 0x3 NOT ADD SLT PUSH2 0x15E JUMPI PUSH1 0x4 CALLDATALOAD PUSH1 0x0 SWAP1 DUP2 MSTORE PUSH1 0x7 PUSH1 0x20 SWAP1 DUP2 MSTORE PUSH1 0x40 SWAP2 DUP3 SWAP1 KECCAK256 DUP1 SLOAD PUSH1 0x1 DUP3 ADD SLOAD PUSH1 0x2 DUP4 ADD SLOAD PUSH1 0x3 SWAP1 SWAP4 ADD SLOAD DUP6 MLOAD SWAP3 DUP4 MSTORE PUSH1 0x1 PUSH1 0x1 PUSH1 0xA0 SHL SUB SWAP2 DUP3 AND SWAP5 DUP4 ADD SWAP5 SWAP1 SWAP5 MSTORE SWAP1 SWAP2 AND SWAP3 DUP2 ADD SWAP3 SWAP1 SWAP3 MSTORE PUSH1 0x60 DUP3 ADD MSTORE PUSH1 0x80 SWAP1 RETURN JUMPDEST CALLVALUE PUSH2 0x15E JUMPI PUSH1 0x20 CALLDATASIZE PUSH1 0x3 NOT ADD SLT PUSH2 0x15E JUMPI PUSH1 0x4 CALLDATALOAD PUSH1 0x3 SLOAD DUP2 LT ISZERO PUSH2 0x10A2 JUMPI PUSH1 0x0 MSTORE PUSH1 0x6 PUSH1 0x20 MSTORE PUSH1 0x40 PUSH1 0x0 KECCAK256 DUP1 SLOAD PUSH2 0x15A PUSH1 0x1 DUP4 ADD SLOAD SWAP3 PUSH1 0x1 DUP1 PUSH1 0xA0 SHL SUB PUSH1 0x4 DUP3 ADD SLOAD AND SWAP1 PUSH2 0x108F PUSH2 0x1070 PUSH1 0x5 PUSH2 0x1069 PUSH1 0x3 DUP6 ADD PUSH2 0x18AF JUMP JUMPDEST SWAP4 ADD PUSH2 0x1C6C JUMP JUMPDEST SWAP2 PUSH1 0x40 MLOAD SWAP7 DUP8 SWAP7 DUP8 MSTORE PUSH1 0x20 DUP8 ADD MSTORE PUSH1 0xA0 PUSH1 0x40 DUP8 ADD MSTORE PUSH1 0xA0 DUP7 ADD SWAP1 PUSH2 0x173C JUMP JUMPDEST SWAP2 PUSH1 0x60 DUP6 ADD MSTORE DUP4 DUP3 SUB PUSH1 0x80 DUP6 ADD MSTORE PUSH2 0x177C JUMP JUMPDEST PUSH1 0x40 MLOAD PUSH3 0x461BCD PUSH1 0xE5 SHL DUP2 MSTORE PUSH1 0x20 PUSH1 0x4 DUP3 ADD MSTORE PUSH1 0x16 PUSH1 0x24 DUP3 ADD MSTORE PUSH22 0x115E1C195B9CD948191BD95CC81B9BDD08195E1A5CDD PUSH1 0x52 SHL PUSH1 0x44 DUP3 ADD MSTORE PUSH1 0x64 SWAP1 REVERT JUMPDEST CALLVALUE PUSH2 0x15E JUMPI PUSH1 0x0 CALLDATASIZE PUSH1 0x3 NOT ADD SLT PUSH2 0x15E JUMPI PUSH1 0x20 PUSH1 0x1 SLOAD PUSH1 0x1 SIGNEXTEND PUSH1 0x40 MLOAD SWAP1 DUP2 MSTORE RETURN JUMPDEST CALLVALUE PUSH2 0x15E JUMPI PUSH1 0x0 CALLDATASIZE PUSH1 0x3 NOT ADD SLT PUSH2 0x15E JUMPI PUSH1 0x20 PUSH1 0x2 SLOAD PUSH1 0x40 MLOAD SWAP1 DUP2 MSTORE RETURN JUMPDEST CALLVALUE PUSH2 0x15E JUMPI PUSH1 0x20 CALLDATASIZE PUSH1 0x3 NOT ADD SLT PUSH2 0x15E JUMPI PUSH1 0x1 PUSH1 0x1 PUSH1 0xA0 SHL SUB DUP1 PUSH2 0x1141 PUSH2 0x17ED JUMP JUMPDEST AND PUSH1 0x0 MSTORE PUSH1 0x8 PUSH1 0x20 MSTORE PUSH2 0x115F PUSH1 0x1 PUSH1 0x40 PUSH1 0x0 KECCAK256 SWAP3 DUP4 SLOAD AND SWAP3 ADD PUSH2 0x18AF JUMP JUMPDEST SWAP1 PUSH2 0x15A PUSH1 0x40 MLOAD SWAP3 DUP4 SWAP3 DUP4 PUSH2 0x1955 JUMP JUMPDEST CALLVALUE PUSH2 0x15E JUMPI PUSH1 0x40 CALLDATASIZE PUSH1 0x3 NOT ADD SLT PUSH2 0x15E JUMPI PUSH1 0x1 PUSH1 0x1 PUSH1 0x40 SHL SUB PUSH1 0x4 CALLDATALOAD DUP2 DUP2 GT PUSH2 0x15E JUMPI PUSH2 0x11A0 SWAP1 CALLDATASIZE SWAP1 PUSH1 0x4 ADD PUSH2 0x1A22 JUMP JUMPDEST PUSH1 0x24 SWAP1 DUP2 CALLDATALOAD DUP5 DUP2 GT PUSH2 0x15E JUMPI PUSH2 0x11BA SWAP1 CALLDATASIZE SWAP1 PUSH1 0x4 ADD PUSH2 0x1A22 JUMP JUMPDEST SWAP5 SWAP1 SWAP3 DUP3 ISZERO PUSH2 0x14BE JUMPI DUP6 ISZERO PUSH2 0x1484 JUMPI CALLER PUSH1 0x0 MSTORE PUSH1 0x20 SWAP4 PUSH1 0x8 DUP6 MSTORE PUSH1 0x1 SWAP7 DUP8 PUSH2 0x11E8 DUP2 PUSH1 0x40 PUSH1 0x0 KECCAK256 ADD SLOAD PUSH2 0x1803 JUMP JUMPDEST ISZERO PUSH2 0x1425 JUMPI JUMPDEST POP POP POP PUSH1 0x40 MLOAD PUSH2 0x11FD DUP2 PUSH2 0x183D JUMP JUMPDEST DUP7 DUP2 MSTORE DUP5 CALLDATASIZE DUP2 DUP4 ADD CALLDATACOPY CALLER PUSH2 0x1210 DUP3 PUSH2 0x1B81 JUMP JUMPDEST MSTORE PUSH1 0x2 SLOAD SWAP2 PUSH1 0x40 MLOAD SWAP3 PUSH2 0x1222 DUP5 PUSH2 0x1873 JUMP JUMPDEST PUSH1 0x0 DUP5 MSTORE PUSH1 0x40 MLOAD SWAP4 PUSH2 0x1233 DUP6 PUSH2 0x1873 JUMP JUMPDEST PUSH1 0x0 DUP6 MSTORE PUSH1 0x40 MLOAD SWAP2 PUSH1 0xA0 DUP4 ADD DUP4 DUP2 LT DUP9 DUP3 GT OR PUSH2 0x13E0 JUMPI PUSH1 0x40 MSTORE DUP1 DUP4 MSTORE PUSH2 0x1294 SWAP1 PUSH2 0x125F CALLDATASIZE DUP11 DUP14 PUSH2 0x197A JUMP JUMPDEST SWAP1 DUP11 DUP6 ADD SWAP2 DUP3 MSTORE PUSH1 0x40 DUP6 ADD SWAP7 DUP8 MSTORE PUSH1 0x60 DUP6 ADD SWAP4 DUP5 MSTORE PUSH1 0x80 DUP6 ADD SWAP8 DUP9 MSTORE PUSH1 0x0 MSTORE PUSH1 0x5 DUP11 MSTORE PUSH1 0x40 PUSH1 0x0 KECCAK256 SWAP4 MLOAD DUP5 SSTORE MLOAD DUP12 DUP5 ADD PUSH2 0x1A66 JUMP JUMPDEST PUSH1 0x2 DUP3 ADD SWAP4 MLOAD SWAP4 DUP5 MLOAD SWAP1 DUP8 DUP3 GT PUSH2 0x13E0 JUMPI PUSH1 0x1 PUSH1 0x40 SHL SWAP6 DUP7 DUP4 GT PUSH2 0x1410 JUMPI DUP11 SWAP1 PUSH2 0x12C3 DUP5 DUP5 SLOAD DUP2 DUP7 SSTORE DUP6 PUSH2 0x1B8E JUMP JUMPDEST ADD SWAP1 PUSH1 0x0 MSTORE DUP10 PUSH1 0x0 KECCAK256 DUP13 PUSH1 0x0 JUMPDEST DUP5 DUP2 LT PUSH2 0x13F5 JUMPI POP POP POP POP POP PUSH1 0x3 DUP3 ADD SWAP1 MLOAD SWAP1 DUP2 MLOAD SWAP2 DUP8 DUP4 GT PUSH2 0x13E0 JUMPI DUP6 DUP4 GT PUSH2 0x13E0 JUMPI DUP10 SWAP1 PUSH2 0x1305 DUP5 DUP5 SLOAD DUP2 DUP7 SSTORE DUP6 PUSH2 0x1B8E JUMP JUMPDEST ADD SWAP1 PUSH1 0x0 MSTORE DUP9 PUSH1 0x0 KECCAK256 DUP12 PUSH1 0x0 JUMPDEST DUP5 DUP2 LT PUSH2 0x13CE JUMPI POP POP POP POP POP PUSH1 0x4 ADD SWAP3 MLOAD SWAP2 DUP3 MLOAD SWAP5 DUP6 GT PUSH2 0x13B9 JUMPI DUP5 GT PUSH2 0x86D JUMPI POP DUP5 SWAP1 PUSH2 0x1345 DUP5 DUP5 SLOAD DUP2 DUP7 SSTORE DUP6 PUSH2 0x1B8E JUMP JUMPDEST ADD SWAP1 PUSH1 0x0 MSTORE DUP4 PUSH1 0x0 KECCAK256 PUSH1 0x0 JUMPDEST DUP4 DUP2 LT PUSH2 0x13A8 JUMPI PUSH2 0x13A3 DUP8 DUP8 DUP8 PUSH32 0x9E8874161504A858ACA0675F8A3AF6FAA4E6BB1A07B9AF0073503E8559DF7FDE PUSH1 0x2 SLOAD SWAP4 DUP5 SWAP3 PUSH2 0x139B PUSH1 0x40 MLOAD SWAP3 DUP4 SWAP3 DUP8 DUP5 MSTORE CALLER SWAP8 DUP5 ADD SWAP2 PUSH2 0x1BB1 JUMP JUMPDEST SUB SWAP1 LOG3 PUSH2 0x1BD2 JUMP JUMPDEST PUSH1 0x2 SSTORE STOP JUMPDEST DUP3 MLOAD DUP3 DUP3 ADD SSTORE SWAP2 DUP6 ADD SWAP2 DUP8 ADD PUSH2 0x1351 JUMP JUMPDEST POP PUSH4 0x4E487B71 PUSH1 0xE0 SHL PUSH1 0x0 SWAP1 DUP2 MSTORE PUSH1 0x41 PUSH1 0x4 MSTORE REVERT JUMPDEST DUP12 DUP5 MLOAD SWAP5 ADD SWAP4 DUP2 DUP5 ADD SSTORE ADD DUP13 SWAP1 PUSH2 0x1312 JUMP JUMPDEST DUP5 PUSH4 0x4E487B71 PUSH1 0xE0 SHL PUSH1 0x0 MSTORE PUSH1 0x41 PUSH1 0x4 MSTORE PUSH1 0x0 REVERT JUMPDEST DUP4 MLOAD PUSH1 0x1 PUSH1 0x1 PUSH1 0xA0 SHL SUB AND DUP4 DUP3 ADD SSTORE SWAP3 DUP13 ADD SWAP3 DUP15 SWAP2 ADD PUSH2 0x12D0 JUMP JUMPDEST DUP6 PUSH4 0x4E487B71 PUSH1 0xE0 SHL PUSH1 0x0 MSTORE PUSH1 0x41 PUSH1 0x4 MSTORE PUSH1 0x0 REVERT JUMPDEST PUSH2 0x1443 PUSH2 0x147C SWAP4 PUSH1 0x40 MLOAD SWAP4 PUSH2 0x1439 DUP6 PUSH2 0x183D JUMP JUMPDEST CALLER DUP6 MSTORE CALLDATASIZE SWAP2 PUSH2 0x197A JUMP JUMPDEST DUP3 DUP9 ADD SWAP1 DUP2 MSTORE CALLER PUSH1 0x0 SWAP1 DUP2 MSTORE PUSH1 0x8 DUP10 MSTORE PUSH1 0x40 SWAP1 KECCAK256 SWAP3 MLOAD DUP4 SLOAD PUSH1 0x1 PUSH1 0x1 PUSH1 0xA0 SHL SUB NOT AND PUSH1 0x1 PUSH1 0x1 PUSH1 0xA0 SHL SUB SWAP2 SWAP1 SWAP2 AND OR DUP4 SSTORE MLOAD SWAP2 ADD PUSH2 0x1A66 JUMP JUMPDEST DUP7 DUP1 DUP8 PUSH2 0x11EE JUMP JUMPDEST PUSH1 0x64 SWAP1 PUSH1 0x13 PUSH1 0x40 MLOAD SWAP2 PUSH3 0x461BCD PUSH1 0xE5 SHL DUP4 MSTORE PUSH1 0x20 PUSH1 0x4 DUP5 ADD MSTORE DUP3 ADD MSTORE PUSH19 0x13DDDB995C881B985B59481C995C5D5A5C9959 PUSH1 0x6A SHL PUSH1 0x44 DUP3 ADD MSTORE REVERT JUMPDEST PUSH1 0x64 SWAP1 PUSH1 0x12 PUSH1 0x40 MLOAD SWAP2 PUSH3 0x461BCD PUSH1 0xE5 SHL DUP4 MSTORE PUSH1 0x20 PUSH1 0x4 DUP5 ADD MSTORE DUP3 ADD MSTORE PUSH18 0x151C9A5C081B985B59481C995C5D5A5C9959 PUSH1 0x72 SHL PUSH1 0x44 DUP3 ADD MSTORE REVERT JUMPDEST CALLVALUE PUSH2 0x15E JUMPI PUSH1 0x20 CALLDATASIZE PUSH1 0x3 NOT ADD SLT PUSH2 0x15E JUMPI PUSH1 0x4 CALLDATALOAD PUSH1 0x0 SLOAD DUP2 LT ISZERO PUSH2 0x15E JUMPI PUSH2 0x151E SWAP1 PUSH2 0x19C0 JUMP JUMPDEST PUSH2 0x1542 JUMPI PUSH2 0x152E PUSH2 0x15A SWAP2 PUSH2 0x18AF JUMP JUMPDEST PUSH1 0x40 MLOAD SWAP2 DUP3 SWAP2 PUSH1 0x20 DUP4 MSTORE PUSH1 0x20 DUP4 ADD SWAP1 PUSH2 0x173C JUMP JUMPDEST PUSH4 0x4E487B71 PUSH1 0xE0 SHL PUSH1 0x0 MSTORE PUSH1 0x0 PUSH1 0x4 MSTORE PUSH1 0x24 PUSH1 0x0 REVERT JUMPDEST CALLVALUE PUSH2 0x15E JUMPI PUSH1 0x20 CALLDATASIZE PUSH1 0x3 NOT ADD SLT PUSH2 0x15E JUMPI PUSH2 0xE47 PUSH1 0x4 CALLDATALOAD PUSH2 0x1D55 JUMP JUMPDEST CALLVALUE PUSH2 0x15E JUMPI PUSH1 0x20 CALLDATASIZE PUSH1 0x3 NOT ADD SLT PUSH2 0x15E JUMPI PUSH1 0x4 CALLDATALOAD PUSH1 0x1 PUSH1 0x1 PUSH1 0x40 SHL SUB DUP2 GT PUSH2 0x15E JUMPI CALLDATASIZE PUSH1 0x23 DUP3 ADD SLT ISZERO PUSH2 0x15E JUMPI PUSH2 0x15B5 SWAP1 CALLDATASIZE SWAP1 PUSH1 0x24 DUP2 PUSH1 0x4 ADD CALLDATALOAD SWAP2 ADD PUSH2 0x197A JUMP JUMPDEST PUSH1 0x0 SLOAD PUSH1 0x1 PUSH1 0x40 SHL DUP2 LT ISZERO PUSH2 0x37E JUMPI DUP1 PUSH1 0x1 PUSH2 0x15D4 SWAP3 ADD PUSH1 0x0 SSTORE PUSH2 0x19C0 JUMP JUMPDEST SWAP2 SWAP1 SWAP2 PUSH2 0x1542 JUMPI PUSH2 0xE47 SWAP2 PUSH2 0x1A66 JUMP JUMPDEST CALLVALUE PUSH2 0x15E JUMPI PUSH1 0x20 CALLDATASIZE PUSH1 0x3 NOT ADD SLT PUSH2 0x15E JUMPI PUSH1 0x4 CALLDATALOAD PUSH2 0x1605 PUSH1 0x2 SLOAD DUP3 LT PUSH2 0x1BE1 JUMP JUMPDEST PUSH1 0x0 MSTORE PUSH1 0x5 PUSH1 0x20 MSTORE PUSH1 0x40 PUSH1 0x0 KECCAK256 PUSH1 0x0 SWAP1 PUSH1 0x0 SWAP2 PUSH1 0x2 DUP3 ADD SWAP3 DUP4 SLOAD SWAP1 JUMPDEST DUP2 DUP2 LT PUSH2 0x1700 JUMPI JUMPDEST POP POP ISZERO PUSH2 0x16B1 JUMPI PUSH2 0x15A DUP2 SLOAD SWAP2 PUSH2 0x16A3 PUSH2 0x164E PUSH2 0x1648 PUSH1 0x1 DUP5 ADD PUSH2 0x18AF JUMP JUMPDEST SWAP6 PUSH2 0x1C6C JUMP JUMPDEST SWAP2 PUSH2 0x1695 PUSH2 0x166A PUSH1 0x4 PUSH2 0x1663 PUSH1 0x3 DUP6 ADD PUSH2 0x1CC4 JUMP JUMPDEST SWAP4 ADD PUSH2 0x1CC4 JUMP JUMPDEST SWAP4 PUSH2 0x1687 PUSH1 0x40 MLOAD SWAP9 DUP10 SWAP9 DUP10 MSTORE PUSH1 0xA0 PUSH1 0x20 DUP11 ADD MSTORE PUSH1 0xA0 DUP10 ADD SWAP1 PUSH2 0x173C JUMP JUMPDEST SWAP1 DUP8 DUP3 SUB PUSH1 0x40 DUP10 ADD MSTORE PUSH2 0x177C JUMP JUMPDEST SWAP1 DUP6 DUP3 SUB PUSH1 0x60 DUP8 ADD MSTORE PUSH2 0x17B9 JUMP JUMPDEST SWAP1 DUP4 DUP3 SUB PUSH1 0x80 DUP6 ADD MSTORE PUSH2 0x17B9 JUMP JUMPDEST PUSH1 0x40 MLOAD PUSH3 0x461BCD PUSH1 0xE5 SHL DUP2 MSTORE PUSH1 0x20 PUSH1 0x4 DUP3 ADD MSTORE PUSH1 0x21 PUSH1 0x24 DUP3 ADD MSTORE PUSH32 0x596F7520617265206E6F7420696E766F6C76656420696E207468697320747269 PUSH1 0x44 DUP3 ADD MSTORE PUSH1 0x7 PUSH1 0xFC SHL PUSH1 0x64 DUP3 ADD MSTORE PUSH1 0x84 SWAP1 REVERT JUMPDEST PUSH2 0x170A DUP2 DUP7 PUSH2 0x1A0A JUMP JUMPDEST SWAP1 SLOAD PUSH1 0x3 SWAP2 SWAP1 SWAP2 SHL SHR PUSH1 0x1 PUSH1 0x1 PUSH1 0xA0 SHL SUB AND CALLER EQ PUSH2 0x1730 JUMPI PUSH2 0x172B SWAP1 PUSH2 0x1BD2 JUMP JUMPDEST PUSH2 0x1621 JUMP JUMPDEST POP POP POP PUSH1 0x1 DUP4 DUP1 PUSH2 0x1629 JUMP JUMPDEST SWAP2 SWAP1 DUP3 MLOAD SWAP3 DUP4 DUP3 MSTORE PUSH1 0x0 JUMPDEST DUP5 DUP2 LT PUSH2 0x1768 JUMPI POP POP DUP3 PUSH1 0x0 PUSH1 0x20 DUP1 SWAP5 SWAP6 DUP5 ADD ADD MSTORE PUSH1 0x1F DUP1 NOT SWAP2 ADD AND ADD ADD SWAP1 JUMP JUMPDEST PUSH1 0x20 DUP2 DUP4 ADD DUP2 ADD MLOAD DUP5 DUP4 ADD DUP3 ADD MSTORE ADD PUSH2 0x1747 JUMP JUMPDEST SWAP1 DUP2 MLOAD DUP1 DUP3 MSTORE PUSH1 0x20 DUP1 DUP1 SWAP4 ADD SWAP4 ADD SWAP2 PUSH1 0x0 JUMPDEST DUP3 DUP2 LT PUSH2 0x179C JUMPI POP POP POP POP SWAP1 JUMP JUMPDEST DUP4 MLOAD PUSH1 0x1 PUSH1 0x1 PUSH1 0xA0 SHL SUB AND DUP6 MSTORE SWAP4 DUP2 ADD SWAP4 SWAP3 DUP2 ADD SWAP3 PUSH1 0x1 ADD PUSH2 0x178E JUMP JUMPDEST SWAP1 DUP2 MLOAD DUP1 DUP3 MSTORE PUSH1 0x20 DUP1 DUP1 SWAP4 ADD SWAP4 ADD SWAP2 PUSH1 0x0 JUMPDEST DUP3 DUP2 LT PUSH2 0x17D9 JUMPI POP POP POP POP SWAP1 JUMP JUMPDEST DUP4 MLOAD DUP6 MSTORE SWAP4 DUP2 ADD SWAP4 SWAP3 DUP2 ADD SWAP3 PUSH1 0x1 ADD PUSH2 0x17CB JUMP JUMPDEST PUSH1 0x4 CALLDATALOAD SWAP1 PUSH1 0x1 PUSH1 0x1 PUSH1 0xA0 SHL SUB DUP3 AND DUP3 SUB PUSH2 0x15E JUMPI JUMP JUMPDEST SWAP1 PUSH1 0x1 DUP3 DUP2 SHR SWAP3 AND DUP1 ISZERO PUSH2 0x1833 JUMPI JUMPDEST PUSH1 0x20 DUP4 LT EQ PUSH2 0x181D JUMPI JUMP JUMPDEST PUSH4 0x4E487B71 PUSH1 0xE0 SHL PUSH1 0x0 MSTORE PUSH1 0x22 PUSH1 0x4 MSTORE PUSH1 0x24 PUSH1 0x0 REVERT JUMPDEST SWAP2 PUSH1 0x7F AND SWAP2 PUSH2 0x1812 JUMP JUMPDEST PUSH1 0x40 DUP2 ADD SWAP1 DUP2 LT PUSH1 0x1 PUSH1 0x1 PUSH1 0x40 SHL SUB DUP3 GT OR PUSH2 0x37E JUMPI PUSH1 0x40 MSTORE JUMP JUMPDEST PUSH1 0xC0 DUP2 ADD SWAP1 DUP2 LT PUSH1 0x1 PUSH1 0x1 PUSH1 0x40 SHL SUB DUP3 GT OR PUSH2 0x37E JUMPI PUSH1 0x40 MSTORE JUMP JUMPDEST PUSH1 0x20 DUP2 ADD SWAP1 DUP2 LT PUSH1 0x1 PUSH1 0x1 PUSH1 0x40 SHL SUB DUP3 GT OR PUSH2 0x37E JUMPI PUSH1 0x40 MSTORE JUMP JUMPDEST SWAP1 PUSH1 0x1F DUP1 NOT SWAP2 ADD AND DUP2 ADD SWAP1 DUP2 LT PUSH1 0x1 PUSH1 0x1 PUSH1 0x40 SHL SUB DUP3 GT OR PUSH2 0x37E JUMPI PUSH1 0x40 MSTORE JUMP JUMPDEST SWAP1 PUSH1 0x40 MLOAD SWAP2 DUP3 PUSH1 0x0 DUP3 SLOAD SWAP3 PUSH2 0x18C3 DUP5 PUSH2 0x1803 JUMP JUMPDEST SWAP1 DUP2 DUP5 MSTORE PUSH1 0x1 SWAP5 DUP6 DUP2 AND SWAP1 DUP2 PUSH1 0x0 EQ PUSH2 0x1932 JUMPI POP PUSH1 0x1 EQ PUSH2 0x18EF JUMPI JUMPDEST POP POP PUSH2 0x18ED SWAP3 POP SUB DUP4 PUSH2 0x188E JUMP JUMPDEST JUMP JUMPDEST SWAP1 SWAP4 SWAP2 POP PUSH1 0x0 MSTORE PUSH1 0x20 SWAP1 DUP2 PUSH1 0x0 KECCAK256 SWAP4 PUSH1 0x0 SWAP2 JUMPDEST DUP2 DUP4 LT PUSH2 0x191A JUMPI POP POP PUSH2 0x18ED SWAP4 POP DUP3 ADD ADD CODESIZE DUP1 PUSH2 0x18DF JUMP JUMPDEST DUP6 SLOAD DUP9 DUP5 ADD DUP6 ADD MSTORE SWAP5 DUP6 ADD SWAP5 DUP8 SWAP5 POP SWAP2 DUP4 ADD SWAP2 PUSH2 0x1902 JUMP JUMPDEST SWAP2 POP POP PUSH2 0x18ED SWAP5 POP PUSH1 0x20 SWAP3 POP PUSH1 0xFF NOT AND DUP3 DUP5 ADD MSTORE ISZERO ISZERO PUSH1 0x5 SHL DUP3 ADD ADD CODESIZE DUP1 PUSH2 0x18DF JUMP JUMPDEST PUSH1 0x1 PUSH1 0x1 PUSH1 0xA0 SHL SUB SWAP1 SWAP2 AND DUP2 MSTORE PUSH1 0x40 PUSH1 0x20 DUP3 ADD DUP2 SWAP1 MSTORE PUSH2 0x1977 SWAP3 SWAP2 ADD SWAP1 PUSH2 0x173C JUMP JUMPDEST SWAP1 JUMP JUMPDEST SWAP3 SWAP2 SWAP3 PUSH1 0x1 PUSH1 0x1 PUSH1 0x40 SHL SUB DUP3 GT PUSH2 0x37E JUMPI PUSH1 0x40 MLOAD SWAP2 PUSH2 0x19A3 PUSH1 0x1F DUP3 ADD PUSH1 0x1F NOT AND PUSH1 0x20 ADD DUP5 PUSH2 0x188E JUMP JUMPDEST DUP3 SWAP5 DUP2 DUP5 MSTORE DUP2 DUP4 ADD GT PUSH2 0x15E JUMPI DUP3 DUP2 PUSH1 0x20 SWAP4 DUP5 PUSH1 0x0 SWAP7 ADD CALLDATACOPY ADD ADD MSTORE JUMP JUMPDEST SWAP1 PUSH1 0x0 SWAP2 DUP3 SLOAD DUP2 LT ISZERO PUSH2 0x19F6 JUMPI DUP3 DUP1 MSTORE PUSH32 0x290DECD9548B62A8D60345A988386FC84BA6BC95484008F6362F93160EF3E563 ADD SWAP2 SWAP1 JUMP JUMPDEST PUSH4 0x4E487B71 PUSH1 0xE0 SHL DUP4 MSTORE PUSH1 0x32 PUSH1 0x4 MSTORE PUSH1 0x24 DUP4 REVERT JUMPDEST DUP1 SLOAD DUP3 LT ISZERO PUSH2 0x530 JUMPI PUSH1 0x0 MSTORE PUSH1 0x20 PUSH1 0x0 KECCAK256 ADD SWAP1 PUSH1 0x0 SWAP1 JUMP JUMPDEST SWAP2 DUP2 PUSH1 0x1F DUP5 ADD SLT ISZERO PUSH2 0x15E JUMPI DUP3 CALLDATALOAD SWAP2 PUSH1 0x1 PUSH1 0x1 PUSH1 0x40 SHL SUB DUP4 GT PUSH2 0x15E JUMPI PUSH1 0x20 DUP4 DUP2 DUP7 ADD SWAP6 ADD ADD GT PUSH2 0x15E JUMPI JUMP JUMPDEST DUP2 DUP2 LT PUSH2 0x1A5A JUMPI POP POP JUMP JUMPDEST PUSH1 0x0 DUP2 SSTORE PUSH1 0x1 ADD PUSH2 0x1A4F JUMP JUMPDEST SWAP2 SWAP1 SWAP2 DUP3 MLOAD PUSH1 0x1 PUSH1 0x1 PUSH1 0x40 SHL SUB DUP2 GT PUSH2 0x37E JUMPI PUSH2 0x1A83 DUP3 SLOAD PUSH2 0x1803 JUMP JUMPDEST PUSH1 0x1F DUP2 GT PUSH2 0x1B2D JUMPI JUMPDEST POP PUSH1 0x20 DUP1 PUSH1 0x1F DUP4 GT PUSH1 0x1 EQ PUSH2 0x1AC9 JUMPI POP DUP2 SWAP3 SWAP4 SWAP5 PUSH1 0x0 SWAP3 PUSH2 0x1ABE JUMPI JUMPDEST POP POP DUP2 PUSH1 0x1 SHL SWAP2 PUSH1 0x0 NOT SWAP1 PUSH1 0x3 SHL SHR NOT AND OR SWAP1 SSTORE JUMP JUMPDEST ADD MLOAD SWAP1 POP CODESIZE DUP1 PUSH2 0x1AA8 JUMP JUMPDEST SWAP1 PUSH1 0x1F NOT DUP4 AND SWAP6 DUP5 PUSH1 0x0 MSTORE DUP3 PUSH1 0x0 KECCAK256 SWAP3 PUSH1 0x0 SWAP1 JUMPDEST DUP9 DUP3 LT PUSH2 0x1B15 JUMPI POP POP DUP4 PUSH1 0x1 SWAP6 SWAP7 SWAP8 LT PUSH2 0x1AFC JUMPI JUMPDEST POP POP POP DUP2 SHL ADD SWAP1 SSTORE JUMP JUMPDEST ADD MLOAD PUSH1 0x0 NOT PUSH1 0xF8 DUP5 PUSH1 0x3 SHL AND SHR NOT AND SWAP1 SSTORE CODESIZE DUP1 DUP1 PUSH2 0x1AF2 JUMP JUMPDEST DUP1 PUSH1 0x1 DUP6 SWAP7 DUP3 SWAP5 SWAP7 DUP7 ADD MLOAD DUP2 SSTORE ADD SWAP6 ADD SWAP4 ADD SWAP1 PUSH2 0x1ADD JUMP JUMPDEST PUSH2 0x1B5A SWAP1 DUP4 PUSH1 0x0 MSTORE PUSH1 0x20 PUSH1 0x0 KECCAK256 PUSH1 0x1F DUP5 ADD PUSH1 0x5 SHR DUP2 ADD SWAP2 PUSH1 0x20 DUP6 LT PUSH2 0x1B60 JUMPI JUMPDEST PUSH1 0x1F ADD PUSH1 0x5 SHR ADD SWAP1 PUSH2 0x1A4F JUMP JUMPDEST CODESIZE PUSH2 0x1A8C JUMP JUMPDEST SWAP1 SWAP2 POP DUP2 SWAP1 PUSH2 0x1B4D JUMP JUMPDEST PUSH1 0x1 PUSH1 0x1 PUSH1 0x40 SHL SUB DUP2 GT PUSH2 0x37E JUMPI PUSH1 0x5 SHL PUSH1 0x20 ADD SWAP1 JUMP JUMPDEST DUP1 MLOAD ISZERO PUSH2 0x530 JUMPI PUSH1 0x20 ADD SWAP1 JUMP JUMPDEST SWAP2 DUP2 DUP2 LT PUSH2 0x1B9B JUMPI POP POP POP JUMP JUMPDEST PUSH2 0x18ED SWAP3 PUSH1 0x0 MSTORE PUSH1 0x20 PUSH1 0x0 KECCAK256 SWAP2 DUP3 ADD SWAP2 ADD PUSH2 0x1A4F JUMP JUMPDEST SWAP1 DUP1 PUSH1 0x20 SWAP4 SWAP3 DUP2 DUP5 MSTORE DUP5 DUP5 ADD CALLDATACOPY PUSH1 0x0 DUP3 DUP3 ADD DUP5 ADD MSTORE PUSH1 0x1F ADD PUSH1 0x1F NOT AND ADD ADD SWAP1 JUMP JUMPDEST PUSH1 0x0 NOT DUP2 EQ PUSH2 0xE49 JUMPI PUSH1 0x1 ADD SWAP1 JUMP JUMPDEST ISZERO PUSH2 0x1BE8 JUMPI JUMP JUMPDEST PUSH1 0x40 MLOAD PUSH3 0x461BCD PUSH1 0xE5 SHL DUP2 MSTORE PUSH1 0x20 PUSH1 0x4 DUP3 ADD MSTORE PUSH1 0x13 PUSH1 0x24 DUP3 ADD MSTORE PUSH19 0x151C9A5C08191BD95CC81B9BDD08195E1A5CDD PUSH1 0x6A SHL PUSH1 0x44 DUP3 ADD MSTORE PUSH1 0x64 SWAP1 REVERT JUMPDEST SWAP1 DUP2 SLOAD SWAP2 PUSH1 0x1 PUSH1 0x40 SHL DUP4 LT ISZERO PUSH2 0x37E JUMPI DUP3 PUSH2 0x1C46 SWAP2 PUSH1 0x1 PUSH2 0x18ED SWAP6 ADD DUP2 SSTORE PUSH2 0x1A0A JUMP JUMPDEST SWAP1 SWAP2 SWAP1 DUP3 SLOAD SWAP1 PUSH1 0x3 SHL SWAP2 DUP3 SHL SWAP2 PUSH1 0x0 NOT SWAP1 SHL NOT AND OR SWAP1 SSTORE JUMP JUMPDEST SWAP2 SWAP1 DUP3 SUB SWAP2 DUP3 GT PUSH2 0xE49 JUMPI JUMP JUMPDEST SWAP1 PUSH1 0x40 MLOAD SWAP2 DUP3 DUP2 SLOAD SWAP2 DUP3 DUP3 MSTORE PUSH1 0x20 SWAP3 DUP4 DUP4 ADD SWAP2 PUSH1 0x0 MSTORE DUP4 PUSH1 0x0 KECCAK256 SWAP4 PUSH1 0x0 SWAP1 JUMPDEST DUP3 DUP3 LT PUSH2 0x1CA1 JUMPI POP POP POP PUSH2 0x18ED SWAP3 POP SUB DUP4 PUSH2 0x188E JUMP JUMPDEST DUP6 SLOAD PUSH1 0x1 PUSH1 0x1 PUSH1 0xA0 SHL SUB AND DUP5 MSTORE PUSH1 0x1 SWAP6 DUP7 ADD SWAP6 DUP9 SWAP6 POP SWAP4 DUP2 ADD SWAP4 SWAP1 SWAP2 ADD SWAP1 PUSH2 0x1C8B JUMP JUMPDEST SWAP1 PUSH1 0x40 MLOAD SWAP2 DUP3 DUP2 SLOAD SWAP2 DUP3 DUP3 MSTORE PUSH1 0x20 SWAP3 DUP4 DUP4 ADD SWAP2 PUSH1 0x0 MSTORE DUP4 PUSH1 0x0 KECCAK256 SWAP4 PUSH1 0x0 SWAP1 JUMPDEST DUP3 DUP3 LT PUSH2 0x1CF9 JUMPI POP POP POP PUSH2 0x18ED SWAP3 POP SUB DUP4 PUSH2 0x188E JUMP JUMPDEST DUP6 SLOAD DUP5 MSTORE PUSH1 0x1 SWAP6 DUP7 ADD SWAP6 DUP9 SWAP6 POP SWAP4 DUP2 ADD SWAP4 SWAP1 SWAP2 ADD SWAP1 PUSH2 0x1CE3 JUMP JUMPDEST ISZERO PUSH2 0x1D1A JUMPI JUMP JUMPDEST PUSH1 0x40 MLOAD PUSH3 0x461BCD PUSH1 0xE5 SHL DUP2 MSTORE PUSH1 0x20 PUSH1 0x4 DUP3 ADD MSTORE PUSH1 0x13 PUSH1 0x24 DUP3 ADD MSTORE PUSH19 0x1119589D08191BD95CC81B9BDD08195E1A5CDD PUSH1 0x6A SHL PUSH1 0x44 DUP3 ADD MSTORE PUSH1 0x64 SWAP1 REVERT JUMPDEST PUSH2 0x1D62 PUSH1 0x2 SLOAD DUP3 LT PUSH2 0x1BE1 JUMP JUMPDEST PUSH1 0x0 MSTORE PUSH1 0x5 PUSH1 0x20 MSTORE PUSH1 0x40 PUSH1 0x0 KECCAK256 PUSH1 0x0 PUSH1 0x40 MLOAD PUSH2 0x1D7D DUP2 PUSH2 0x1873 JUMP JUMPDEST MSTORE PUSH1 0x4 DUP2 ADD SLOAD PUSH1 0x0 PUSH1 0x4 DUP4 ADD SSTORE DUP1 PUSH2 0x216A JUMPI JUMPDEST POP PUSH1 0x4 DUP2 ADD PUSH1 0x0 MSTORE PUSH1 0x0 SWAP2 JUMPDEST PUSH1 0x3 DUP3 ADD SLOAD DUP4 LT ISZERO PUSH2 0x2165 JUMPI PUSH2 0x1DB5 DUP4 PUSH1 0x3 DUP5 ADD PUSH2 0x1A0A JUMP JUMPDEST SWAP1 SLOAD SWAP1 PUSH1 0x3 SHL SHR PUSH1 0x0 MSTORE PUSH1 0x6 PUSH1 0x20 MSTORE PUSH1 0x40 PUSH1 0x0 KECCAK256 SWAP1 PUSH1 0x0 JUMPDEST PUSH1 0x5 DUP4 ADD SLOAD SWAP1 DUP2 DUP2 LT ISZERO PUSH2 0x2152 JUMPI PUSH2 0x1DE8 DUP2 PUSH1 0x5 DUP7 ADD PUSH2 0x1A0A JUMP JUMPDEST SWAP1 SLOAD PUSH1 0x4 DUP7 ADD SLOAD PUSH1 0x3 SWAP3 SWAP1 SWAP3 SHL SHR PUSH1 0x1 PUSH1 0x1 PUSH1 0xA0 SHL SUB SWAP1 DUP2 AND SWAP2 AND DUP2 EQ PUSH2 0x2147 JUMPI PUSH1 0x1 DUP6 ADD SLOAD SWAP3 DUP1 ISZERO PUSH2 0x2131 JUMPI PUSH1 0x0 DUP1 JUMPDEST PUSH1 0x4 DUP10 ADD SLOAD DUP3 LT ISZERO PUSH2 0x212A JUMPI PUSH2 0x1E32 DUP3 PUSH1 0x4 DUP12 ADD PUSH2 0x1A0A JUMP JUMPDEST SWAP1 SLOAD SWAP1 PUSH1 0x3 SHL SHR PUSH1 0x0 MSTORE PUSH1 0x7 PUSH1 0x20 MSTORE PUSH1 0x40 PUSH1 0x0 KECCAK256 SWAP2 PUSH1 0x1 DUP4 ADD PUSH1 0x1 DUP1 PUSH1 0xA0 SHL SUB DUP2 SLOAD AND DUP7 DUP2 EQ DUP1 PUSH2 0x210C JUMPI JUMPDEST ISZERO PUSH2 0x1F5D JUMPI POP POP POP POP PUSH1 0x3 DUP2 ADD SLOAD DUP3 DUP7 DIV DUP2 ADD DUP2 GT PUSH2 0xE49 JUMPI PUSH1 0x3 SWAP1 DUP4 DUP8 DIV ADD SWAP2 ADD SSTORE PUSH1 0x1 JUMPDEST PUSH2 0x1F51 JUMPI PUSH1 0x4 SLOAD SWAP4 PUSH1 0x1 DUP1 PUSH1 0xA0 SHL SUB PUSH1 0x4 DUP9 ADD SLOAD AND PUSH1 0x40 MLOAD SWAP4 DUP5 PUSH1 0x80 DUP2 ADD LT PUSH1 0x1 PUSH1 0x1 PUSH1 0x40 SHL SUB PUSH1 0x80 DUP8 ADD GT OR PUSH2 0x37E JUMPI PUSH2 0x1F4C SWAP7 PUSH1 0x3 SWAP5 PUSH1 0x80 DUP8 ADD PUSH1 0x40 MSTORE DUP2 DUP8 MSTORE PUSH1 0x20 DUP8 ADD SWAP3 DUP4 MSTORE PUSH1 0x40 DUP8 ADD SWAP4 DUP5 MSTORE PUSH1 0x60 DUP8 ADD SWAP5 DIV DUP5 MSTORE PUSH1 0x0 MSTORE PUSH1 0x7 PUSH1 0x20 MSTORE PUSH1 0x40 PUSH1 0x0 KECCAK256 SWAP5 MLOAD DUP6 SSTORE PUSH1 0x1 DUP6 ADD SWAP1 PUSH1 0x1 DUP1 PUSH1 0xA0 SHL SUB SWAP1 MLOAD AND SWAP1 PUSH1 0x1 PUSH1 0x1 PUSH1 0x60 SHL SUB PUSH1 0xA0 SHL SWAP2 DUP3 DUP3 SLOAD AND OR SWAP1 SSTORE PUSH1 0x2 DUP6 ADD SWAP2 PUSH1 0x1 DUP1 PUSH1 0xA0 SHL SUB SWAP1 MLOAD AND SWAP1 DUP3 SLOAD AND OR SWAP1 SSTORE MLOAD SWAP2 ADD SSTORE PUSH2 0x1F39 PUSH1 0x4 SLOAD PUSH1 0x4 DUP8 ADD PUSH2 0x1C23 JUMP JUMPDEST PUSH2 0x1F44 PUSH1 0x4 SLOAD PUSH2 0x1BD2 JUMP JUMPDEST PUSH1 0x4 SSTORE PUSH2 0x1BD2 JUMP JUMPDEST PUSH2 0x1DCD JUMP JUMPDEST POP POP PUSH2 0x1F4C SWAP2 POP PUSH2 0x1BD2 JUMP JUMPDEST PUSH1 0x4 DUP12 ADD SLOAD SWAP4 SWAP5 SWAP3 SWAP4 PUSH1 0x1 PUSH1 0x1 PUSH1 0xA0 SHL SUB AND EQ DUP1 PUSH2 0x20F6 JUMPI JUMPDEST PUSH2 0x1F8B JUMPI POP POP PUSH2 0x1F85 SWAP1 PUSH2 0x1BD2 JUMP JUMPDEST SWAP1 PUSH2 0x1E19 JUMP JUMPDEST SWAP1 SWAP3 POP PUSH1 0x3 DUP4 ADD SWAP3 DUP4 SLOAD SWAP3 DUP6 DUP10 DIV SWAP4 DUP5 DUP2 GT PUSH1 0x0 EQ PUSH2 0x1FBC JUMPI POP POP POP POP PUSH2 0x1FB3 SWAP1 DUP3 SLOAD PUSH2 0x1C5F JUMP JUMPDEST SWAP1 SSTORE PUSH1 0x1 PUSH2 0x1E84 JUMP JUMPDEST DUP5 GT ISZERO PUSH2 0x2000 JUMPI POP DUP2 SLOAD PUSH1 0x1 PUSH1 0x1 PUSH1 0xA0 SHL SUB NOT SWAP1 DUP2 AND DUP8 OR SWAP1 SWAP3 SSTORE PUSH1 0x4 DUP11 ADD SLOAD PUSH1 0x2 SWAP1 SWAP2 ADD DUP1 SLOAD SWAP1 SWAP3 AND PUSH1 0x1 PUSH1 0x1 PUSH1 0xA0 SHL SUB SWAP2 SWAP1 SWAP2 AND OR SWAP1 SSTORE DUP2 SLOAD PUSH2 0x1FB3 SWAP2 PUSH2 0x1C5F JUMP JUMPDEST SWAP11 SWAP8 SWAP7 SWAP10 SWAP9 SWAP5 SWAP6 SWAP12 SWAP4 POP POP POP POP PUSH1 0x1 SWAP2 PUSH1 0x0 JUMPDEST PUSH1 0x4 DUP8 ADD SLOAD DUP1 DUP3 LT ISZERO PUSH2 0x20E6 JUMPI PUSH2 0x202D DUP3 PUSH1 0x4 DUP11 ADD PUSH2 0x1A0A JUMP JUMPDEST SWAP1 SLOAD SWAP1 PUSH1 0x3 SHL SHR PUSH2 0x2041 DUP13 PUSH1 0x4 DUP12 ADD PUSH2 0x1A0A JUMP JUMPDEST SWAP1 SLOAD SWAP1 PUSH1 0x3 SHL SHR EQ PUSH2 0x205C JUMPI POP PUSH2 0x2057 SWAP1 PUSH2 0x1BD2 JUMP JUMPDEST PUSH2 0x2013 JUMP JUMPDEST DUP1 SWAP3 SWAP9 SWAP10 SWAP7 SWAP8 SWAP11 POP PUSH1 0x0 SWAP12 SWAP6 SWAP5 SWAP4 SWAP12 NOT DUP2 ADD GT PUSH2 0xE49 JUMPI PUSH2 0x1C46 PUSH2 0x208A PUSH2 0x209B SWAP4 PUSH1 0x0 NOT ADD PUSH1 0x4 DUP14 ADD PUSH2 0x1A0A JUMP JUMPDEST SWAP1 SLOAD SWAP1 PUSH1 0x3 SHL SHR SWAP2 PUSH1 0x4 DUP13 ADD PUSH2 0x1A0A JUMP JUMPDEST PUSH1 0x4 DUP9 ADD SLOAD DUP1 ISZERO PUSH2 0x20D0 JUMPI PUSH1 0x0 NOT ADD PUSH2 0x20B7 DUP2 PUSH1 0x4 DUP12 ADD PUSH2 0x1A0A JUMP JUMPDEST DUP2 SLOAD SWAP1 PUSH1 0x0 NOT SWAP1 PUSH1 0x3 SHL SHL NOT AND SWAP1 SSTORE PUSH1 0x4 DUP10 ADD SSTORE PUSH2 0x1E84 JUMP JUMPDEST PUSH4 0x4E487B71 PUSH1 0xE0 SHL PUSH1 0x0 MSTORE PUSH1 0x31 PUSH1 0x4 MSTORE PUSH1 0x24 PUSH1 0x0 REVERT JUMPDEST POP POP SWAP6 SWAP7 SWAP4 SWAP5 SWAP8 POP SWAP8 SWAP2 SWAP1 PUSH2 0x1E84 JUMP JUMPDEST POP PUSH1 0x2 DUP3 ADD SLOAD PUSH1 0x1 PUSH1 0x1 PUSH1 0xA0 SHL SUB AND DUP7 EQ PUSH2 0x1F76 JUMP JUMPDEST POP PUSH1 0x2 DUP6 ADD SLOAD PUSH1 0x4 DUP13 ADD SLOAD PUSH1 0x1 PUSH1 0x1 PUSH1 0xA0 SHL SUB SWAP1 DUP2 AND SWAP2 AND EQ PUSH2 0x1E5E JUMP JUMPDEST SWAP1 POP PUSH2 0x1E84 JUMP JUMPDEST PUSH4 0x4E487B71 PUSH1 0xE0 SHL PUSH1 0x0 MSTORE PUSH1 0x12 PUSH1 0x4 MSTORE PUSH1 0x24 PUSH1 0x0 REVERT JUMPDEST POP PUSH2 0x1F4C SWAP2 POP PUSH2 0x1BD2 JUMP JUMPDEST POP POP SWAP3 PUSH2 0x215F SWAP2 POP PUSH2 0x1BD2 JUMP JUMPDEST SWAP2 PUSH2 0x1D9C JUMP JUMPDEST SWAP2 POP POP JUMP JUMPDEST PUSH2 0x2183 SWAP1 PUSH1 0x4 DUP4 ADD PUSH1 0x0 MSTORE PUSH1 0x20 PUSH1 0x0 KECCAK256 SWAP1 DUP2 ADD SWAP1 PUSH2 0x1A4F JUMP JUMPDEST CODESIZE PUSH2 0x1D90 JUMP INVALID LOG2 PUSH5 0x6970667358 0x22 SLT KECCAK256 EXTCODESIZE CALLER 0x24 PUSH9 0xF4FA235A88E4C8940A JUMPDEST CALLDATALOAD 0xD4 EQ 0xD2 0xCF SLOAD 0x4D 0xF7 SUB 0xD3 CALLVALUE LOG3 0x29 SWAP15 DUP14 0xA6 0x4B RETURN PUSH5 0x736F6C6343 STOP ADDMOD EQ STOP CALLER "
        },
        "methodIdentifiers": {
          "AddExpense(uint256,uint256,string,address,address[])": "91511c22",
          "AddPerson(uint256,address,string)": "b8dd803c",
          "AddTrip(string,string)": "527fb137",
          "addName(string)": "11456b47",
          "calculateDebts(uint256)": "2fd812db",
          "debt_id_count()": "b491e097",
          "debts(uint256)": "85af9b3f",
          "expense_id_count()": "d75d62e5",
          "expenses(uint256)": "af4afe0a",
          "getDebt(uint256)": "c9dd1f3c",
          "getExpense(uint256)": "735e5db6",
          "getNames()": "cd838f0f",
          "getPerson(address)": "552d2d5c",
          "getTrip(uint256)": "01011705",
          "getUserTripIds()": "f19f185e",
          "names(uint256)": "4622ab03",
          "owner()": "8da5cb5b",
          "people(address)": "07de9735",
          "random_number()": "60a59bdb",
          "settleDebt(uint256,uint256)": "f48bdc8d",
          "trip_id_count()": "56169182",
          "trips(uint256)": "f6824a7c"
        }
      }
    }
  }
}