{
  "_format": "hh-sol-artifact-1",
  "contractName": "Dxpense",
  "sourceName": "contracts/Dxpense.sol",
  "abi": [
    {
      "inputs": [
        {
          "internalType": "string",
          "name": "name",
          "type": "string"
        }
      ],
      "name": "addName",
      "outputs": [],
      "stateMutability": "nonpayable",
      "type": "function"
    },
    {
      "inputs": [],
      "name": "getNames",
      "outputs": [
        {
          "internalType": "string[]",
          "name": "",
          "type": "string[]"
        }
      ],
      "stateMutability": "view",
      "type": "function"
    },
    {
      "inputs": [
        {
          "internalType": "uint256",
          "name": "",
          "type": "uint256"
        }
      ],
      "name": "names",
      "outputs": [
        {
          "internalType": "string",
          "name": "",
          "type": "string"
        }
      ],
      "stateMutability": "view",
      "type": "function"
    },
    {
      "inputs": [],
      "name": "owner",
      "outputs": [
        {
          "internalType": "address",
          "name": "",
          "type": "address"
        }
      ],
      "stateMutability": "view",
      "type": "function"
    },
    {
      "inputs": [],
      "name": "random_number",
      "outputs": [
        {
          "internalType": "int16",
          "name": "",
          "type": "int16"
        }
      ],
      "stateMutability": "view",
      "type": "function"
    }
  ],
  "bytecode": "0x608060405260405180606001604052806040518060400160405280600581526020017f416c69636500000000000000000000000000000000000000000000000000000081525081526020016040518060400160405280600381526020017f426f62000000000000000000000000000000000000000000000000000000000081525081526020016040518060400160405280600781526020017f436861726c69650000000000000000000000000000000000000000000000000081525081525060009060036100ce929190610102565b506019600160006101000a81548161ffff021916908360010b61ffff1602179055503480156100fc57600080fd5b506104fe565b82805482825590600052602060002090810192821561014a579160200282015b82811115610149578251829081610139919061042c565b5091602001919060010190610122565b5b509050610157919061015b565b5090565b5b8082111561017b5760008181610172919061017f565b5060010161015c565b5090565b50805461018b90610245565b6000825580601f1061019d57506101bc565b601f0160209004906000526020600020908101906101bb91906101bf565b5b50565b5b808211156101d85760008160009055506001016101c0565b5090565b600081519050919050565b7f4e487b7100000000000000000000000000000000000000000000000000000000600052604160045260246000fd5b7f4e487b7100000000000000000000000000000000000000000000000000000000600052602260045260246000fd5b6000600282049050600182168061025d57607f821691505b6020821081036102705761026f610216565b5b50919050565b60008190508160005260206000209050919050565b60006020601f8301049050919050565b600082821b905092915050565b6000600883026102d87fffffffffffffffffffffffffffffffffffffffffffffffffffffffffffffffff8261029b565b6102e2868361029b565b95508019841693508086168417925050509392505050565b6000819050919050565b6000819050919050565b600061032961032461031f846102fa565b610304565b6102fa565b9050919050565b6000819050919050565b6103438361030e565b61035761034f82610330565b8484546102a8565b825550505050565b600090565b61036c61035f565b61037781848461033a565b505050565b5b8181101561039b57610390600082610364565b60018101905061037d565b5050565b601f8211156103e0576103b181610276565b6103ba8461028b565b810160208510156103c9578190505b6103dd6103d58561028b565b83018261037c565b50505b505050565b600082821c905092915050565b6000610403600019846008026103e5565b1980831691505092915050565b600061041c83836103f2565b9150826002028217905092915050565b610435826101dc565b67ffffffffffffffff81111561044e5761044d6101e7565b5b6104588254610245565b61046382828561039f565b600060209050601f8311600181146104965760008415610484578287015190505b61048e8582610410565b8655506104f6565b601f1984166104a486610276565b60005b828110156104cc578489015182556001820191506020850194506020810190506104a7565b868310156104e957848901516104e5601f8916826103f2565b8355505b6001600288020188555050505b505050505050565b610a748061050d6000396000f3fe608060405234801561001057600080fd5b50600436106100575760003560e01c806311456b471461005c5780634622ab031461007857806360a59bdb146100a85780638da5cb5b146100c6578063cd838f0f146100e4575b600080fd5b61007660048036038101906100719190610452565b610102565b005b610092600480360381019061008d91906104d1565b61013a565b60405161009f919061057d565b60405180910390f35b6100b06101e6565b6040516100bd91906105bb565b60405180910390f35b6100ce6101f9565b6040516100db9190610617565b60405180910390f35b6100ec61021f565b6040516100f9919061073e565b60405180910390f35b600081908060018154018082558091505060019003906000526020600020016000909190919091509081610136919061096c565b5050565b6000818154811061014a57600080fd5b9060005260206000200160009150905080546101659061078f565b80601f01602080910402602001604051908101604052809291908181526020018280546101919061078f565b80156101de5780601f106101b3576101008083540402835291602001916101de565b820191906000526020600020905b8154815290600101906020018083116101c157829003601f168201915b505050505081565b600160009054906101000a900460010b81565b600160029054906101000a900473ffffffffffffffffffffffffffffffffffffffff1681565b60606000805480602002602001604051908101604052809291908181526020016000905b828210156102ef5783829060005260206000200180546102629061078f565b80601f016020809104026020016040519081016040528092919081815260200182805461028e9061078f565b80156102db5780601f106102b0576101008083540402835291602001916102db565b820191906000526020600020905b8154815290600101906020018083116102be57829003601f168201915b505050505081526020019060010190610243565b50505050905090565b6000604051905090565b600080fd5b600080fd5b600080fd5b600080fd5b6000601f19601f8301169050919050565b7f4e487b7100000000000000000000000000000000000000000000000000000000600052604160045260246000fd5b61035f82610316565b810181811067ffffffffffffffff8211171561037e5761037d610327565b5b80604052505050565b60006103916102f8565b905061039d8282610356565b919050565b600067ffffffffffffffff8211156103bd576103bc610327565b5b6103c682610316565b9050602081019050919050565b82818337600083830152505050565b60006103f56103f0846103a2565b610387565b90508281526020810184848401111561041157610410610311565b5b61041c8482856103d3565b509392505050565b600082601f8301126104395761043861030c565b5b81356104498482602086016103e2565b91505092915050565b60006020828403121561046857610467610302565b5b600082013567ffffffffffffffff81111561048657610485610307565b5b61049284828501610424565b91505092915050565b6000819050919050565b6104ae8161049b565b81146104b957600080fd5b50565b6000813590506104cb816104a5565b92915050565b6000602082840312156104e7576104e6610302565b5b60006104f5848285016104bc565b91505092915050565b600081519050919050565b600082825260208201905092915050565b60005b8381101561053857808201518184015260208101905061051d565b60008484015250505050565b600061054f826104fe565b6105598185610509565b935061056981856020860161051a565b61057281610316565b840191505092915050565b600060208201905081810360008301526105978184610544565b905092915050565b60008160010b9050919050565b6105b58161059f565b82525050565b60006020820190506105d060008301846105ac565b92915050565b600073ffffffffffffffffffffffffffffffffffffffff82169050919050565b6000610601826105d6565b9050919050565b610611816105f6565b82525050565b600060208201905061062c6000830184610608565b92915050565b600081519050919050565b600082825260208201905092915050565b6000819050602082019050919050565b600082825260208201905092915050565b600061067a826104fe565b610684818561065e565b935061069481856020860161051a565b61069d81610316565b840191505092915050565b60006106b4838361066f565b905092915050565b6000602082019050919050565b60006106d482610632565b6106de818561063d565b9350836020820285016106f08561064e565b8060005b8581101561072c578484038952815161070d85826106a8565b9450610718836106bc565b925060208a019950506001810190506106f4565b50829750879550505050505092915050565b6000602082019050818103600083015261075881846106c9565b905092915050565b7f4e487b7100000000000000000000000000000000000000000000000000000000600052602260045260246000fd5b600060028204905060018216806107a757607f821691505b6020821081036107ba576107b9610760565b5b50919050565b60008190508160005260206000209050919050565b60006020601f8301049050919050565b600082821b905092915050565b6000600883026108227fffffffffffffffffffffffffffffffffffffffffffffffffffffffffffffffff826107e5565b61082c86836107e5565b95508019841693508086168417925050509392505050565b6000819050919050565b600061086961086461085f8461049b565b610844565b61049b565b9050919050565b6000819050919050565b6108838361084e565b61089761088f82610870565b8484546107f2565b825550505050565b600090565b6108ac61089f565b6108b781848461087a565b505050565b5b818110156108db576108d06000826108a4565b6001810190506108bd565b5050565b601f821115610920576108f1816107c0565b6108fa846107d5565b81016020851015610909578190505b61091d610915856107d5565b8301826108bc565b50505b505050565b600082821c905092915050565b600061094360001984600802610925565b1980831691505092915050565b600061095c8383610932565b9150826002028217905092915050565b610975826104fe565b67ffffffffffffffff81111561098e5761098d610327565b5b610998825461078f565b6109a38282856108df565b600060209050601f8311600181146109d657600084156109c4578287015190505b6109ce8582610950565b865550610a36565b601f1984166109e4866107c0565b60005b82811015610a0c578489015182556001820191506020850194506020810190506109e7565b86831015610a295784890151610a25601f891682610932565b8355505b6001600288020188555050505b50505050505056fea2646970667358221220d26d78255dd9985b143e69823004e0333ca6f010a98e4ae8fa29883095721a2f64736f6c634300081c0033",
  "linkReferences": {},
  "deployedLinkReferences": {}
}