{
  "_format": "hh-sol-artifact-1",
  "contractName": "Dxpense",
  "sourceName": "contracts/Dxpense.sol",
  "abi": [
    {
      "inputs": [
        {
          "internalType": "uint256",
          "name": "trip_id",
          "type": "uint256"
        },
        {
          "internalType": "uint256",
          "name": "e_amount",
          "type": "uint256"
        },
        {
          "internalType": "string",
          "name": "e_name",
          "type": "string"
        },
        {
          "internalType": "string",
          "name": "e_expender",
          "type": "string"
        },
        {
          "internalType": "string[]",
          "name": "e_involved",
          "type": "string[]"
        }
      ],
      "name": "AddExpense",
      "outputs": [],
      "stateMutability": "nonpayable",
      "type": "function"
    },
    {
      "inputs": [
        {
          "internalType": "uint256",
          "name": "trip_id",
          "type": "uint256"
        },
        {
          "internalType": "address",
          "name": "p_address",
          "type": "address"
        },
        {
          "internalType": "string",
          "name": "p_name",
          "type": "string"
        }
      ],
      "name": "AddPerson",
      "outputs": [],
      "stateMutability": "nonpayable",
      "type": "function"
    },
    {
      "inputs": [
        {
          "internalType": "string",
          "name": "trip_name",
          "type": "string"
        },
        {
          "internalType": "string",
          "name": "owner_name",
          "type": "string"
        }
      ],
      "name": "AddTrip",
      "outputs": [],
      "stateMutability": "nonpayable",
      "type": "function"
    },
    {
      "inputs": [
        {
          "internalType": "string",
          "name": "name",
          "type": "string"
        }
      ],
      "name": "addName",
      "outputs": [],
      "stateMutability": "nonpayable",
      "type": "function"
    },
    {
      "inputs": [],
      "name": "getNames",
      "outputs": [
        {
          "internalType": "string[]",
          "name": "",
          "type": "string[]"
        }
      ],
      "stateMutability": "view",
      "type": "function"
    },
    {
      "inputs": [
        {
          "internalType": "uint256",
          "name": "",
          "type": "uint256"
        }
      ],
      "name": "names",
      "outputs": [
        {
          "internalType": "string",
          "name": "",
          "type": "string"
        }
      ],
      "stateMutability": "view",
      "type": "function"
    },
    {
      "inputs": [],
      "name": "owner",
      "outputs": [
        {
          "internalType": "address",
          "name": "",
          "type": "address"
        }
      ],
      "stateMutability": "view",
      "type": "function"
    },
    {
      "inputs": [],
      "name": "random_number",
      "outputs": [
        {
          "internalType": "int16",
          "name": "",
          "type": "int16"
        }
      ],
      "stateMutability": "view",
      "type": "function"
    }
  ],
  "bytecode": "0x6080346200028f576001600160401b03606082018181118382101762000279576040526200002c62000294565b9060059081835260209264416c69636560d81b8482015284526200004f62000294565b90600391828152622137b160e91b85820152848601526200006f62000294565b6007815266436861726c696560c81b858201526040860152600094855483875580841062000200575b5091908580528486209186935b818510620000cf5787601961ffff196001541617600155600255604051611ceb90816200030b8239f35b8051805190848211620001ec57908891620000eb8754620002b4565b908b601f9285848211620001b2575b5050508b84928411600114620001465792600195928192879695926200013a575b505060001982881b1c191690841b1787555b01940194019392620000a5565b0151905038806200011b565b50878c52838c209190601f1984168d5b81811062000199575091600196939185889796941062000180575b505050831b830187556200012d565b015160001983891b60f8161c1916905538808062000171565b8284015185558d96600190950194938401930162000156565b828b620001d9945220848d818801901c820192888810620001e2575b018d1c0190620002f1565b8b3885620000fa565b92508192620001ce565b634e487b7160e01b8a52604160045260248afd5b8680528386882091820191015b8181106200021c575062000098565b80886200022c60019354620002b4565b806200023c575b5050016200020d565b601f80821185146200025557505081555b883862000233565b6200026f908484528b842092018a1c8201858301620002f1565b818355556200024d565b634e487b7160e01b600052604160045260246000fd5b600080fd5b60408051919082016001600160401b038111838210176200027957604052565b90600182811c92168015620002e6575b6020831014620002d057565b634e487b7160e01b600052602260045260246000fd5b91607f1691620002c4565b818110620002fd575050565b60008155600101620002f156fe6080604052600436101561001257600080fd5b60003560e01c806311456b4714610cee5780633e77f51b14610ad85780634622ab0314610a89578063527fb1371461046c57806360a59bdb1461044b5780638da5cb5b1461041e578063b8dd803c1461015f5763cd838f0f1461007457600080fd5b3461015a57600036600319011261015a576000546100918161112b565b9061009f6040519283610d79565b8082526000808052602091828401917f290decd9548b62a8d60345a988386fc84ba6bc95484008f6362f93160ef3e563835b8383106101385750505050604051918083019381845251809452604083019360408160051b85010192916000955b82871061010c5785850386f35b909192938280610128600193603f198a82030186528851610f37565b96019201960195929190926100ff565b6001868192610149859a999a610e91565b8152019201920191909594956100d1565b600080fd5b3461015a57606036600319011261015a576001600160a01b03602480359182169182900361015a576001600160401b039060443582811161015a576101a8903690600401610de0565b926101b46004356111db565b50806005036103d8575b50604051936101cc85610d5e565b8585526101da368285610d9a565b6020908187015260075493600160401b96878610156103ae57600195868101806007558110156103c35790610237916007600052871b7fa66cc928b5edb82af9bd49922954155ab7b0942694bea4ce44661d9a8736c6880161109a565b600954878110156103ae5785810180600955811015610399576009600052600080516020611c9683398151915201938311610384579082916102838361027d8754610e57565b87610f8e565b600091601f841160011461031e5750600092610313575b5050600019600383901b1c191690831b1790555b600a54928310156102fe57820180600a558210156102ea5750600080516020611c768339815191520180546001600160a01b0319169091179055005b634e487b7160e01b60009081526032600452fd5b50634e487b7160e01b60009081526041600452fd5b01359050878061029a565b91869450601f1984168660005283600020936000905b82821061036b5750508411610351575b505050811b0190556102ae565b0135600019600384901b60f8161c19169055878080610344565b8385013586558997909501949283019290810190610334565b85634e487b7160e01b60005260416004526000fd5b86634e487b7160e01b60005260326004526000fd5b86634e487b7160e01b60005260416004526000fd5b87634e487b7160e01b60005260326004526000fd5b600581610418925482556103ee600182016113de565b6103fa600282016115dc565b61040660038201611782565b61041260048201611985565b01611a2e565b856101be565b3461015a57600036600319011261015a5760015460405160109190911c6001600160a01b03168152602090f35b3461015a57600036600319011261015a57602060015460010b604051908152f35b3461015a57604036600319011261015a576004356001600160401b03811161015a5761049c903690600401610de0565b906024356001600160401b03811161015a576104bc903690600401610de0565b9190600b5492600160401b841015610828576001840180600b558410156109fe57600b6000527f0175b7a638427703f0dbe7bb9bbf987a2551717b34e79f33b5b1008d1fa01db99384016001600160401b03821161082857610528826105228354610e57565b83610f8e565b816000601f8211600114610a1f57600091610a14575b508260011b906000198460031b1c19161790555b600c54600160401b811015610828576001810180600c558110156109fe576105d2926105c891600c6000527fdf6966c971051c3d54ec59162606531493a51404a002842f56009d7e5cf4a8c701336001600160601b0360a01b825416179055604051926105be84610d5e565b3384523691610d9a565b60208201526110ca565b600254906105df8261111c565b6002556040519360c08501928584106001600160401b038511176108285761060d9360405285523691610d9a565b602083015261061a611142565b6040830152606080830152600b546106318161112b565b9161063f6040519384610d79565b8183526020830190600b6000526000915b8383106109e1578585608082015260405180816020600c549283815201600c6000527fdf6966c971051c3d54ec59162606531493a51404a002842f56009d7e5cf4a8c79260005b8181106109bf5750506106ac92500382610d79565b60a0820152600354600160401b811015610828578060016106d092016003556111db565b6109a957815181556106e9602083015160018301610fd3565b60028101604083015190602082519261070284846112e8565b019060005260206000206000915b83831061098b5785856060820151805190600160401b82116108285760038301548260038501558083106108a8575b506020016003830160005260206000206000915b83831061088a57858560048101608083015190815191600160401b831161082857815483835580841061085b575b506020019060005260206000206000915b83831061083e5760a0860151805160058701916001600160401b03821161082857600160401b821161082857602090835483855580841061080b575b50019160005260206000209160005b8281106107ee576107ec61125f565b005b81516001600160a01b0316818501556020909101906001016107dd565b610822908560005284846000209182019101610f77565b846107ce565b634e487b7160e01b600052604160045260246000fd5b600160208261084f83945186610fd3565b01920192019190610792565b8260005283602060002091820191015b8181106108785750610781565b80610884600192611216565b0161086b565b600660208261089c6001945186611357565b01920192019190610753565b6006818102048103610975576006838102048303610975576003840160005260206000208360060281015b82600602820181106108e657505061073f565b60008155600060018201556108fd60028201611216565b6000600382015561091060048201611216565b6005810154600060058301558061092b575b506006016108d3565b6001600160ff1b0381168103610975576005820160005260206000209060011b8101905b81811061095c5750610922565b8060006002925561096f60018201611216565b0161094f565b634e487b7160e01b600052601160045260246000fd5b600260208261099d600194518661109a565b01920192019190610710565b634e487b7160e01b600052600060045260246000fd5b84546001600160a01b0316835260019485019486945060209093019201610697565b6001602081926109f085610e91565b815201920192019190610650565b634e487b7160e01b600052603260045260246000fd5b90508301358761053e565b6000838152602080822093508591601f198316915b828210610a6c57505010610a52575b5050600182811b019055610552565b840135600019600385901b60f8161c191690558680610a43565b80929350600185968293968b013581550195019301869291610a34565b3461015a57602036600319011261015a5760043560005481101561015a57610ab090610e0d565b6109a957610ac0610ad491610e91565b604051918291602083526020830190610f37565b0390f35b3461015a5760a036600319011261015a576004356001600160401b0360443581811161015a57610b0c903690600401610de0565b9160643581811161015a57610b25903690600401610de0565b9290936084359583871161015a573660238801121561015a57866004013584811161015a57602497888101908936918460051b01011161015a57610b68836111db565b5080600503610cd2575b50610ba3610b81888a86611b13565b9860405198610b8f8a610d5e565b6001600160a01b039a8b168a523691610d9a565b976020988989015260005b838110610c7d57505050506040519560a087019487861090861117610c6857610be294604052873587528601523691610d9a565b60408301526060820152610bf4611142565b608082015260085491600160401b831015610c545760018301806008558310156102ea57506006610c4c926008600052027ff3f7a9fe364faab93b216da50a3214154f22a0a2b415b23a84c8169e8b636ee301611357565b6107ec61125f565b634e487b7160e01b60009081526041600452fd5b87634e487b7160e01b60005260416004526000fd5b80610cc8610c99610c92610ccd948888611ad2565b9089611b13565b610cbf610ca7848989611ad2565b8760405194610cb586610d5e565b1684523691610d9a565b8d8201526110ca565b61111c565b610bae565b600581610ce8925482556103ee600182016113de565b89610b72565b3461015a57602036600319011261015a576004356001600160401b03811161015a573660238201121561015a57610d2f903690602481600401359101610d9a565b600054600160401b81101561082857806001610d4e9201600055610e0d565b9190916109a9576107ec91610fd3565b604081019081106001600160401b0382111761082857604052565b90601f801991011681019081106001600160401b0382111761082857604052565b9291926001600160401b0382116108285760405191610dc3601f8201601f191660200184610d79565b82948184528183011161015a578281602093846000960137010152565b9181601f8401121561015a578235916001600160401b03831161015a576020838186019501011161015a57565b906000918254811015610e43578280527f290decd9548b62a8d60345a988386fc84ba6bc95484008f6362f93160ef3e563019190565b634e487b7160e01b83526032600452602483fd5b90600182811c92168015610e87575b6020831014610e7157565b634e487b7160e01b600052602260045260246000fd5b91607f1691610e66565b9060405191826000825492610ea584610e57565b908184526001948581169081600014610f145750600114610ed1575b5050610ecf92500383610d79565b565b9093915060005260209081600020936000915b818310610efc575050610ecf93508201013880610ec1565b85548884018501529485019487945091830191610ee4565b915050610ecf94506020925060ff191682840152151560051b8201013880610ec1565b919082519283825260005b848110610f63575050826000602080949584010152601f8019910116010190565b602081830181015184830182015201610f42565b818110610f82575050565b60008155600101610f77565b9190601f8111610f9d57505050565b610ecf926000526020600020906020601f840160051c83019310610fc9575b601f0160051c0190610f77565b9091508190610fbc565b91909182516001600160401b03811161082857610ffa81610ff48454610e57565b84610f8e565b602080601f831160011461103657508192939460009261102b575b50508160011b916000199060031b1c1916179055565b015190503880611015565b90601f198316958460005282600020926000905b88821061108257505083600195969710611069575b505050811b019055565b015160001960f88460031b161c1916905538808061105f565b8060018596829496860151815501950193019061104a565b815181546001600160a01b0319166001600160a01b039190911617815560209190910151610ecf91600101610fd3565b60045490600160401b8210156108285760018201806004558210156109fe57610ecf91600460005260011b7f8a35acfbc15ff81a39ae7d344fd709f28e8600b4aa8c65c6b64bfe7fe36bd19b0161109a565b60001981146109755760010190565b6001600160401b0381116108285760051b60200190565b6004549061114f8261112b565b91604061115e81519485610d79565b8184528360208091019160046000527f8a35acfbc15ff81a39ae7d344fd709f28e8600b4aa8c65c6b64bfe7fe36bd19b906000935b8585106111a257505050505050565b60028460019284516111b381610d5e565b848060a01b0387541681526111c9858801610e91565b83820152815201930194019391611193565b6003548110156109fe576006906003600052027fc2575a0e9e593c00f959f8c92f12db2869c3395a3b0502d05e2516446f71f85b0190600090565b6112208154610e57565b908161122a575050565b81601f6000931160011461123c575055565b90808391825261125b601f60208420940160051c840160018501610f77565b5555565b60045460008060045581611271575050565b6001600160ff1b03821682036112d457600481526001907f8a35acfbc15ff81a39ae7d344fd709f28e8600b4aa8c65c6b64bfe7fe36bd19b92821b8301925b8381106112bd5750505050565b8082600292556112ce848201611216565b016112b0565b634e487b7160e01b81526011600452602490fd5b600160401b82116108285780549082815581831061130557505050565b6001600160ff1b038281168303610975578316830361097557600090815260208120600192831b810193831b015b8381106113405750505050565b808260029255611351848201611216565b01611333565b8151815560209081830151926001938483015560806005604083015193611382600295868301610fd3565b61139360608501516003830161109a565b0191015192808451946113a686856112e8565b0191600052806000206000925b8584106113c35750505050505050565b8483826113d28a94518661109a565b019201930192906113b3565b600690808214611524576113f28154610e57565b906001600160401b03821161082857819061140d8454610e57565b601f81116114d6575b50600090601f831160011461144d576000926114425750508160011b916000199060031b1c1916179055565b015490503880611015565b815260208082208583527ff652222313e28459528d920b65115c16c04f3efc82aaedc97be59f3f377c0d3f935090601f1985169083905b8282106114bd5750509084600195949392106114a457505050811b019055565b015460001960f88460031b161c1916905538808061105f565b8495819295850154815560018091019601940190611484565b61151e90856000527ff652222313e28459528d920b65115c16c04f3efc82aaedc97be59f3f377c0d3f601f850160051c81019160208610610fc957601f0160051c0190610f77565b38611416565b5050565b908082146115245761153a8154610e57565b906001600160401b03821161082857819061155f826115598654610e57565b86610f8e565b600090601f831160011461158a576000926114425750508160011b916000199060031b1c1916179055565b81526020808220858352818320935090601f1985169083905b8282106115c35750509084600195949392106114a457505050811b019055565b84958192958501548155600180910196019401906115a3565b806007146116ff57805490600160401b8211610828576007548260075580831061168b575b50600052602060002060076000527fa66cc928b5edb82af9bd49922954155ab7b0942694bea4ce44661d9a8736c688906000905b8382106116425750505050565b80600191840361165d575b6002809101930191019091611635565b818060a01b038154166001600160601b0360a01b85541617845561168682808301908601611528565b61164d565b6001600160ff1b0381811682036109755783168303610975576000600781526001907fa66cc928b5edb82af9bd49922954155ab7b0942694bea4ce44661d9a8736c68892821b83019285831b015b8381106116e857505050611601565b8082600292556116f9848201611216565b016116d9565b50565b8181146115245781549161171683836112e8565b6000526020600020906000526020600020906000905b8382106117395750505050565b806001918403611754575b600280910193019101909161172c565b818060a01b038154166001600160601b0360a01b85541617845561177d82808301908601611528565b611744565b806008146116ff57805490600160401b82116108285760085482600855808310611877575b50600052602060002060086000527ff3f7a9fe364faab93b216da50a3214154f22a0a2b415b23a84c8169e8b636ee3906000905b8382106117e85750505050565b806001918403611803575b60068091019301910190916117db565b80548455818101548285015561181f6002808301908601611528565b6003808501908201808203611846575b50506118416005808301908601611702565b6117f3565b838060a01b039054166001600160601b0360a01b8254161790556118706004808301908601611528565b388061182f565b600690808202908282040361097557838202828104850361097557600090600882527ff3f7a9fe364faab93b216da50a3214154f22a0a2b415b23a84c8169e8b636ee392830192015b8281106118cf575050506117a7565b8082859255600183818301556002906118e9828401611216565b8460038401556004906118fd828501611216565b6005840180549287825583611918575b5050505050016118c0565b9495509293919290916001600160ff1b0384168403611972575085526020852087949392821b810191905b828110611950578061190d565b8394955086819492939455611966838201611216565b01908794939291611943565b634e487b7160e01b875260119052602486fd5b806009146116ff57805490600160401b821161082857600954826009558083106119f4575b5060005260206000206009600052600080516020611c96833981519152906000905b8382106119d95750505050565b806119e660019285611528565b9281019291810191016119cc565b600960005282600080516020611c9683398151915291820191015b818110611a1c57506119aa565b80611a28600192611216565b01611a0f565b80600a146116ff578054906001600160401b03821161082857600160401b821161082857600a5482600a55808310611aae575b50600090815260208120600a825280545b838310611a7f5750505050565b600191820180546001600160a01b03909216600080516020611c76833981519152850155929091019190611a72565b611acc9083600080516020611c768339815191529182019101610f77565b38611a61565b91908110156109fe5760051b81013590601e198136030182121561015a5701908135916001600160401b03831161015a57602001823603811361015a579190565b611b1f909291926111db565b5060059081818103611c5a575b505060009260098054945b858110611b4957505050505050600090565b8160005280600080516020611c968339815191520160405190600091815481611b7182610e57565b9485825260209586830195600194888682169182600014611c3c575050600114611bfc575b5050611ba492500382610d79565b51902090611bb3368887610d9a565b805191012014611bcb57611bc69061111c565b611b37565b945050505050600a80548210156109fe57600052600080516020611c7683398151915201546001600160a01b031690565b87925060005281600020936000945b828610611c2357505050611ba4928201013880611b96565b8054868801850152929094019385935087928101611c0b565b9250935050611ba4945060ff1916865215158a1b8201013880611b96565b81611c6e925482556103ee600182016113de565b3881611b2c56fec65a7bb8d6351c1cf70c95a316cc6a92839c986682d98bc35f958f4883f9d2a86e1540171b6c0c960b71a7020d9f60077f6af931a8bbf590da0223dacf75c7afa2646970667358221220059140289c0df8e8c6e03c47891bb3dbfbc11fefcca94041a9255cf847e5003764736f6c63430008140033",
  "linkReferences": {},
  "deployedLinkReferences": {}
}