{
  "_format": "hh-sol-artifact-1",
  "contractName": "Dxpense",
  "sourceName": "contracts/Dxpense.sol",
  "abi": [
    {
      "inputs": [
        {
          "internalType": "string",
          "name": "name",
          "type": "string"
        }
      ],
      "name": "addName",
      "outputs": [],
      "stateMutability": "nonpayable",
      "type": "function"
    },
    {
      "inputs": [],
      "name": "getNames",
      "outputs": [
        {
          "internalType": "string[]",
          "name": "",
          "type": "string[]"
        }
      ],
      "stateMutability": "view",
      "type": "function"
    },
    {
      "inputs": [
        {
          "internalType": "uint256",
          "name": "",
          "type": "uint256"
        }
      ],
      "name": "names",
      "outputs": [
        {
          "internalType": "string",
          "name": "",
          "type": "string"
        }
      ],
      "stateMutability": "view",
      "type": "function"
    }
  ],
  "bytecode": "0x608060405260405180606001604052806040518060400160405280600581526020017f416c69636500000000000000000000000000000000000000000000000000000081525081526020016040518060400160405280600381526020017f426f62000000000000000000000000000000000000000000000000000000000081525081526020016040518060400160405280600781526020017f436861726c69650000000000000000000000000000000000000000000000000081525081525060009060036100ce9291906100e1565b503480156100db57600080fd5b506104dd565b828054828255906000526020600020908101928215610129579160200282015b82811115610128578251829081610118919061040b565b5091602001919060010190610101565b5b509050610136919061013a565b5090565b5b8082111561015a5760008181610151919061015e565b5060010161013b565b5090565b50805461016a90610224565b6000825580601f1061017c575061019b565b601f01602090049060005260206000209081019061019a919061019e565b5b50565b5b808211156101b757600081600090555060010161019f565b5090565b600081519050919050565b7f4e487b7100000000000000000000000000000000000000000000000000000000600052604160045260246000fd5b7f4e487b7100000000000000000000000000000000000000000000000000000000600052602260045260246000fd5b6000600282049050600182168061023c57607f821691505b60208210810361024f5761024e6101f5565b5b50919050565b60008190508160005260206000209050919050565b60006020601f8301049050919050565b600082821b905092915050565b6000600883026102b77fffffffffffffffffffffffffffffffffffffffffffffffffffffffffffffffff8261027a565b6102c1868361027a565b95508019841693508086168417925050509392505050565b6000819050919050565b6000819050919050565b60006103086103036102fe846102d9565b6102e3565b6102d9565b9050919050565b6000819050919050565b610322836102ed565b61033661032e8261030f565b848454610287565b825550505050565b600090565b61034b61033e565b610356818484610319565b505050565b5b8181101561037a5761036f600082610343565b60018101905061035c565b5050565b601f8211156103bf5761039081610255565b6103998461026a565b810160208510156103a8578190505b6103bc6103b48561026a565b83018261035b565b50505b505050565b600082821c905092915050565b60006103e2600019846008026103c4565b1980831691505092915050565b60006103fb83836103d1565b9150826002028217905092915050565b610414826101bb565b67ffffffffffffffff81111561042d5761042c6101c6565b5b6104378254610224565b61044282828561037e565b600060209050601f8311600181146104755760008415610463578287015190505b61046d85826103ef565b8655506104d5565b601f19841661048386610255565b60005b828110156104ab57848901518255600182019150602085019450602081019050610486565b868310156104c857848901516104c4601f8916826103d1565b8355505b6001600288020188555050505b505050505050565b610956806104ec6000396000f3fe608060405234801561001057600080fd5b50600436106100415760003560e01c806311456b47146100465780634622ab0314610062578063cd838f0f14610092575b600080fd5b610060600480360381019061005b91906103c7565b6100b0565b005b61007c60048036038101906100779190610446565b6100e8565b60405161008991906104f2565b60405180910390f35b61009a610194565b6040516100a79190610620565b60405180910390f35b6000819080600181540180825580915050600190039060005260206000200160009091909190915090816100e4919061084e565b5050565b600081815481106100f857600080fd5b90600052602060002001600091509050805461011390610671565b80601f016020809104026020016040519081016040528092919081815260200182805461013f90610671565b801561018c5780601f106101615761010080835404028352916020019161018c565b820191906000526020600020905b81548152906001019060200180831161016f57829003601f168201915b505050505081565b60606000805480602002602001604051908101604052809291908181526020016000905b828210156102645783829060005260206000200180546101d790610671565b80601f016020809104026020016040519081016040528092919081815260200182805461020390610671565b80156102505780601f1061022557610100808354040283529160200191610250565b820191906000526020600020905b81548152906001019060200180831161023357829003601f168201915b5050505050815260200190600101906101b8565b50505050905090565b6000604051905090565b600080fd5b600080fd5b600080fd5b600080fd5b6000601f19601f8301169050919050565b7f4e487b7100000000000000000000000000000000000000000000000000000000600052604160045260246000fd5b6102d48261028b565b810181811067ffffffffffffffff821117156102f3576102f261029c565b5b80604052505050565b600061030661026d565b905061031282826102cb565b919050565b600067ffffffffffffffff8211156103325761033161029c565b5b61033b8261028b565b9050602081019050919050565b82818337600083830152505050565b600061036a61036584610317565b6102fc565b90508281526020810184848401111561038657610385610286565b5b610391848285610348565b509392505050565b600082601f8301126103ae576103ad610281565b5b81356103be848260208601610357565b91505092915050565b6000602082840312156103dd576103dc610277565b5b600082013567ffffffffffffffff8111156103fb576103fa61027c565b5b61040784828501610399565b91505092915050565b6000819050919050565b61042381610410565b811461042e57600080fd5b50565b6000813590506104408161041a565b92915050565b60006020828403121561045c5761045b610277565b5b600061046a84828501610431565b91505092915050565b600081519050919050565b600082825260208201905092915050565b60005b838110156104ad578082015181840152602081019050610492565b60008484015250505050565b60006104c482610473565b6104ce818561047e565b93506104de81856020860161048f565b6104e78161028b565b840191505092915050565b6000602082019050818103600083015261050c81846104b9565b905092915050565b600081519050919050565b600082825260208201905092915050565b6000819050602082019050919050565b600082825260208201905092915050565b600061055c82610473565b6105668185610540565b935061057681856020860161048f565b61057f8161028b565b840191505092915050565b60006105968383610551565b905092915050565b6000602082019050919050565b60006105b682610514565b6105c0818561051f565b9350836020820285016105d285610530565b8060005b8581101561060e57848403895281516105ef858261058a565b94506105fa8361059e565b925060208a019950506001810190506105d6565b50829750879550505050505092915050565b6000602082019050818103600083015261063a81846105ab565b905092915050565b7f4e487b7100000000000000000000000000000000000000000000000000000000600052602260045260246000fd5b6000600282049050600182168061068957607f821691505b60208210810361069c5761069b610642565b5b50919050565b60008190508160005260206000209050919050565b60006020601f8301049050919050565b600082821b905092915050565b6000600883026107047fffffffffffffffffffffffffffffffffffffffffffffffffffffffffffffffff826106c7565b61070e86836106c7565b95508019841693508086168417925050509392505050565b6000819050919050565b600061074b61074661074184610410565b610726565b610410565b9050919050565b6000819050919050565b61076583610730565b61077961077182610752565b8484546106d4565b825550505050565b600090565b61078e610781565b61079981848461075c565b505050565b5b818110156107bd576107b2600082610786565b60018101905061079f565b5050565b601f821115610802576107d3816106a2565b6107dc846106b7565b810160208510156107eb578190505b6107ff6107f7856106b7565b83018261079e565b50505b505050565b600082821c905092915050565b600061082560001984600802610807565b1980831691505092915050565b600061083e8383610814565b9150826002028217905092915050565b61085782610473565b67ffffffffffffffff8111156108705761086f61029c565b5b61087a8254610671565b6108858282856107c1565b600060209050601f8311600181146108b857600084156108a6578287015190505b6108b08582610832565b865550610918565b601f1984166108c6866106a2565b60005b828110156108ee578489015182556001820191506020850194506020810190506108c9565b8683101561090b5784890151610907601f891682610814565b8355505b6001600288020188555050505b50505050505056fea26469706673582212205e6e68899a21d3c21791328dc629d9821a9c0a72f8b266731109cdace9e75b5964736f6c634300081c0033",
  "linkReferences": {},
  "deployedLinkReferences": {}
}